:100000000C9465000C948D000C948D000C948D0064
:100010000C948D000C948D000C948D000C9452184F
:100020000C948D000C948D000C948D000C948F0911
:100030000C948D000C948D000C948D000C948D000C
:100040000C94F6110C948D000C94FF140C944D1527
:100050000C948D000C948D000C948D000C948D00EC
:100060000C94060E0C948D00000000002400270064
:100070002A0000000000250028002B0000000000DE
:1000800023002600290004040404040404040202DA
:100090000202020203030303030301020408102007
:1000A0004080010204081020010204081020000012
:1000B0000007000201000003040600000000000029
:1000C00000000200F000A20C161711241FBECFEF93
:1000D000D4E0DEBFCDBF12E0A0E0B1E0E4EFFBE38F
:1000E00002C005900D92AE30B107D9F714E0AEE032
:1000F000B2E001C01D92A732B107E1F710E0CAECEF
:10010000D0E004C02297FE010E94BD1DC43CD1076F
:10011000C9F70E946C170C94F81D0C940000A0E025
:10012000B0E0E5E9F0E00C94C91DEC01A880B980CD
:10013000CA80DB80A114B104C104D10441F484E27B
:10014000A82E89EDB82E8BE5C82E87E0D82EC601E3
:10015000B5012DE133EF41E050E00E948C1D27EA0C
:1001600031E440E050E00E942C1D7B018C01C6016F
:10017000B5012DE133EF41E050E00E948C1DCA0132
:10018000B9012CEE34EF4FEF5FEF0E942C1D6E0D86
:100190007F1D801F911F97FF04C0615070408040F9
:1001A0009048688379838A839B839B01AC015F7746
:1001B000B901CA01CDB7DEB7EAE00C94E51D0E9493
:1001C0008F00089585E291E00E948F00089560936A
:1001D00025017093260180932701909328010895AB
:1001E000CF93DF938EE092E06DE10E94B50FCFE3F5
:1001F000D2E0CE010E94BF07239682E0C735D80720
:10020000C1F788E592E00E94A40BDF91CF91089599
:100210000F931F93182F062F61E00E947813812FF0
:1002200060E00E94B7138AE090E00E94B112812F33
:1002300061E00E94B7138EE690E00E94B112812F18
:1002400060E00E94B7138AE090E00E94B112802F14
:1002500060E00E947813802F61E020E335E740E002
:1002600050E00E945E140E94131C20E030E048E63B
:1002700052E40E947A1B20E030E040E251E40E9408
:10028000C91C0E94E21BCB011F910F910895DF93BF
:10029000CF930F92CDB7DEB780EF93E040E157E206
:1002A00060E070E00E94C41780EF93E0BE016F5FD2
:1002B0007F4F41E050E00E94F61704C080EF93E0CA
:1002C0000E949D1680EF93E00E946C16892BB1F777
:1002D00080EF93E048EE53E060E070E00E94C417C6
:1002E00081E00F90CF91DF9108951F93CF93DF931B
:1002F00010925702E9E2F1E08FEF819391E0E13350
:10030000F907D9F71FB7F894C5E3D1E089910E94A6
:100310003B1881E0CB33D807C9F785B1807C85B91C
:1003200084B1807C84B988B1807C88B987B1807CB5
:1003300087B98BB183708BB98AB183708AB91FBFBB
:10034000DF91CF911F9108950F931F93062FE5E33F
:10035000F1E0E80FF11D1081812F61E00E94781318
:10036000E02FF0E0EE0FFF1FE55CFE4F6081718132
:10037000812F20E030E040E050E00E94AE181F9155
:100380000F910895E82FF0E0CF01880F991F8E0F8D
:100390009F1FEB51FE4F6081815C9D4F70E044EFE9
:1003A00051E024EC39E00E9410090895982F81E073
:1003B00080935702A92FB0E0FD01E75DFE4F6083F7
:1003C0006330A9F0643028F4613089F06230A8F419
:1003D00009C0653009F444C0653028F1663009F081
:1003E00047C005C0AB5CBE4F8C9162E003C0892F53
:1003F000825F60E00E947813089588B190E044E045
:10040000959587954A95E1F783709070039721F051
:1004100085EE92E00E94420D8EE092E060E042E0C4
:100420000E947311089588B190E034E09595879506
:100430003A95E1F783709070039721F085EE92E092
:100440000E94420D88E592E00E941F0C88E592E030
:100450000E94480C88E592E066E00E945D0C0895D9
:100460008EE061E00E9478138FE060E00E947813D4
:1004700008950F931F9300EF13E0C80140E052EC82
:1004800061E070E00E948815C8010E94C61680E0F5
:100490000E94F6120E940D1B1F910F910895EF927A
:1004A000FF920F931F93062F60EFE62E63E0F62E68
:1004B000602F629566956695637070E090E08F702E
:1004C0009070880F991F880F991F682B792BC7018F
:1004D0000E94D61610E00F7310700064C701602FE1
:1004E0000E94D6161F910F91FF90EF900895682FEC
:1004F00070E06F717070606A80EF93E00E94D616B2
:100500000895682F70E0606C80EF93E00E94D6162B
:1005100008954F925F926F927F929F92AF92BF9297
:10052000CF92DF92EF92FF920F931F93CF93DF93BF
:100530007C010E944A12209175023091760240910E
:10054000770250917802621B730B840B950B00E0CD
:1005500010E0E616F7060807190708F0D1C099243D
:1005600005E6402E512C612C712CA92DB0E0FD0127
:10057000E75DFE4FE081E33009F45CC0E43028F42D
:10058000E130A1F0E230C8F50AC0E53009F48EC0D0
:10059000E53008F45BC0E63009F0A3C04BC0AB5CAB
:1005A000BE4F8C910E940B14682F23C0892D0E948E
:1005B000F61200D000D0AA2797FDA095BA2FEDB76C
:1005C000FEB74182528263827482BC01CD0120E079
:1005D00030E040E050E0E12C14E0F12E012D112D2F
:1005E000AA24BB2465010E94C41A0F900F900F909B
:1005F0000F90892D0E944F0274C08EE092E00E94FD
:10060000CC0F8EE092E00E94C00F682F88E00E941D
:100610004F028EE092E00E94C40F682F89E00E9492
:100620004F028EE092E00E94C80F682F8AE00E947D
:100630004F0256C0892D0E94F612682F192F892D5E
:100640000E944F02812F0E9481024BC088E592E0F8
:1006500067E672E049E652E02BE632E00DE612E092
:10066000BFE6EB2EB2E0FB2EA1E7CA2EA2E0DA2E07
:100670000E94A80BC7E6D2E0F8E0FF2E099119917D
:100680008F2D602F0E944F02812F992787FD9A9509
:100690008F710E947702812F8295869587700E94C4
:1006A0008102F394FEE0FF1649F71AC08EE06FE076
:1006B0000E94080180937302909374028C018FE072
:1006C000013A180714F000EA1FE0892D602F0E94FC
:1006D0004F02812F992787FD9A958F700E9477028C
:1006E00093949394E7E0E91508F03FCF0E944A12F3
:1006F00060937502709376028093770290937802EC
:10070000DF91CF911F910F91FF90EF90DF90CF90ED
:10071000BF90AF909F907F906F905F904F900895A3
:100720000F931F9300EF13E0C80160E00E94D616FC
:10073000C80166E00E94D616C80162E00E94D61683
:100740001F910F910895EF92FF920F931F93DF93E4
:10075000CF9300D00F92CDB7DEB78C017B0180EF35
:1007600093E00E946C16181619060CF040C080EF3A
:1007700093E0BE016F5F7F4F43E050E00E94F617A9
:100780000397ACF129814A81922F940F8B8198179E
:1007900031F080EF93E061E80E94D61628C0822FE6
:1007A000992787FD90959C0154E0359527955A959A
:1007B000E1F727703070F801318320838F709070DB
:1007C0009695982F882797958795242F332727FD6F
:1007D00030952F773070822B932BF7019183808394
:1007E00080EF93E060E80E94D61681E001C080E0CF
:1007F0000F900F900F90CF91DF911F910F91FF906D
:10080000EF9008958F929F92AF92BF92DF92EF92F6
:10081000FF920F931F93DF93CF93CDB7DEB7289747
:100820000FB6F894DEBF0FBECDBFD82E87E08D1572
:1008300008F4AFC0DD2079F10D2D10E048010894D7
:10084000811C911C7E010894E11CF11C5701A00E33
:10085000B11E80EF93E0B701A4010E94F6170817BC
:1008600019070CF096C0F5012081F70190E0819105
:10087000980F8E2F8E198D15D0F3921731F480EFCB
:1008800093E060E80E94D61606C080EF93E061E82E
:100890000E94D616DECF0E94470180EF93E060E011
:1008A00071E00E94C11768EC70E080E090E00E9467
:1008B000581204C080EF93E00E949D1680EF93E0F1
:1008C0000E946C16892BB1F7DD2071F580EF93E063
:1008D00067E071E00E94C11780EF93E08E010F5F27
:1008E0001F4FB80147E050E00E94F61707970CF43D
:1008F00050C080EF93E0B80147E050E00E94F61747
:1009000007970CF446C068EC70E080E090E00E942D
:10091000581204C080EF93E00E949D1680EF93E090
:100920000E946C16892BB1F780EF93E06EE071E0C6
:100930000E94C117BE016F5F7F4FDD2029F480EF59
:1009400093E047E050E004C080EF93E04D2D50E08D
:100950000E947B1780EF93E06CE171E00E94C11769
:1009600068EC70E080E090E00E94581280EF93E025
:100970006FE171E00E94C11704C080EF93E00E9414
:100980009D1680EF93E00E946C16892BB1F781E0F1
:1009900001C080E028960FB6F894DEBF0FBECDBF31
:1009A000CF91DF911F910F91FF90EF90DF90BF905B
:1009B000AF909F908F900895CF92DF92EF92FF9229
:1009C0000F931F93CF93DF93EB018330910509F4CD
:1009D000D1C0843091055CF48130910509F48DC05B
:1009E000823091050CF0ADC0892B69F02DC18530A6
:1009F000910509F4DFC0853091050CF4D0C007974C
:100A000009F022C11DC172FD11C08FE392E00E9466
:100A1000D90782E492E00E94D90702E010E034E0B6
:100A2000E32EF12C23E0C22ED12C10C085E492E0FD
:100A30000E94D90788E492E00E94D90707E010E0FD
:100A400098E0E92EF12C85E0C82ED12CCE01880F3C
:100A5000892F881F990B919587709070CF77D070F0
:100A600081309105C9F4802F61E00E9478138E2DAA
:100A700061E00E947813209719F4802F61E021C073
:100A8000219709F0E1C0802F60E00E94B7138E2DFE
:100A900061E00E94B713D8C082309105B9F4802F6D
:100AA00061E00E9478138E2D61E00E9478132097F8
:100AB00019F4802F61E0E9CF219709F0C5C0802F9C
:100AC00060E00E94B7138E2D60E0E3CF049709F039
:100AD000BBC0BE01882777FD8095982F0E94151C0A
:100AE00023E333E343E250E40E94C91C0E94E21B6B
:100AF0009B01AC018C2DB9015AC07B011F2D1770D1
:100B0000812F0E94C20180912C02882379F080916C
:100B10002D02E82FF0E0DF01A15DBD4F1C93E95CE1
:100B2000FD4FC0838F5F80932D028EC083E0189F9E
:100B3000C0011124815C9D4F6C2F70E00E94A808B9
:100B400083C07B01EF2DE770CB01880F892F881FB1
:100B5000990B919580FF07C09B012F77622F8E2FF5
:100B60000E94A40171C0F0E0EB5CFE4F80810E9406
:100B70003B186AC0ED2FF0E0E770F070EB5CFE4FC1
:100B80001081812F61E00E947813CC0FCD2FCC1FF4
:100B9000DD0BD195CE018170682F812F7ACFED2F9B
:100BA000F0E0E770F070EB51FE4F808170E00E9442
:100BB00018134AC0CB01880F892F881F990B919574
:100BC0008F70F1F466FD0AC010922D0281E08093CF
:100BD0002C029B012F7320932E0236C010922C0200
:100BE0008FE292E067E372E040912D0220912E02A5
:100BF0000E94510680EF93E06FE90E94D61624C050
:100C0000813061F4E4E076956795EA95E1F76770E5
:100C10009E012770822F0E94D60116C0823019F4DF
:100C20000E94750111C0833031F49B012770822F1F
:100C30000E94020409C0843039F40E94900304C069
:100C400080EF93E00E940616DF91CF911F910F91E4
:100C5000FF90EF90DF90CF900895DF93CF9300D077
:100C600000D0CDB7DEB7CE010196BE016D5F7F4FDC
:100C70000E94A303882331F06B817C8189819A8152
:100C80000E94DC0480915702882321F084E690E0E2
:100C90000E9489020F900F900F900F90CF91DF91DB
:100CA00008952F923F924F925F926F927F928F9210
:100CB0009F92AF92BF92CF92DF92EF92FF920F93EB
:100CC0001F93DF93CF93CDB7DEB7E8970FB6F894B5
:100CD000DEBF0FBECDBF9EA78DA71B014FA728ABC0
:100CE00079E0472E512C4C0E5D1E772488249924E0
:100CF000242F30E038AF2FAB68C0EDA5FEA5E80D7E
:100D0000F91D808143E0849FC0011124815C9D4FC7
:100D10000E945308682EF101E80DF91D608170E012
:100D2000681B7109882777FD8095982F0E94151CF4
:100D30007B018C0120E030E040E050E00E94C51CC7
:100D400018161CF45701680106C057016801D7FA4C
:100D5000D094D7F8D094672D70E0882777FD8095E0
:100D6000982F0E94151C9B01AC01C601B5010E9481
:100D7000C51C18168CF4C801B70120E030E040E033
:100D800050E00E94C51C18161CF4C801B7010AC027
:100D9000C801B701905806C0672D70E080E090E070
:100DA0000E94131C0E94E71B762EE1E0F0E0EC0F9E
:100DB000FD1FE80DF91D6082D201ED92FD920D93A9
:100DC0001D932D010894811C911CEFA9F8AD8E167E
:100DD0009F060CF492CF8E01075F1F4F7801FFA58D
:100DE0008F2F90E0880F991F880F991FE80EF91E2A
:100DF000A72CBB24CC24DD2413C0C601B5010E945E
:100E0000131C9B01AC01D8016D917D918D919C913A
:100E10000E947A1BF80161937193819391938F01E2
:100E20000E151F0551F751E0852E912C272D30E02E
:100E30003AAB29AB98A9892F90E0A0E0B0E08BAB4A
:100E40009CABADABBEAB77C0A1E08A16910431F488
:100E50000E944A1269A77AA78BA79CA749E0242E73
:100E6000312C2C0E3D1EAA24BB242401662457FCE1
:100E70006094762C38C0EDA5FEA5EA0DFB1D00811F
:100E8000B3E00B9F80011124015C1D4FE1E0F0E015
:100E9000EC0FFD1FEA0DFB1D608170E0882777FDD8
:100EA0008095982F0E94151C6B017C01C301B20133
:100EB0000E94151CF10121913191419151911F0125
:100EC0000E94C91C9B01AC01C701B6010E94161B00
:100ED0000E94E21B9B01AC01C801B9010E94A80855
:100EE0000894A11CB11C2FA938ADA216B3061CF2A0
:100EF00080912C02882331F50E944A1229A53AA537
:100F00004BA55CA5621B730B840B950B2BA93CA90D
:100F10004DA95EA9621773078407950798F40E948C
:100F20002D06E6CF0E944A1269A77AA78BA79CA735
:100F30000894811C911C49A95AA9481559050CF01F
:100F400083CF04C080912C02882361F3E8960FB60A
:100F5000F894DEBF0FBECDBFCF91DF911F910F91EF
:100F6000FF90EF90DF90CF90BF90AF909F908F90C9
:100F70007F906F905F904F903F902F900895FC016D
:100F8000809179028C3090F480838F5F8093790216
:100F9000815090E0FC01EE0FFF1FE80FF91FE658AB
:100FA000FD4F8CED95E09283818308958FEF8083D0
:100FB0000895DC018C9190E0FC01EE0FFF1FE80F1B
:100FC000F91FE658FD4F80818F7B80838C916CE008
:100FD0000E944B1D90E0AC01440F551F480F591F54
:100FE000440F551F440F551F20E030E0C901840F06
:100FF000951FFC01EE0FFF1FE80FF91FE658FD4F8C
:10100000808186FD05C02F5F3F4F2C30310571F781
:101010000895FC0130813C3078F58181992787FD66
:10102000909548E850E0481B590B440F551F440F5A
:10103000551F6417750784F08281992787FD909565
:1010400048E552E0481B590B440F551F440F551FEC
:10105000641775070CF4AB012FB7F894832F90E059
:10106000FC01EE0FFF1FE80FF91FE658FD4F42503D
:101070005040528341832FBF0895FC0180818F3FF0
:1010800019F420E030E00DC090E0FC01EE0FFF1FEE
:10109000E80FF91FE658FD4F218132813F712E5F25
:1010A0003F4FC9010895AF92BF92CF92DF92EF9266
:1010B000FF920F931F938C010E943D0800D000D037
:1010C0000196AA2797FDA095BA2FF801618177278D
:1010D00067FD709528E830E0261B370B220F331F81
:1010E000220F331F442737FD4095542F6281772705
:1010F00067FD7095E8E5EE2EE2E0FE2EE61AF70AAF
:10110000EE0CFF1CEE0CFF1C0027F7FC0095102FC7
:1011100064EBA62EB12CC12CD12CEDB7FEB7A18269
:10112000B282C382D482BC01CD01AA24BB24650152
:101130000E94C41A0F900F900F900F90CB011F9137
:101140000F91FF90EF90DF90CF90BF90AF900895F8
:10115000AF92BF92CF92DF92EF92FF920F931F93C5
:10116000CF93DF93EC019B0182E0603278070CF0B3
:1011700048C077FF03C020E030E005C0653B710543
:1011800014F024EB30E000D000D0B901882777FDBF
:101190008095982F2981332727FD3095E8E8AE2EDA
:1011A000B12CA21AB30AAA0CBB1CAA0CBB1CCC24DF
:1011B000B7FCC094DC2CEA81FF27E7FDF09528E519
:1011C00032E02E1B3F0B220F331F220F331F442709
:1011D00037FD4095542FEDB7FEB72183328343830B
:1011E000548320E030E040E050E004EBE02EF12CAE
:1011F000012D112D0E94C41A9B010F900F900F908A
:101200000F90CE01B9010E940908DF91CF911F9183
:101210000F91FF90EF90DF90CF90BF90AF90089527
:10122000CF92DF92EF92FF921F93CF93DF93EC0167
:10123000162F7A01690188818C3008F064C0862FEE
:1012400061E00E947813888190E0FC01EE0FFF1F9F
:10125000E80FF91FE658FD4F1F738081807C812BBA
:10126000808380E292E08E199F0964E070E00E9422
:10127000571D698380E699E08C199D0964E070E050
:101280000E94571D6A83A8818A2F6CE00E944B1D23
:10129000682F70E0AB01440F551F460F571F440FD6
:1012A000551F440F551F20E030E0C901840F951FE2
:1012B000FC01EE0FFF1FE80FF91FE658FD4F80817C
:1012C00086FD15C02F5F3F4F2C30310571F724C0CC
:1012D0001092800082E0809381001092850010922D
:1012E0008400B19A80916F00826080936F008A2F92
:1012F00090E0FC01EE0FFF1FE80FF91FE658FD4FCD
:101300008081806480838881DF91CF911F91FF90DD
:10131000EF90DF90CF900895672BD1F2E8CF1F9226
:101320000F920FB60F9211242F933F934F935F9319
:101330006F937F938F939F93AF93BF93EF93FF939D
:1013400080919E0287FF05C0109285001092840054
:101350002BC020919E02332727FD30958091790282
:1013600090E02817390704F580919E02992787FDA0
:101370009095FC01EE0FFF1FE80FF91FE658FD4F97
:10138000808186FF11C080919E02992787FD9095EC
:10139000FC01EE0FFF1FE80FF91FE658FD4F80819B
:1013A0008F7360E00E94B71380919E028F5F8093DD
:1013B0009E0220919E02332727FD3095809179026D
:1013C00090E0281739070CF04EC080919E028C30B7
:1013D0000CF049C0209184003091850080919E02DC
:1013E000992787FD9095FC01EE0FFF1FE80FF91F6D
:1013F000E658FD4F81819281280F391F3093890073
:101400002093880080919E02992787FD9095FC018A
:10141000EE0FFF1FE80FF91FE658FD4F808186FF92
:101420002BC080919E02992787FD9095FC01EE0FBD
:10143000FF1FE80FF91FE658FD4F80818F7361E0B1
:101440000E94B71319C080E29EE405C08091840019
:1014500090918500049690938900809388008FEF87
:1014600080939E0209C0809184009091850004962B
:1014700080529E4440F3EACFFF91EF91BF91AF912C
:101480009F918F917F916F915F914F913F912F919C
:101490000F900FBE0F901F901895EF92FF920F9331
:1014A0001F93CF93DF93582F162FE42E022FF32E86
:1014B00085EE92E0652F0E94680C85EE92E0612F28
:1014C0000E94EA0C202F3F2DC901EC0110E006C05C
:1014D00085EE92E069910E94EA0C1F5F1E15C0F331
:1014E00085EE92E00E942D0D90E0882309F491E0B2
:1014F000892FDF91CF911F910F91FF90EF90089569
:10150000DF93CF930F92CDB7DEB7498341E09E01C1
:101510002F5F3F4F0E944D0A0F90CF91DF910895AA
:101520005F926F927F928F929F92AF92BF92CF9273
:10153000DF92EF92FF920F931F93CF93DF93F82EDA
:10154000E62E542E6901580185EE92E06F2D0E941F
:10155000680C85EE92E06E2D0E94EA0C85EE92E01A
:101560000E942D0D85EE92E06F2D0E94680C85EE95
:1015700092E06F2D452D0E943E0D0E944A123B01C4
:101580004C01E601780100E010E0CE018C19D82E64
:1015900085EE92E00E94720C892B09F442C0A114DE
:1015A000B10459F00E944A1266197709880999090D
:1015B0006E157F058007910730F485EE92E00E945A
:1015C0007B0C8993E2CF0E944A1266197709880939
:1015D0009909950140E050E0621773078407950769
:1015E00058F02D2D332727FD3095852D90E02817B5
:1015F000390714F4DD24DA9485EE92E00E942D0D73
:101600008D2DDF91CF911F910F91FF90EF90DF9083
:10161000CF90BF90AF909F908F907F906F905F9092
:101620000895A114B10441F3CECF0F931F93FA0193
:10163000890141E09F010E94900A1F910F91089536
:10164000DF92EF92FF920F931F93DF93CF930F924E
:10165000CDB7DEB7E82ED62EF42E122F2091310111
:1016600030913201AE014F5F5F4F0E94150B88230E
:1016700041F1212F30E04F2D50E04F5F5F4F421B73
:10168000530B81E090E002C0880F991F1A95E2F792
:101690000197042E02C0880F991F0A94E2F7202FA9
:1016A00030E002C0220F331F4A95E2F7482F4095E1
:1016B000598145238223482B49838E2D6D2D0E940D
:1016C000800A0F90CF91DF911F910F91FF90EF90C3
:1016D000DF900895EF92FF920F931F93DF93CF93C4
:1016E0000F92CDB7DEB7F82EE62E042F122F2091E1
:1016F000310130913201AE014F5F5F4F0E94150BF7
:101700002981112351F081E090E002C0880F991FD8
:101710000A95E2F7422F482B0AC081E090E002C010
:10172000880F991F0A95E2F7482F40954223498375
:101730008F2D6E2D0E94800A0F90CF91DF911F9107
:101740000F91FF90EF900895FC0188E68083089543
:101750002F923F924F925F926F927F928F929F92C1
:10176000AF92BF92CF92DF92EF92FF920F931F93AF
:101770005C014B013A01290118019C012F5F3F4F89
:101780000091310110913201FC0180816BE34EE048
:101790000E94900AF501918180E0228130E0822B45
:1017A000932BF40191838083F501938180E0248160
:1017B00030E0822B932BF30191838083F501958197
:1017C00080E0268130E0822B932BF201918380838D
:1017D000F501918580E0228530E0822B932BF10189
:1017E00091838083F501938580E0248530E0822B0E
:1017F000932BF70191838083F501958580E0268501
:1018000030E0822B932BF601918380831F910F91FF
:10181000FF90EF90DF90CF90BF90AF909F908F9010
:101820007F906F905F904F903F902F900895FC01B4
:10183000262F80816BE646E00E946A0B0895FC012A
:1018400080816BE647E021E00E946A0B08950F93C8
:10185000FC01062F80816BE642E023E00E94200B12
:101860000F9108950F93FC01062F80816CE144E0F5
:1018700022E00E94200B0F9108950F93FC01062F88
:1018800080816BE144E022E00E94200B0F910895DB
:101890000F931F938C0161E00E94270CC80160E048
:1018A0000E943D0CC80160E00E94320CC80160E05B
:1018B0000E94170C1F910F9108950F93FC01062FA2
:1018C00080816AE142E023E00E94200B0F9108959D
:1018D00081E08093E4026093C1021092E2021092D0
:1018E000E30208952091C00230E08091BF02281BDE
:1018F0003109C90108954091BF028091C002481783
:1019000018F02FEF3FEF0AC0E42FF0E0E156FD4F53
:101910008081282F30E04F5F4093BF02C9010895B6
:10192000E091BF028091C002E81718F0EFEFFFEFDF
:1019300006C0F0E0E156FD4F8081E82FF0E0CF01D6
:10194000089508951092E8021092E70288EE93E05D
:10195000A0E0B0E08093E9029093EA02A093EB024A
:10196000B093EC0281EF91E09093E6028093E50260
:101970000895CF92DF92EF92FF920F931F93CF9330
:10198000DF937C016B018A018091E4028823A1F03E
:10199000C0E0D0E00DC0D701ED91FC91D601AC0FB5
:1019A000BD1F0190F081E02DC7016C910995219632
:1019B000C017D10780F304C0CB01642F0E94EB0D48
:1019C000C801DF91CF911F910F91FF90EF90DF90B1
:1019D000CF900895DF93CF930F92CDB7DEB7FC0180
:1019E00069838091E4028823C9F08091E302803208
:1019F00038F081E090E09383828320E030E015C0EE
:101A00008091E202E82FF0E0EE53FD4F9981908340
:101A10008F5F8093E2028093E30205C0CE010196BE
:101A200061E00E94EB0D21E030E0C9010F90CF9101
:101A3000DF9108950F93062F8091C10262EC72E04E
:101A40004091E30221E00E94960D1092E202109272
:101A5000E3021092E4020F91089561E00E941A0DD2
:101A60000895413208F040E2862F6FE972E00E944B
:101A70004D0D1092BF028093C002089521E00E9494
:101A8000310D08951092BF021092C0021092E2022E
:101A90001092E3020E94970F0895382F413210F000
:101AA00040E042C08091F1028823E1F791E09093F9
:101AB000F1022093F3028FEF80935E0310921903DB
:101AC000415040931A034F5F9093F2028091F202CB
:101AD000330F832B8093F2028091F402813041F422
:101AE0001092F4028091F2028093BB0085EC01C059
:101AF00085EE8093BC008091F1028130E1F380910A
:101B00001903841710F44091190320E030E00AC053
:101B1000FB01E20FF31FD901A750BD4F8C918083C9
:101B20002F5F3F4F2417A0F3842F08950F931F9327
:101B3000582F122F413210F081E04AC08091F102FB
:101B40008823E1F782E08093F1020093F3028FEFA4
:101B500080935E031092190340931A03A9EFB2E039
:101B6000FB0102C081918D938E2F861B8417D0F3C9
:101B70001092F2028091F202550F852B8093F202AF
:101B80008091F402813041F41092F4028091F202CB
:101B90008093BB0085EC01C085EE8093BC001123CF
:101BA00021F08091F1028230E1F380915E038F3F5A
:101BB00011F480E00DC080915E03803211F482E068
:101BC00007C080915E03803311F084E001C083E0A0
:101BD0001F910F910895482F613210F081E0089510
:101BE0008091F102843011F082E0089560933C030B
:101BF000ABE1B3E0842F9C01F90102C081918D9388
:101C00008E2F841B8617D0F380E008951F920F92C9
:101C10000FB60F9211242F933F934F935F936F93BF
:101C20007F938F939F93AF93BF93EF93FF93809195
:101C3000B90090E0887F90708036910509F4F2C079
:101C400081369105CCF58832910509F47BC0893243
:101C50009105B4F48031910509F46FC0813191058B
:101C60003CF4009709F447C1089709F04FC165C0DB
:101C70008831910509F466C0809709F047C182C098
:101C80008034910509F4A4C08134910544F4803373
:101C9000910509F482C0C89709F038C189C0803520
:101CA000910509F489C08835910509F496C08834F6
:101CB000910509F02BC1AEC08839910509F413C113
:101CC00089399105ECF48837910509F4ABC089375F
:101CD00091054CF48836910509F4A4C0803791052C
:101CE00009F014C19FC08838910509F4FCC08039FF
:101CF000910509F49DC08038910509F007C198C08D
:101D0000803B910509F4C6C0813B91054CF4803AB3
:101D1000910509F49FC0883A910509F0F7C0BAC04F
:101D2000803C910509F4E3C0883C910509F4DFC0CB
:101D3000883B910509F0EAC0C2C08091F20280930D
:101D4000BB00CFC09091190380911A03981768F4D3
:101D500090911903E92FF0E0E750FD4F80818093C7
:101D6000BB009F5F90931903BCC08091F30288234E
:101D700009F44BC085ED8093BC008091BC0084FDCC
:101D8000FCCFC2C080E280935E0385ED8093BC00EF
:101D90008091BC0084FDFCCFB7C080E380935E03DC
:101DA00085ED8093BC008091BC0084FDFCCFACC06D
:101DB00088E380935E039BC0809119039091BB00E0
:101DC000E82FF0E0E750FD4F90838F5F8093190379
:101DD0009091190380911A0382C080911903909108
:101DE000BB00E82FF0E0E750FD4F90838F5F8093BA
:101DF00019038091F302882341F085ED8093BC00A4
:101E00008091BC0084FDFCCF7FC081E08093F40210
:101E100084EA6EC085ED8093BC008091BC0084FD97
:101E2000FCCF72C083E08093F10210925D0359C031
:101E300080915D03803208F056C080915D039091DF
:101E4000BB00E82FF0E0E35CFC4F90838F5F809352
:101E50005D0347C080915D03803230F4E0915D0303
:101E6000F0E0E35CFC4F108285ED8093BC00809134
:101E7000BC0084FDFCCF1092F10260915D03E09103
:101E8000F702F091F8028DE393E070E0099510926B
:101E90005D032DC084E08093F10210923B03109209
:101EA0003C03E091F502F091F602099580913C0324
:101EB000882329F481E080933C0310921B039091C6
:101EC0003B03E92FF0E0E55EFC4F80818093BB008F
:101ED0009F5F90933B0390913B0380913C03981745
:101EE00010F485EC01C085E88093BC000FC085EC40
:101EF0008093BC0009C010925E0385ED8093BC0006
:101F00008091BC0084FDFCCF1092F102FF91EF9113
:101F1000BF91AF919F918F917F916F915F914F9101
:101F20003F912F910F900FBE0F901F901895109218
:101F3000F10281E08093F3021092F40282E161E009
:101F40000E94B71383E161E00E94B713E9EBF0E070
:101F500080818E7F808380818D7F808380E28093EB
:101F6000B80085E48093BC000895FC01608380EE96
:101F70009EE2A5E6B2E4828F938FA48FB58F089579
:101F8000FC01838194810895FC01858196810895E7
:101F9000FC01878190850895EF92FF920F931F9324
:101FA000CF93DF93EC0185EE92E068810E94680C8C
:101FB00085EE92E060E00E94EA0C85EE92E060E03F
:101FC0000E941A0D68818D85882311F444E001C0B8
:101FD00047E085EE92E00E943E0D85EE92E00E9481
:101FE000720C892B09F4C5C085EE92E00E947B0C2F
:101FF00089838D85882309F461C085EE92E00E9473
:102000007B0C182F85EE92E00E947B0C312F20E094
:10201000280F391F3C832B83C90160E470E00E94C4
:10202000571D882777FD8095982F0E94151C2985BC
:102030003A854B855C850E94C91C6E877F87888B9B
:10204000998B85EE92E00E947B0C182F85EE92E032
:102050000E947B0C312F20E0280F391F3E832D83F7
:10206000C90160E470E00E94571D882777FD8095C4
:10207000982F0E94151C29853A854B855C850E9406
:10208000C91C6A8B7B8B8C8B9D8B85EE92E00E94AA
:102090007B0C182F85EE92E00E947B0C312F20E004
:1020A000280F391F38872F83C90160E470E00E9430
:1020B000571D882777FD8095982F4FC085EE92E0B9
:1020C0000E947B0C982F80E060E071E00E94571D19
:1020D0007C836B8385EE92E00E947B0C982F80E0DE
:1020E00060E071E00E94571D7E836D8385EE92E073
:1020F0000E947B0C982F80E060E071E00E94571DE9
:102100007B0178876F836B817C81882777FD809541
:10211000982F0E94151C29853A854B855C850E9465
:10212000C91C6E877F87888B998B6D817E818827FC
:1021300077FD8095982F0E94151C29853A854B853F
:102140005C850E94C91C6A8B7B8B8C8B9D8B0027C6
:10215000F7FC0095102FC801B7010E94151C2985B6
:102160003A854B855C850E94C91C6E8B7F8B888F5E
:10217000998FDF91CF911F910F91FF90EF9008956C
:10218000FF920F931F938C01F62E85EE92E0F801DB
:1021900060810E94680C85EE92E06F2D0E94EA0C2F
:1021A00085EE92E060E00E941A0D85EE92E0F80163
:1021B000608141E00E943E0D85EE92E00E94720C2B
:1021C000892B11F480E004C085EE92E00E947B0C24
:1021D0001F910F91FF9008951F93CF93DF93EC0110
:1021E00085EE92E068810E94680C85EE92E06AE2DA
:1021F0000E94EA0C85EE92E00E942D0D85EE92E0A1
:10220000688141E00E943E0D85EE92E00E94720CD2
:10221000892B11F410E005C085EE92E00E947B0C42
:10222000182F85EE92E068810E94680C85EE92E09E
:102230006AE20E94EA0C8D85882319F482E090E01E
:1022400002C080E090E01160612F70E06861682B4F
:10225000792B85EE92E00E94EA0C85EE92E00E94D6
:102260002D0DDF91CF911F9108951F93CF93DF9391
:10227000EC0185EE92E068810E94680C85EE92E0A8
:102280006AE20E94EA0C85EE92E00E942D0D85EE36
:1022900092E0688141E00E943E0D85EE92E00E944E
:1022A000720C892B11F410E005C085EE92E00E94BB
:1022B0007B0C182F85EE92E068810E94680C85EEF9
:1022C00092E06AE20E94EA0C612F70E06E7F85EE78
:1022D00092E00E94EA0C85EE92E00E942D0DDF91C3
:1022E000CF911F910895CF93DF93EC016D874A83BF
:1022F000662329F424E237E94FE75CE304C024E2D3
:1023000037E94FE75BE329873A874B875C878A8108
:10231000843029F4CA01B9010E94161B0AC0883012
:1023200061F4CA01B90120E030E040E850E40E94C5
:10233000C91C69877A878B879C87CE016DE00E94D4
:10234000C01085EE92E068810E94680C85EE92E0F4
:102350006BE20E94EA0C85EE92E060E40E94EA0CD7
:1023600085EE92E00E942D0D6AE070E080E090E042
:102370000E945812CE010E94351185EE92E06881CC
:102380000E94680C85EE92E061E10E94EA0C85EE05
:1023900092E060EC0E94EA0C85EE92E00E942D0D26
:1023A00085EE92E068810E94680C85EE92E06EE016
:1023B0000E94EA0C8A81843019F461E070E004C064
:1023C000883029F462E070E085EE92E003C085EE8B
:1023D00092E060E00E94EA0C85EE92E00E942D0DF2
:1023E000CE010E94EC10DF91CF9108951F920F92C1
:1023F0000FB60F9211242F933F934F935F936F93D8
:102400007F938F939F93AF93BF93209163033091FA
:102410006403409165035091660370916703DA018C
:10242000C9010296A11DB11D672F6A5F6D3730F09B
:102430006D57DA01C9010396A11DB11D60936703B1
:102440008093630390936403A0936503B093660342
:1024500080915F0390916003A0916103B09162034A
:102460000196A11DB11D80935F0390936003A0931B
:102470006103B0936203BF91AF919F918F917F9160
:102480006F915F914F913F912F910F900FBE0F90E1
:102490001F9018958FB7F8942091630330916403CF
:1024A00040916503509166038FBFB901CA01089539
:1024B0009B01AC017FB7F89480915F03909160031A
:1024C000A0916103B091620366B5A89B05C06F3F00
:1024D00019F00196A11DB11D7FBFBA2FA92F982F0A
:1024E0008827860F911DA11DB11D63E0880F991FDC
:1024F000AA1FBB1F6A95D1F7BC012DC0FFB7F89486
:1025000080915F0390916003A0916103B091620399
:10251000E6B5A89B05C0EF3F19F00196A11DB11DBE
:10252000FFBFBA2FA92F982F88278E0F911DA11DAD
:10253000B11DE3E0880F991FAA1FBB1FEA95D1F7D1
:10254000861B970B885E9340C8F221503040404074
:10255000504068517C4F211531054105510571F6F8
:102560000895019739F0019729F0880F991F019775
:102570000197F1F70895789484B5826084BD84B59D
:10258000816084BD85B5826085BD85B5816085BD6E
:10259000EEE6F0E0808181608083E1E8F0E0108287
:1025A000808182608083808181608083E0E8F0E0C8
:1025B000808181608083E1EBF0E0808184608083B2
:1025C000E0EBF0E0808181608083EAE7F0E08081E9
:1025D0008460808380818260808380818160808349
:1025E0008081806880831092C1000895982F8E307A
:1025F00008F09E509770809133018295880F880F64
:10260000807C892B80937C0080917A008064809309
:102610007A0080917A0086FDFCCF2091780040916D
:102620007900942F80E030E0282B392BC9010895E0
:102630001F93CF93DF93182FEB0161E00E94781373
:10264000209709F44AC0CF3FD10509F449C0E12FD2
:10265000F0E0E255FF4F84918330C1F0843028F4DC
:10266000813051F08230B1F50CC0863019F18730DD
:1026700049F1843079F514C084B5806884BDC7BD44
:1026800033C084B5806284BDC8BD2EC080918000F7
:10269000806880938000D0938900C093880024C014
:1026A00080918000806280938000D0938B00C093E3
:1026B0008A001AC08091B00080688093B000C093F7
:1026C000B30012C08091B00080628093B000C093CC
:1026D000B4000AC0C038D1051CF4812F60E002C0EC
:1026E000812F61E00E94B713DF91CF911F91089570
:1026F000CF93DF93482F50E0CA0186569F4FFC01CD
:1027000034914A575F4FFA018491882369F190E030
:10271000880F991FFC01E859FF4FA591B491FC0166
:10272000EE58FF4FC591D491662351F42FB7F8941A
:102730008C91932F909589238C93888189230BC04A
:10274000623061F42FB7F8948C91932F9095892380
:102750008C938881832B88832FBF06C09FB7F89402
:102760008C91832B8C939FBFDF91CF910895482F3D
:1027700050E0CA0182559F4FFC012491CA01865640
:102780009F4FFC0194914A575F4FFA0134913323D4
:1027900009F440C0222351F1233071F0243028F491
:1027A0002130A1F0223011F514C02630B1F02730CD
:1027B000C1F02430D9F404C0809180008F7703C029
:1027C000809180008F7D8093800010C084B58F77CA
:1027D00002C084B58F7D84BD09C08091B0008F7721
:1027E00003C08091B0008F7D8093B000E32FF0E0B4
:1027F000EE0FFF1FEE58FF4FA591B4912FB7F8943D
:10280000662321F48C919095892302C08C91892BA9
:102810008C932FBF0895682F70E0CB0182559F4F96
:10282000FC012491CB0186569F4FFC0144916A57CD
:102830007F4FFB019491992319F420E030E03CC0D4
:10284000222351F1233071F0243028F42130A1F0FB
:10285000223011F514C02630B1F02730C1F02430F9
:10286000D9F404C0809180008F7703C080918000EC
:102870008F7D8093800010C084B58F7702C084B5AF
:102880008F7D84BD09C08091B0008F7703C0809197
:10289000B0008F7D8093B000892F90E0880F991F42
:1028A00084589F4FFC01A591B4918C9120E030E0B9
:1028B000842311F021E030E0C90108958F929F92A6
:1028C000AF92BF92CF92DF92EF92FF920F931F933E
:1028D000CF93DF93A82FB0E0CD0186569F4FFC0128
:1028E0008490AA57BF4FFD018491662311F4992467
:1028F00001C0982C59016A0133E0AA0CBB1CCC1C06
:10290000DD1C3A95D1F724E0D694C794B794A794E8
:102910002A95D1F7682F70E0660F771F64587F4FB4
:10292000EE24FF248701FB01A591B4910BC0EA14AA
:10293000FB040C051D0509F44EC00894E11CF11CB4
:10294000011D111D8C918821891589F30CC0EA1491
:10295000FB040C051D0509F43EC00894E11CF11CA4
:10296000011D111D03C0FB01A591B4918C9188211B
:10297000891569F720E030E040E050E0FB01C591A7
:10298000D4910FC0DA01C9018E0D9F1DA01FB11F88
:102990008A159B05AC05BD05F1F02F5F3F4F4F4FEA
:1029A0005F4F88818821891569F3CA01B90125E142
:1029B00030E040E050E00E942C1D9B01AC01205F04
:1029C0003F4F4F4F5F4F83E056954795379527957B
:1029D0008A95D1F704C020E030E040E050E0B90132
:1029E000CA01DF91CF911F910F91FF90EF90DF907F
:1029F000CF90BF90AF909F908F90089508951F92B1
:102A00000F920FB60F9211242F933F934F938F93F2
:102A10009F93EF93FF938091C00082FD1DC0409172
:102A2000C6002091A8033091A9032F5F3F4F2F7359
:102A300030708091AA039091AB032817390771F089
:102A4000E091A803F091A903E859FC4F408330932B
:102A5000A9032093A80302C08091C600FF91EF91C3
:102A60009F918F914F913F912F910F900FBE0F909B
:102A70001F901895E091FC03F091FD03E05CFF4F7F
:102A80008191919120813181821B930B8F73907082
:102A9000892B11F00E94FE1408951F920F920FB619
:102AA0000F9211242F933F938F939F93EF93FF9354
:102AB0002091EC033091ED038091EE039091EF03B0
:102AC0002817390731F48091C1008F7D8093C100B0
:102AD00014C0E091EE03F091EF03E455FC4F208128
:102AE0008091EE039091EF0301968F739070909315
:102AF000EF038093EE032093C600FF91EF919F9127
:102B00008F913F912F910F900FBE0F901F901895AE
:102B1000AF92BF92DF92EF92FF920F931F93CF93EA
:102B2000DF93EC017A018B01DD24D39491E0A92E8F
:102B3000B12CEC89FD89DD2069F0C50108A002C037
:102B4000880F991F0A94E2F7808360E874E88EE1A9
:102B500090E005C0108260E472E48FE090E0A8018C
:102B600097010E946A1D21503040404050405695C8
:102B700047953795279580E12030380720F0DD20F4
:102B800011F0DD24D6CFE889F9893083EA89FB8901
:102B9000208319A2EE89FF89408121E030E0C9013C
:102BA0000C8C02C0880F991F0A94E2F7482B4083CF
:102BB000EE89FF894081C9010D8C02C0880F991FE1
:102BC0000A94E2F7482B4083EE89FF894081C901CE
:102BD0000E8C02C0880F991F0A94E2F7482B40839D
:102BE000EE89FF8980810F8C02C0220F331F0A9467
:102BF000E2F7209528232083DF91CF911F910F9139
:102C0000FF90EF90DF90BF90AF900895CF93DF9348
:102C1000DC011E968D919C911F97EC01C05CDF4FEB
:102C2000FC01EE5BFF4F288139818081918128175B
:102C30003907C9F75696ED91FC915797408121E0ED
:102C400030E0C9015C960C905C9702C0880F991F18
:102C50000A94E2F78095842380835696ED91FC9147
:102C600057974081C9015D960C905D9702C0880F0F
:102C7000991F0A94E2F78095842380835696ED91FC
:102C8000FC9157974081C9015E960C905E9702C0F7
:102C9000880F991F0A94E2F78095842380835696C3
:102CA000ED91FC91579780815F960C905F9702C0E1
:102CB000220F331F0A94E2F72095282320831C96C5
:102CC000ED91FC911D97EE5BFF4F80819181929376
:102CD0008293DF91CF910895DC011C96ED91FC91D8
:102CE0001D97E05CFF4F2191319180819181281BDC
:102CF000390B2F733070C9010895DC011C96ED91DA
:102D0000FC911D97E05CFF4F20813181E054F04041
:102D1000DF01AE5BBF4F8D919C911197281739074A
:102D200019F42FEF3FEF07C08D919C91E80FF91F29
:102D30008081282F30E0C9010895DC011C96ED91B7
:102D4000FC911D97E05CFF4F20813181E054F04001
:102D5000DF01AE5BBF4F8D919C911197281739070A
:102D600019F42FEF3FEF10C08D919C911197E80F50
:102D7000F91F20818D919C91119701968F7390700E
:102D800011969C938E9330E0C9010895DC019196D1
:102D90008C919197882339F05496ED91FC91559739
:102DA000808186FFF9CF91961C920895CF93DF938F
:102DB000EC01EE85FF85E05CFF4F20813181E0541E
:102DC000F0402F5F3F4F2F733070DF01AE5BBF4F7E
:102DD0008D919C91119728173907D1F3E05CFF4F33
:102DE00080819181E054F040E80FF91F6083EE8507
:102DF000FF85E05CFF4F31832083EE89FF892081CE
:102E000081E090E00F8C02C0880F991F0A94E2F7CE
:102E1000282B208381E089A3EC89FD89808180644F
:102E2000808381E090E0DF91CF9108951092F303C9
:102E30001092F20388EE93E0A0E0B0E08093F403F8
:102E40009093F503A093F603B093F70381E092E02B
:102E50009093F1038093F00388E693E09093FD0351
:102E60008093FC038CEA93E09093FF038093FE032E
:102E700085EC90E0909301048093000484EC90E052
:102E8000909303048093020480EC90E090930504F7
:102E90008093040481EC90E09093070480930604EF
:102EA00082EC90E0909309048093080486EC90E013
:102EB00090930B0480930A0484E080930C0483E0D5
:102EC00080930D0487E080930E0485E080930F04C7
:102ED00081E0809310040895CF93DF930E94BB128A
:102EE0000E943902CAE3D5E10E942D062097E1F342
:102EF0000E943A15F9CFCF92DF92EF92FF920F9393
:102F00001F93CF93DF937C016B018A01C0E0D0E077
:102F10000FC0D6016D916D01D701ED91FC9101902B
:102F2000F081E02DC7010995C80FD91F015010404D
:102F30000115110571F7CE01DF91CF911F910F910E
:102F4000FF90EF90DF90CF900895CF93DF93EC0147
:102F50006115710519F420E030E00FC0DB010D9020
:102F60000020E9F71197A61BB70BE881F9810280D1
:102F7000F381E02DAD0109959C01C901DF91CF914D
:102F800008950E94A5170895FC0144835583668324
:102F900077830895CF93DF93EC010E944A126887EC
:102FA00079878A879B87E881F9810680F781E02D00
:102FB000CE0109959C0197FF15C00E944A122885F1
:102FC00039854A855B85621B730B840B950B2C81BD
:102FD0003D814E815F81621773078407950718F35F
:102FE0002FEF3FEFC901DF91CF910895CF92DF928C
:102FF000EF92FF920F931F93CF93DF936C018B019E
:103000007A01C0E0D0E009C0C6010E94CA1797FD4E
:1030100007C0F80181938F012196CE15DF05A0F33B
:10302000CE01DF91CF911F910F91FF90EF90DF9034
:10303000CF900895813041F0813018F08230D1F482
:1030400009C010926E00089580916F008D7F80936B
:103050006F000895809170008D7F8093700081E0F3
:103060008093B0008091B100887F84608093B1002C
:103070001092B30008951F93182F80913401811787
:1030800011F09FEF06C0E2ECF0E094918FEF809397
:103090003401892F0E941A18812F60E00E94B71313
:1030A0001F9108951F920F920FB60F9211242F9324
:1030B0003F934F935F936F937F938F939F93AF93C0
:1030C000BF93EF93FF938091200490912104A091EE
:1030D0002204B09123040097A105B10551F1E091BC
:1030E0002404F0912504808190912604892780830F
:1030F0008091200490912104A0912204B091230496
:10310000181619061A061B06C4F480912004909123
:103110002104A0912204B09123040197A109B109CF
:103120008093200490932104A0932204B09323045D
:1031300004C0809134010E943B18FF91EF91BF9130
:10314000AF919F918F917F916F915F914F913F913F
:103150002F910F900FBE0F901F9018952F923F92B6
:103160005F926F927F928F929F92AF92BF92CF9217
:10317000DF92EF92FF920F931F93DF93CF9300D0D4
:1031800000D0CDB7DEB7A82F1B0129833A834B832C
:103190005C83809134018A1721F4E2ECF0E05490D2
:1031A00082C08F3F09F0DAC1A0933401E2ECF0E075
:1031B00054902FEF521609F4D1C181E0581639F11D
:1031C00092E0591609F449C0552009F06CC014BCAE
:1031D00015BC84B5826084BD85B5816085BD2A2F0C
:1031E00030E0F901EA57FF4FE491F0E0EE0FFF1FE6
:1031F000EE58FF4F85919491909317048093160495
:1032000026563F4FF9018491809318044EC01092C6
:1032100080001092810080918100886080938100FD
:10322000809181008160809381002A2F30E0F90134
:10323000EA57FF4FE491F0E0EE0FFF1FEE58FF4F0B
:103240008591949190931E0480931D0426563F4FC0
:10325000F901849180931F0428C01092B00010924D
:10326000B1008091B00082608093B0008091B10085
:1032700081608093B1002A2F30E0F901EA57FF4FB7
:10328000E491F0E0EE0FFF1FEE58FF4F859194910F
:10329000909325048093240426563F4FF90184918E
:1032A0008093260402C057FC59C18A2F61E00E9416
:1032B0007813552021F0F2E05F1609F0BEC031010D
:1032C0008824992460E079E08DE390E0A4019301E3
:1032D0000E948C1D59016A01860175010894E1085C
:1032E000F108010911092FEFE216F104010511059A
:1032F00009F008F499C060E271EA87E090E0A40167
:1033000093010E948C1D79018A010894E108F1085B
:103310000109110982E05816C1F49FEFE916F10482
:103320000105110509F008F484C068E478EE81E035
:1033300090E0A40193010E948C1D79018A010894F8
:10334000E108F1080109110983E0AFEFEA16F10481
:103350000105110509F008F468C064E274EF80E02B
:1033600090E0A40193010E948C1D79018A010894C8
:10337000E108F10801091109552011F483E01DC08D
:10338000B2E05B1611F084E018C0EFEFEE16F10426
:103390000105110509F008F4DFC062E17AE780E079
:1033A00090E0A40193010E948C1D79018A01089488
:1033B000E108F1080109110985E0FFEFEF16F104BA
:1033C0000105110591F188F169E07DE380E090E06D
:1033D000A40193010E948C1D79018A010894E108DF
:1033E000F10801091109552011F086E001C084E0BF
:1033F0002FEFE216F10401051105B9F0B0F0C60196
:10340000B50120E034E040E050E00E948C1D7901DD
:103410008A010894E108F10801091109552011F009
:1034200087E008C085E003C081E0552019F485BD20
:103430003AC082E08093B10036C05101CC24DD2433
:1034400060E079E08DE390E0A60195010E948C1D7B
:1034500079018A010894E108F1080109110980E065
:10346000E81680E0F80681E0080780E0180710F40D
:1034700091E010C064E274EF80E090E0A601950155
:103480000E948C1D79018A010894E108F108010964
:10349000110993E0A1E05A1631F480918100887FF0
:1034A000982B9093810089819A81AB81BC81009790
:1034B000A105B10529F48FEF9FEFAFEFBFEF13C068
:1034C000220C331CB10180E090E029813A814B81CC
:1034D0005C810E942C1D28EE33E040E050E00E9409
:1034E0006A1DC901DA01E1E05E16A1F0F2E05F16A3
:1034F00019F1552099F5E7BC8093120490931304B9
:10350000A0931404B093150480916E0082608093A0
:103510006E0024C0F0928900E09288008093190424
:1035200090931A04A0931B04B0931C0480916F0025
:10353000826080936F0012C0E092B30080932004F9
:1035400090932104A0932204B093230480917000EF
:1035500082608093700002C084E06CCF0F900F9067
:103560000F900F90CF91DF911F910F91FF90EF90EF
:10357000DF90CF90BF90AF909F908F907F906F9093
:103580005F903F902F9008952F923F924F925F92BD
:103590006F927F928F929F92AF92BF92CF92DF9263
:1035A000EF92FF920F931F93DF93CF93CDB7DEB7C8
:1035B0003B014C0119012A016D897E898F89988D03
:1035C0006A197B098C099D09621A730A840A950A93
:1035D000A40193010E942C1DE218F30804091509A7
:1035E000A80197010E948C1D2A0D3B1D4C1D5D1DDD
:1035F000B901CA01CF91DF911F910F91FF90EF9018
:10360000DF90CF90BF90AF909F908F907F906F9002
:103610005F904F903F902F900895009729F0BC0144
:1036200080E090E00E94E70008955058BB27AA2749
:103630000ED071C162D130F067D120F031F49F3FDC
:1036400011F41EF457C10EF4E095E7FB4DC1E92FCC
:1036500073D180F3BA17620773078407950718F0D0
:1036600071F49EF58BC10EF4E0950B2EBA2FA02DB0
:103670000B01B90190010C01CA01A0011124FF271F
:10368000591B99F0593F50F4503E68F11A16F0401A
:10369000A22F232F342F4427585FF3CF4695379519
:1036A0002795A795F0405395C9F77EF41F16BA0BDE
:1036B000620B730B840BBAF09150A1F0FF0FBB1F8C
:1036C000661F771F881FC2F70EC0BA0F621F731FD5
:1036D000841F48F4879577956795B795F7959E3F32
:1036E00008F0B3CF9395880F08F09927EE0F9795C0
:1036F000879508950CD00FC107D140F0FED030F06F
:1037000021F45F3F19F0F0C0511139C1F3C014D159
:1037100098F39923C9F35523B1F3951B550BBB2798
:10372000AA2762177307840738F09F5F5F4F220F45
:10373000331F441FAA1FA9F333D00E2E3AF0E0E83E
:1037400030D091505040E695001CCAF729D0FE2F8A
:1037500027D0660F771F881FBB1F2617370748071C
:10376000AB07B0E809F0BB0B802DBF01FF279358D2
:103770005F4F2AF09E3F510568F0B6C000C15F3F21
:10378000ECF3983EDCF3869577956795B795F795BA
:103790009F5FC9F7880F911D9695879597F90895B2
:1037A000E1E0660F771F881FBB1F6217730784074E
:1037B000BA0720F0621B730B840BBA0BEE1F88F75D
:1037C000E095089504D06894B111D9C00895BCD093
:1037D00088F09F5790F0B92F9927B751A0F0D1F0FA
:1037E000660F771F881F991F1AF0BA95C9F712C084
:1037F000B13081F0C3D0B1E00895C0C0672F782FF9
:103800008827B85F39F0B93FCCF3869577956795EF
:10381000B395D9F73EF490958095709561957F4F5B
:103820008F4F9F4F0895E89409C097FB3EF4909501
:103830008095709561957F4F8F4F9F4F9923A9F089
:10384000F92F96E9BB279395F69587957795679518
:10385000B795F111F8CFFAF4BB0F11F460FF1BC05C
:103860006F5F7F4F8F4F9F4F16C0882311F096E9EF
:1038700011C0772321F09EE8872F762F05C066239D
:1038800071F096E8862F70E060E02AF09A95660F56
:10389000771F881FDAF7880F9695879597F908950F
:1038A000990F0008550FAA0BE0E8FEEF1616170651
:1038B000E807F907C0F012161306E407F50798F0B9
:1038C000621B730B840B950B39F40A2661F0232BD2
:1038D000242B252B21F408950A2609F4A140A6954E
:1038E0008FEF811D811D089597F99F6780E870E033
:1038F00060E008959FEF80EC089500240A94161666
:10390000170618060906089500240A9412161306CD
:10391000140605060895092E0394000C11F488235B
:1039200052F0BB0F40F4BF2B11F460FF04C06F5F77
:103930007F4F8F4F9F4F089557FD9058440F551F4D
:1039400059F05F3F71F04795880F97FB991F61F021
:103950009F3F79F087950895121613061406551F98
:10396000F2CF4695F1DF08C0161617061806991F04
:10397000F1CF86957105610508940895E894BB27F9
:1039800066277727CB0197F908958ADF08F48FEF30
:1039900008950BD0C0CFB1DF28F0B6DF18F0952323
:1039A00009F0A2CFA7CF1124EACFC6DFA0F3959FDD
:1039B000D1F3950F50E0551F629FF001729FBB2716
:1039C000F00DB11D639FAA27F00DB11DAA1F649FC2
:1039D0006627B00DA11D661F829F2227B00DA11D75
:1039E000621F739FB00DA11D621F839FA00D611DFB
:1039F000221F749F3327A00D611D231F849F600D1C
:103A0000211D822F762F6A2F11249F5750408AF054
:103A1000E1F088234AF0EE0FFF1FBB1F661F771FE0
:103A2000881F91505040A9F79E3F510570F05CCF20
:103A3000A6CF5F3FECF3983EDCF3869577956795CC
:103A4000B795F795E7959F5FC1F7FE2B880F911DFE
:103A50009695879597F90895629FD001739FF0011D
:103A6000829FE00DF11D649FE00DF11D929FF00D0E
:103A7000839FF00D749FF00D659FF00D9927729F45
:103A8000B00DE11DF91F639FB00DE11DF91FBD01D0
:103A9000CF0111240895991B79E004C0991F96174E
:103AA00008F0961B881F7A95C9F78095089597FBB3
:103AB000092E07260AD077FD04D049D006D0002071
:103AC0001AF4709561957F4F0895F6F7909581955A
:103AD0009F4F0895A1E21A2EAA1BBB1BFD010DC02A
:103AE000AA1FBB1FEE1FFF1FA217B307E407F507AE
:103AF00020F0A21BB30BE40BF50B661F771F881F8A
:103B0000991F1A9469F760957095809590959B011F
:103B1000AC01BD01CF01089597FB092E05260ED0FB
:103B200057FD04D0D7DF0AD0001C38F450954095DB
:103B3000309521953F4F4F4F5F4F0895F6F7909581
:103B40008095709561957F4F8F4F9F4F0895AA1B69
:103B5000BB1B51E107C0AA1FBB1FA617B70710F078
:103B6000A61BB70B881F991F5A95A9F780959095AA
:103B7000BC01CD010895EE0FFF1F0590F491E02DDB
:103B800009942F923F924F925F926F927F928F9201
:103B90009F92AF92BF92CF92DF92EF92FF920F93DC
:103BA0001F93CF93DF93CDB7DEB7CA1BDB0B0FB6E6
:103BB000F894DEBF0FBECDBF09942A8839884888A3
:103BC0005F846E847D848C849B84AA84B984C88439
:103BD000DF80EE80FD800C811B81AA81B981CE0F30
:103BE000D11D0FB6F894DEBF0FBECDBFED01089515
:043BF000F894FFCF77
:103BF400424344300D0A00424754320D0A004253F6
:103C040054335374756475696E6F2D000D0A004248
:103C140052530D0A0001000000FFFFFFFFFFFFFFEA
:103C2400FFE80301FF0E0F101112132100230025DA
:103C340000270029002C002E003100340037003A00
:103C4400003E004100450049004E00520057005C10
:103C540000620068006E0075007B0082008B009398
:103C6400009C00A500AF00B900C400D000DC00E94E
:103C740000F70006011501260137014A015D0172B2
:103C84000188019F01B801D201EE010B022A024B07
:103C9400026E029302BA02E40210033F037003A40B
:103CA40003DC03170455049704DD0427057505C8D0
:103CB4000520067D06E0064907B8072D08A9082D4A
:103CC40009B9094D0AEA0A900B400CFA0CC00D918F
:103CD4000E6F0F5A1002040708090A0B0C000000AB
:103CE40000EA0CB90C720C7B0C900CA10C000000C7
:0E3CF40000D6167B176C169D167D16C61600A0
:00000001FF
