:100000000C9465000C948D000C948D000C948D0064
:100010000C948D000C948D000C948D000C94E812BF
:100020000C948D000C948D000C948D000C94800722
:100030000C948D000C948D000C948D000C948D000C
:100040000C94CC0D0C948D000C941D100C94641029
:100050000C948D000C948D000C948D000C948D00EC
:100060000C94DC090C948D00000000002400270093
:100070002A0000000000250028002B0000000000DE
:1000800023002600290004040404040404040202DA
:100090000202020203030303030301020408102007
:1000A0004080010204081020010204081020000012
:1000B0000007000201000003040600000000000029
:1000C00000000200F0007808271211241FBECFEFB5
:1000D000D4E0DEBFCDBF11E0A0E0B1E0E0E2F1E3AB
:1000E00002C005900D92A23CB107D9F713E0A2EC33
:1000F000B1E001C01D92AF3BB107E1F710E0CAECDF
:10010000D0E004C02297FE010E945318C43CD107DE
:10011000C9F70E9477120C948E180C940000A0E08E
:10012000B0E0E5E9F0E00C945F18EC01A880B9803C
:10013000CA80DB80A114B104C104D10441F484E27B
:10014000A82E89EDB82E8BE5C82E87E0D82EC601E3
:10015000B5012DE133EF41E050E00E94221827EA7B
:1001600031E440E050E00E94C2177B018C01C601DF
:10017000B5012DE133EF41E050E00E942218CA01A1
:10018000B9012CEE34EF4FEF5FEF0E94C2176E0DF6
:100190007F1D801F911F97FF04C0615070408040F9
:1001A0009048688379838A839B839B01AC015F7746
:1001B000B901CA01CDB7DEB7EAE00C947B180E9402
:1001C0008F00089580E091E00E948F000895609371
:1001D000000170930101809302019093030108953F
:1001E000CF93DF9382EC91E06DE10E948B0BCBEF1C
:1001F000D1E0CE010E94B005239682E0C331D8073A
:10020000C1F7DF91CF9108950F931F93062FE6E07A
:10021000F1E0E80FF11D1081812F61E00E94360F9F
:10022000E02FF0E0EE0FFF1FE45FFE4F6081718171
:10023000812F20E030E040E050E00E9444131F9105
:100240000F910895EF92FF920F931F93CF93DF9337
:100250008C017B018BE893E00E94821102977CF174
:100260008BE893E00E94B311EC01803891053CF1DA
:1002700034E0959587953A95E1F787709070F8018D
:10028000918380838BE893E00E948211892BD1F3C4
:100290008BE893E00E94B3118038910584F48F7746
:1002A0009070CF70D070D695DC2FCC27D795C7959E
:1002B0008C2B9D2BF7019183808381E001C080E02E
:1002C000DF91CF911F910F91FF90EF900895EF92E2
:1002D000FF920F931F938B016BE8E62E63E0F62EDF
:1002E000BC016F70707053E0660F771F5A95E1F78D
:1002F0006068C801880F892F881F990B8770682B49
:10030000C7010E94EE110F77C701602F0E94EE1106
:100310001F910F91FF90EF9008952F923F924F926F
:100320005F926F927F928F929F92AF92BF92CF9285
:10033000DF92EF92FF920F931F93DF93CF93CDB78E
:10034000DEB7E4970FB6F894DEBF0FBECDBF9AA715
:1003500089A71B014BA72CA7A9E04A2E512C4C0EB4
:100360005D1E772488249924842F90E09CAB8BAB6E
:1003700068C0E9A5FAA5E80DF91D8081A3E08A9F70
:10038000C001112485509E4F0E944406682EF10141
:10039000E80DF91D608170E0681B7109882777FD01
:1003A0008095982F0E94AB167B018C0120E030E0F5
:1003B00040E050E00E945B1718161CF457016801DA
:1003C00006C057016801D7FAD094D7F8D094672DAA
:1003D00070E0882777FD8095982F0E94AB169B01CF
:1003E000AC01C601B5010E945B1718168CF4C80158
:1003F000B70120E030E040E050E00E945B171816A3
:100400001CF4C801B7010AC0C801B701905806C062
:10041000672D70E080E090E00E94A9160E947D1692
:10042000762EE1E0F0E0EC0FFD1FE80DF91D608293
:10043000F201E192F192019311932F010894811C32
:10044000911C8BA99CA9881699060CF492CF8E0159
:10045000075F1F4F7801ABA58A2F90E0880F991F87
:10046000880F991FE80EF91EA72CBB24CC24DD248D
:1004700013C0C601B5010E94A9169B01AC01F80189
:1004800060817181828193810E941016D8016D93E1
:100490007D938D939D938D010E151F0551F7E1E01E
:1004A0008E2E912CE72DF0E0FEA7EDA79CA5892FBD
:1004B00090E0A0E0B0E08FA798ABA9ABBAAB4CC07E
:1004C000E9A5FAA5EA0DFB1D0081A3E00A9F8001C2
:1004D000112405501E4FE1E0F0E0EC0FFD1FEA0D86
:1004E000FB1D608170E0882777FD8095982F0E9422
:1004F000AB166B017C01C301B2010E94AB16F10186
:1005000021913191419151911F010E945F179B01EF
:10051000AC01C701B6010E94AC150E9478169B0180
:10052000AC01C801B9010E9499060894A11CB11C34
:100530008BA99CA9A816B9061CF280E890E060E897
:1005400070E00E9467016FA578A989A99AA90E9405
:10055000200E0894811C911CADA5BEA5A815B90557
:100560006CF079E0272E312C2C0E3D1EAA24BB24E2
:100570002401662457FC6094762CDACFE4960FB6FB
:10058000F894DEBF0FBECDBFCF91DF911F910F91C9
:10059000FF90EF90DF90CF90BF90AF909F908F90A3
:1005A0007F906F905F904F903F902F9008956131B2
:1005B000B1F1623138F46330F0F1663050F06031FF
:1005C000D1F515C06431D1F0643188F0653199F509
:1005D00026C0E82FF0E0DF01A052BE4F83E08C93ED
:1005E000E457FE4F808161E00E94360F0895E82FA6
:1005F000F0E0E052FE4F81E080830895E82FF0E0C4
:10060000E052FE4F82E0808380E892E00E94180969
:1006100082EC91E060E042E00E94490D0895E82FED
:10062000F0E0DF01A052BE4F1C92E457FE4F8081E4
:1006300062E00E94360F0895E82FF0E0CF01880FA6
:10064000991F8E0F9F1FEE56FE4F608185509E4F63
:1006500070E044EF51E024EC39E00E940107089576
:100660008823B1F487E092E00E94CA058AE092E014
:100670000E94CA0582E061E00E94360F84E061E0DA
:100680000E94360F82E060E00E94750F84E015C082
:100690008DE092E00E94CA0580E192E00E94CA05C6
:1006A00087E061E00E94360F88E061E00E94360F2B
:1006B00087E060E00E94750F88E060E00E94750F9F
:1006C00008950F931F93CF93DF938330910509F41F
:1006D000AAC0843091055CF48130910509F46DC0A5
:1006E000823091050CF088C0892B69F0EEC085300E
:1006F000910509F4A6C0853091050CF4BBC007979D
:1007000009F0E3C0DEC072FF07C087E090E0C8E0F8
:10071000D0E005E010E006C082E090E0C4E0D0E068
:1007200003E010E09B01220F232F221F330B319592
:1007300027703070AB014F7750702130310589F44C
:100740004115510511F461E019C04130510509F01E
:10075000BCC060E00E94750F8C2F61E00E94750F95
:10076000B4C02230310579F44115510511F461E02E
:10077000F1CF4130510509F0A8C060E00E94750F2B
:100780008C2F60E0EBCF2430310509F09EC0BA0118
:10079000882777FD8095982F0E94AB1623E333E3DB
:1007A00043E250E40E945F170E9478169B01AC015F
:1007B000802FB9010E94D60E88C0972F9770809124
:1007C000E801882379F08091E901E82FF0E0DF016A
:1007D000A551BE4F9C93ED50FE4F60838F5F809379
:1007E000E90173C083E0989FC001112485509E4F9A
:1007F00070E00E94990669C0E72FE770CB01880F6F
:10080000892F881F990B919580FF06C06F776053E1
:100810008E2F0E94040159C0F0E0EA5FFE4F8081F4
:100820000E94D11252C0E72FF0E0E770F070EA5753
:10083000FE4F660F672F661F770B71956170808181
:100840008DCF66FD0AC01092E90181E08093E80136
:10085000862F8F738093EA0138C01092E8018BEEE7
:1008600091E063EF71E04091E9012091EA010E947B
:100870008D012BC010921302CB0116E0969587953F
:100880001A95E1F7982F9F716F71663038F46330D5
:1008900098F4613041F06230C1F409C0862F805174
:1008A000863098F409C0892F0E9430030EC0892F2A
:1008B00082500E941C0309C0892F8A500E94D702CF
:1008C00004C08BE893E00E941C11DF91CF911F912F
:1008D0000F9108952F923F924F925F926F927F9265
:1008E0008F929F92AF92BF92CF92DF92EF92FF9240
:1008F0000F931F93DF93CF9300D000D0CDB7DEB717
:1009000080911302882309F0DBC080E890E060E862
:1009100070E00E946701992466247724A4E62A2EB9
:10092000312C412C512CF301E052FE4FE081E1309B
:1009300091F0E13030F0892C8394E23009F0B7C0B7
:100940003AC0F301E457FE4F80810E94C90FBC01F9
:10095000892D90E02CC0F301E656FE4F80810E9465
:10096000B40E00D000D0AA2797FDA095BA2FEDB7FE
:10097000FEB72182328243825482BC01CD0120E045
:1009800030E040E050E0FFEFEF2EF3E0FF2E012DCE
:10099000112DAA24BB2465010E945A159B01AC01AC
:1009A0000F900F900F900F90892D90E0B9010E9449
:1009B000670193947DC082EC91E00E94A20B82ECCF
:1009C00091E00E94960B00D000D0AA2797FDA09539
:1009D000BA2FEDB7FEB72182328243825482BC0126
:1009E000CD0120E83FEF4FEF5FEFEFE7EE2EF12C68
:1009F000012D112DAA24BB2465010E945A159B01CB
:100A0000AC010F900F900F900F90892D90E0B901DD
:100A10000E94670182EC91E00E949A0B00D000D006
:100A2000AA2797FDA095BA2FEDB7FEB72182328293
:100A300043825482BC01CD0120E83FEF4FEF5FEFCE
:100A40000E945A159B01AC010F900F900F900F90D0
:100A5000882D90E0B9010E946701982C939482EC54
:100A600091E00E949E0B00D000D0AA2797FDA09590
:100A7000BA2FEDB7FEB72182328243825482BC0185
:100A8000CD0120E83FEF4FEF5FEF0E945A159B0129
:100A9000AC010F900F900F900F90892D90E0B9014D
:100AA0000E94670193940894611C711C01C0982CEA
:100AB0000894611C711CF8E06F1671040CF433CFBC
:100AC000CE010196BE016D5F7F4F0E9422018823F7
:100AD00039F06B817C8189819A810E94610306C013
:100AE00064E670E080E090E00E94200E0F900F908E
:100AF0000F900F90CF91DF911F910F91FF90EF908A
:100B0000DF90CF90BF90AF909F908F907F906F902D
:100B10005F904F903F902F9008958BE893E040E0D6
:100B200056E960E070E00E949F108BE893E00E941D
:100B3000DC1180E00E94B40E0E94A315E0EEF1E00B
:100B400084E0819391E0E83EF907D9F781E0809352
:100B5000130280E890E060E870E00E946701089569
:100B6000FC01809114028C3090F480838F5F80931D
:100B70001402815090E0FC01EE0FFF1FE80FF91FF7
:100B8000EB5EFD4F8CED95E09283818308958FEFAE
:100B900080830895DC018C9190E0FC01EE0FFF1F33
:100BA000E80FF91FEB5EFD4F80818F7B80838C9176
:100BB0006CE00E94E11790E0AC01440F551F480F14
:100BC000591F440F551F440F551F20E030E0C90145
:100BD000840F951FFC01EE0FFF1FE80FF91FEB5E5E
:100BE000FD4F808186FD05C02F5F3F4F2C303105C2
:100BF00071F70895FC0130813C3078F581819927A7
:100C000087FD909548E850E0481B590B440F551F4D
:100C1000440F551F6417750784F08281992787FD5B
:100C2000909548E552E0481B590B440F551F440F5F
:100C3000551F641775070CF4AB012FB7F894832F79
:100C400090E0FC01EE0FFF1FE80FF91FEB5EFD4F78
:100C500042505040528341832FBF0895FC01808150
:100C60008F3F19F420E030E00DC090E0FC01EE0F62
:100C7000FF1FE80FF91FEB5EFD4F218132813F71AD
:100C80002E5F3F4FC9010895AF92BF92CF92DF927E
:100C9000EF92FF920F931F938C010E942E0600D0BB
:100CA00000D00196AA2797FDA095BA2FF80161817F
:100CB000772767FD709528E830E0261B370B220F59
:100CC000331F220F331F442737FD4095542F628175
:100CD000772767FD7095E8E5EE2EE2E0FE2EE61A36
:100CE000F70AEE0CFF1CEE0CFF1C0027F7FC00952A
:100CF000102F64EBA62EB12CC12CD12CEDB7FEB772
:100D0000A182B282C382D482BC01CD01AA24BB24B9
:100D100065010E945A150F900F900F900F90CB0114
:100D20001F910F91FF90EF90DF90CF90BF90AF9009
:100D30000895AF92BF92CF92DF92EF92FF920F93FE
:100D40001F93CF93DF93EC019B0182E06032780721
:100D50000CF048C077FF03C020E030E005C0653BE1
:100D6000710514F024EB30E000D000D0B9018827E1
:100D700077FD8095982F2981332727FD3095E8E866
:100D8000AE2EB12CA21AB30AAA0CBB1CAA0CBB1C17
:100D9000CC24B7FCC094DC2CEA81FF27E7FDF0955A
:100DA00028E532E02E1B3F0B220F331F220F331F8B
:100DB000442737FD4095542FEDB7FEB7218332838A
:100DC0004383548320E030E040E050E004EBE02E29
:100DD000F12C012D112D0E945A159B010F900F909F
:100DE0000F900F90CE01B9010E94FA05DF91CF91CB
:100DF0001F910F91FF90EF90DF90CF90BF90AF9039
:100E00000895CF92DF92EF92FF921F93CF93DF93DB
:100E1000EC01162F7A01690188818C3008F064C0DA
:100E2000862F61E00E94360F888190E0FC01EE0F72
:100E3000FF1FE80FF91FEB5EFD4F1F738081807C61
:100E4000812B808380E292E08E199F0964E070E03C
:100E50000E94ED17698380E699E08C199D0964E092
:100E600070E00E94ED176A83A8818A2F6CE00E94CF
:100E7000E117682F70E0AB01440F551F460F571F55
:100E8000440F551F440F551F20E030E0C901840F67
:100E9000951FFC01EE0FFF1FE80FF91FEB5EFD4FE2
:100EA000808186FD15C02F5F3F4F2C30310571F7D3
:100EB00024C01092800082E080938100109285000F
:100EC00010928400B19A80916F00826080936F00CD
:100ED0008A2F90E0FC01EE0FFF1FE80FF91FEB5E79
:100EE000FD4F8081806480838881DF91CF911F9145
:100EF000FF90EF90DF90CF900895672BD1F2E8CF6D
:100F00001F920F920FB60F9211242F933F934F937E
:100F10005F936F937F938F939F93AF93BF93EF9361
:100F2000FF938091390287FF05C0109285001092CF
:100F300084002BC020913902332727FD3095809102
:100F4000140290E02817390704F580913902992797
:100F500087FD9095FC01EE0FFF1FE80FF91FEB5E78
:100F6000FD4F808186FF11C080913902992787FD4E
:100F70009095FC01EE0FFF1FE80FF91FEB5EFD4F90
:100F800080818F7360E00E94750F809139028F5FBE
:100F90008093390220913902332727FD30958091C3
:100FA000140290E0281739070CF04EC080913902E6
:100FB0008C300CF049C020918400309185008091E4
:100FC0003902992787FD9095FC01EE0FFF1FE80F6E
:100FD000F91FEB5EFD4F81819281280F391F3093FD
:100FE00089002093880080913902992787FD909588
:100FF000FC01EE0FFF1FE80FF91FEB5EFD4F808134
:1010000086FF2BC080913902992787FD9095FC01BE
:10101000EE0FFF1FE80FF91FEB5EFD4F80818F730E
:1010200061E00E94750F19C080E29EE405C08091C6
:1010300084009091850004969093890080938800A5
:101040008FEF8093390209C08091840090918500D0
:10105000049680529E4440F3EACFFF91EF91BF91F6
:10106000AF919F918F917F916F915F914F913F9140
:101070002F910F900FBE0F901F90189581E08093D5
:101080007F0260935C0210927D0210927E020895AE
:1010900020915B0230E080915A02281B3109C9017E
:1010A000089540915A0280915B02481718F02FEF83
:1010B0003FEF0AC0E42FF0E0E65CFD4F8081282F6F
:1010C00030E04F5F40935A02C9010895E0915A02FF
:1010D00080915B02E81718F0EFEFFFEF06C0F0E039
:1010E000E65CFD4F8081E82FF0E0CF010895089580
:1010F000109283021092820288EE93E0A0E0B0E0AA
:101100008093840290938502A0938602B093870215
:1011100086EA91E090938102809380020895CF92B5
:10112000DF92EF92FF920F931F93CF93DF937C0197
:101130006B018A0180917F028823A1F0C0E0D0E09A
:101140000DC0D701ED91FC91D601AC0FBD1F0190F0
:10115000F081E02DC7016C9109952196C017D10748
:1011600080F304C0CB01642F0E94C109C801DF9144
:10117000CF911F910F91FF90EF90DF90CF90089546
:10118000DF93CF930F92CDB7DEB7FC0169838091D7
:101190007F028823C9F080917E02803238F081E09E
:1011A00090E09383828320E030E015C080917D023F
:1011B000E82FF0E0E35AFD4F998190838F5F809391
:1011C0007D0280937E0205C0CE01019661E00E94FF
:1011D000C10921E030E0C9010F90CF91DF9108955E
:1011E0000F93062F80915C026DE572E040917E02C4
:1011F00021E00E946C0910927D0210927E021092F2
:101200007F020F91089561E00E94F0080895413235
:1012100008F040E2862F6AE372E00E9423091092F0
:101220005A0280935B02089521E00E940709089505
:1012300010925A0210925B0210927D0210927E026E
:101240000E946D0B0895382F413210F040E042C0EB
:1012500080918C028823E1F791E090938C02209397
:101260008E028FEF8093F9021092B40241504093A6
:10127000B5024F5F90938D0280918D02330F832BC7
:1012800080938D0280918F02813041F410928F0201
:1012900080918D028093BB0085EC01C085EE809328
:1012A000BC0080918C028130E1F38091B4028417FC
:1012B00010F44091B40220E030E00AC0FB01E20FDC
:1012C000F31FD901AC56BD4F8C9180832F5F3F4FE8
:1012D0002417A0F3842F08950F931F93582F122FD4
:1012E000413210F081E04AC080918C028823E1F7FE
:1012F00082E080938C0200938E028FEF8093F9023C
:101300001092B4024093B502A4E9B2E0FB0102C01E
:1013100081918D938E2F861B8417D0F310928D02AE
:1013200080918D02550F852B80938D0280918F02C5
:10133000813041F410928F0280918D028093BB0026
:1013400085EC01C085EE8093BC00112321F08091D3
:101350008C028230E1F38091F9028F3F11F480E03A
:101360000DC08091F902803211F482E007C08091B3
:10137000F902803311F084E001C083E01F910F91E6
:101380000895482F613210F081E0089580918C0219
:10139000843011F082E008956093D702A6EBB2E0AA
:1013A000842F9C01F90102C081918D938E2F841BA3
:1013B0008617D0F380E008951F920F920FB60F9218
:1013C00011242F933F934F935F936F937F938F934A
:1013D0009F93AF93BF93EF93FF938091B90090E0F9
:1013E000887F90708036910509F4F2C081369105AE
:1013F000CCF58832910509F47BC089329105B4F4AB
:101400008031910509F46FC0813191053CF400975A
:1014100009F447C1089709F04FC165C088319105AB
:1014200009F466C0809709F047C182C080349105F5
:1014300009F4A4C08134910544F48033910509F482
:1014400082C0C89709F038C189C08035910509F478
:1014500089C08835910509F496C08834910509F052
:101460002BC1AEC08839910509F413C189399105A2
:10147000ECF48837910509F4ABC0893791054CF439
:101480008836910509F4A4C08037910509F014C18C
:101490009FC08838910509F4FCC08039910509F492
:1014A0009DC08038910509F007C198C0803B910527
:1014B00009F4C6C0813B91054CF4803A910509F4CA
:1014C0009FC0883A910509F0F7C0BAC0803C9105E9
:1014D00009F4E3C0883C910509F4DFC0883B91051D
:1014E00009F0EAC0C2C080918D028093BB00CFC0DA
:1014F0009091B4028091B502981768F49091B4026B
:10150000E92FF0E0EC56FD4F80818093BB009F5F98
:101510009093B402BCC080918E02882309F44BC022
:1015200085ED8093BC008091BC0084FDFCCFC2C0DF
:1015300080E28093F90285ED8093BC008091BC002D
:1015400084FDFCCFB7C080E38093F90285ED8093E2
:10155000BC008091BC0084FDFCCFACC088E38093CC
:10156000F9029BC08091B4029091BB00E82FF0E09B
:10157000EC56FD4F90838F5F8093B4029091B4023C
:101580008091B50282C08091B4029091BB00E82F97
:10159000F0E0EC56FD4F90838F5F8093B402809112
:1015A0008E02882341F085ED8093BC008091BC00C1
:1015B00084FDFCCF7FC081E080938F0284EA6EC0FF
:1015C00085ED8093BC008091BC0084FDFCCF72C08F
:1015D00083E080938C021092F80259C08091F80247
:1015E000803208F056C08091F8029091BB00E82F3D
:1015F000F0E0E852FD4F90838F5F8093F80247C080
:101600008091F802803230F4E091F802F0E0E85284
:10161000FD4F108285ED8093BC008091BC0084FD5D
:10162000FCCF10928C026091F802E0919202F0914E
:10163000930288ED92E070E009951092F8022DC0B7
:1016400084E080938C021092D6021092D702E0912F
:101650009002F091910209958091D702882329F494
:1016600081E08093D7021092B6029091D602E92FC2
:10167000F0E0EA54FD4F80818093BB009F5F909320
:10168000D6029091D6028091D702981710F485EC7B
:1016900001C085E88093BC000FC085EC8093BC003E
:1016A00009C01092F90285ED8093BC008091BC00C6
:1016B00084FDFCCF10928C02FF91EF91BF91AF910E
:1016C0009F918F917F916F915F914F913F912F915A
:1016D0000F900FBE0F901F90189510928C0281E012
:1016E00080938E0210928F0282E161E00E94750F5A
:1016F00083E161E00E94750FE9EBF0E080818E7F6D
:10170000808380818D7F808380E28093B80085E430
:101710008093BC000895FC01608380EE9EE2A5E604
:10172000B2E4828F938FA48FB58F0895FC018381DB
:1017300094810895FC01858196810895FC0187813B
:1017400090850895EF92FF920F931F93CF93DF93AD
:10175000EC0180E892E068810E943E0880E892E017
:1017600060E00E94C00880E892E060E00E94F0081B
:1017700068818D85882311F444E001C047E080E84A
:1017800092E00E94140980E892E00E944808892BA8
:1017900009F4C5C080E892E00E94510889838D85D4
:1017A000882309F461C080E892E00E945108182F54
:1017B00080E892E00E945108312F20E0280F391F65
:1017C0003C832B83C90160E470E00E94ED178827F9
:1017D00077FD8095982F0E94AB1629853A854B8519
:1017E0005C850E945F176E877F87888B998B80E866
:1017F00092E00E945108182F80E892E00E94510860
:10180000312F20E0280F391F3E832D83C90160E46A
:1018100070E00E94ED17882777FD8095982F0E9431
:10182000AB1629853A854B855C850E945F176A8BCC
:101830007B8B8C8B9D8B80E892E00E945108182F47
:1018400080E892E00E945108312F20E0280F391FD4
:1018500038872F83C90160E470E00E94ED17882764
:1018600077FD8095982F4FC080E892E00E94510844
:10187000982F80E060E071E00E94ED177C836B831D
:1018800080E892E00E945108982F80E060E071E0CB
:101890000E94ED177E836D8380E892E00E945108DC
:1018A000982F80E060E071E00E94ED177B0178875F
:1018B0006F836B817C81882777FD8095982F0E94AC
:1018C000AB1629853A854B855C850E945F176E872C
:1018D0007F87888B998B6D817E81882777FD8095A6
:1018E000982F0E94AB1629853A854B855C850E940E
:1018F0005F176A8B7B8B8C8B9D8B0027F7FC009589
:10190000102FC801B7010E94AB1629853A854B8577
:101910005C850E945F176E8B7F8B888F998FDF911C
:10192000CF911F910F91FF90EF900895FF920F9329
:101930001F938C01F62E80E892E0F80160810E94EE
:101940003E0880E892E06F2D0E94C00880E892E097
:1019500060E00E94F00880E892E0F801608141E0D8
:101960000E94140980E892E00E944808892B11F433
:1019700080E004C080E892E00E9451081F910F911E
:10198000FF9008951F93CF93DF93EC0180E892E0DE
:1019900068810E943E0880E892E06AE20E94C008E6
:1019A00080E892E00E94030980E892E0688141E0CB
:1019B0000E94140980E892E00E944808892B11F4E3
:1019C00010E005C080E892E00E945108182F80E8DE
:1019D00092E068810E943E0880E892E06AE20E94FC
:1019E000C0088D85882319F482E090E002C080E071
:1019F00090E01160612F70E06861682B792B80E8BE
:101A000092E00E94C00880E892E00E940309DF9102
:101A1000CF911F9108951F93CF93DF93EC0180E83E
:101A200092E068810E943E0880E892E06AE20E94AB
:101A3000C00880E892E00E94030980E892E0688193
:101A400041E00E94140980E892E00E944808892B36
:101A500011F410E005C080E892E00E945108182FB0
:101A600080E892E068810E943E0880E892E06AE2A5
:101A70000E94C008612F70E06E7F80E892E00E94B3
:101A8000C00880E892E00E940309DF91CF911F9186
:101A90000895CF93DF93EC016D874A83662329F481
:101AA00024E237E94FE75CE304C024E237E94FE77B
:101AB0005BE329873A874B875C878A81843029F4E6
:101AC000CA01B9010E94AC150AC0883061F4CA018C
:101AD000B90120E030E040E850E40E945F176987D8
:101AE0007A878B879C87CE016DE00E94960C80E8F8
:101AF00092E068810E943E0880E892E06BE20E94DA
:101B0000C00880E892E060E40E94C00880E892E0AB
:101B10000E9403096AE070E080E090E00E94200EDD
:101B2000CE010E940B0D80E892E068810E943E0881
:101B300080E892E061E10E94C00880E892E060ECF9
:101B40000E94C00880E892E00E94030980E892E0C9
:101B500068810E943E0880E892E06EE00E94C00822
:101B60008A81843019F461E070E004C0883029F47F
:101B700062E070E080E892E003C080E892E060E01C
:101B80000E94C00880E892E00E940309CE010E94F2
:101B9000C20CDF91CF9108951F920F920FB60F9252
:101BA00011242F933F934F935F936F937F938F9362
:101BB0009F93AF93BF932091FE023091FF0240911B
:101BC00000035091010370910203DA01C9010296EA
:101BD000A11DB11D672F6A5F6D3730F06D57DA01B7
:101BE000C9010396A11DB11D609302038093FE02FB
:101BF0009093FF02A0930003B09301038091FA0237
:101C00009091FB02A091FC02B091FD020196A11DF2
:101C1000B11D8093FA029093FB02A093FC02B09353
:101C2000FD02BF91AF919F918F917F916F915F91D5
:101C30004F913F912F910F900FBE0F901F901895CD
:101C40009B01AC017FB7F8948091FA029091FB025E
:101C5000A091FC02B091FD0266B5A89B05C06F3F44
:101C600019F00196A11DB11D7FBFBA2FA92F982F82
:101C70008827860F911DA11DB11D63E0880F991F54
:101C8000AA1FBB1F6A95D1F7BC012DC0FFB7F894FE
:101C90008091FA029091FB02A091FC02B091FD02AA
:101CA000E6B5A89B05C0EF3F19F00196A11DB11D37
:101CB000FFBFBA2FA92F982F88278E0F911DA11D26
:101CC000B11DE3E0880F991FAA1FBB1FEA95D1F74A
:101CD000861B970B885E9340C8F2215030404040ED
:101CE000504068517C4F211531054105510571F671
:101CF0000895789484B5826084BD84B5816084BD84
:101D000085B5826085BD85B5816085BDEEE6F0E074
:101D1000808181608083E1E8F0E0108280818260D0
:101D20008083808181608083E0E8F0E08081816051
:101D30008083E1EBF0E0808184608083E0EBF0E081
:101D4000808181608083EAE7F0E080818460808325
:101D500080818260808380818160808380818068CF
:101D600080831092C1000895982F8E3008F09E5005
:101D70009770809104018295880F880F807C892B51
:101D800080937C0080917A00806480937A008091B7
:101D90007A0086FDFCCF2091780040917900942F45
:101DA00080E030E0282B392BC90108951F93CF9391
:101DB000DF93182FEB0161E00E94360F209709F4A2
:101DC0004AC0CF3FD10509F449C0E12FF0E0E25508
:101DD000FF4F84918330C1F0843028F4813051F07A
:101DE0008230B1F50CC0863019F1873049F184306A
:101DF00079F514C084B5806884BDC7BD33C084B58F
:101E0000806284BDC8BD2EC08091800080688093B0
:101E10008000D0938900C093880024C08091800006
:101E2000806280938000D0938B00C0938A001AC098
:101E30008091B00080688093B000C093B30012C05E
:101E40008091B00080628093B000C093B4000AC05B
:101E5000C038D1051CF4812F60E002C0812F61E001
:101E60000E94750FDF91CF911F910895CF93DF935B
:101E7000482F50E0CA0186569F4FFC0134914A57C3
:101E80005F4FFA018491882369F190E0880F991FD0
:101E9000FC01E859FF4FA591B491FC01EE58FF4FAA
:101EA000C591D491662351F42FB7F8948C91932F58
:101EB000909589238C93888189230BC0623061F4CB
:101EC0002FB7F8948C91932F909589238C938881C8
:101ED000832B88832FBF06C09FB7F8948C91832BE8
:101EE0008C939FBFDF91CF910895482F50E0CA0196
:101EF00082559F4FFC012491CA0186569F4FFC01D9
:101F000094914A575F4FFA013491332309F440C04A
:101F1000222351F1233071F0243028F42130A1F034
:101F2000223011F514C02630B1F02730C1F0243032
:101F3000D9F404C0809180008F7703C08091800025
:101F40008F7D8093800010C084B58F7702C084B5E8
:101F50008F7D84BD09C08091B0008F7703C08091D0
:101F6000B0008F7D8093B000E32FF0E0EE0FFF1FF5
:101F7000EE58FF4FA591B4912FB7F894662321F442
:101F80008C919095892302C08C91892B8C932FBFC3
:101F90000895682F70E0CB0182559F4FFC0124917A
:101FA000CB0186569F4FFC0144916A577F4FFB013E
:101FB0009491992319F420E030E03CC0222351F1A0
:101FC000233071F0243028F42130A1F0223011F5B3
:101FD00014C02630B1F02730C1F02430D9F404C049
:101FE000809180008F7703C0809180008F7D8093E7
:101FF000800010C084B58F7702C084B58F7D84BD0A
:1020000009C08091B0008F7703C08091B0008F7DB0
:102010008093B000892F90E0880F991F84589F4FBC
:10202000FC01A591B4918C9120E030E0842311F063
:1020300021E030E0C901089508951F920F920FB674
:102040000F9211242F933F934F938F939F93EF936E
:10205000FF934091C60020914303309144032F5FCA
:102060003F4F2F733070809145039091460328179E
:10207000390759F0E0914303F0914403ED5FFC4FC1
:1020800040833093440320934303FF91EF919F914A
:102090008F914F913F912F910F900FBE0F901F90F6
:1020A0001895E0919703F0919803E05CFF4F8191C0
:1020B000919120813181821B930B8F739070892BBA
:1020C00011F00E941C1008951F920F920FB60F92EC
:1020D00011242F933F938F939F93EF93FF9320911E
:1020E0008703309188038091890390918A03281790
:1020F000390731F48091C1008F7D8093C10014C0F5
:10210000E0918903F0918A03E95BFC4F2081809183
:10211000890390918A0301968F73907090938A033C
:10212000809389032093C600FF91EF919F918F9137
:102130003F912F910F900FBE0F901F901895AF9267
:10214000BF92DF92EF92FF920F931F93CF93DF9393
:10215000EC017A018B01DD24D39491E0A92EB12CFE
:10216000EC89FD89DD2069F0C5010E8C02C0880F65
:10217000991F0A94E2F7808360E874E88EE190E0AA
:1021800005C0108260E472E48FE090E0A80197013E
:102190000E940018215030404040504056954795CD
:1021A0003795279580E12030380720F0DD2011F0A9
:1021B000DD24D6CFE889F9893083EA89FB89208339
:1021C000EE89FF89408121E030E0C9010A8C02C01C
:1021D000880F991F0A94E2F7482B4083EE89FF8904
:1021E0004081C9010B8C02C0880F991F0A94E2F745
:1021F000482B4083EE89FF894081C9010C8C02C0C5
:10220000880F991F0A94E2F7482B4083EE89FF89D3
:1022100080810D8C02C0220F331F0A94E2F72095B3
:1022200028232083DF91CF911F910F91FF90EF9092
:10223000DF90BF90AF900895CF93DF93DC011E969F
:102240008D919C911F97EC01C05CDF4FFC01EE5B10
:10225000FF4F288139818081918128173907C9F77B
:102260005696ED91FC915797408121E030E0C901ED
:102270005A960C905A9702C0880F991F0A94E2F759
:102280008095842380835696ED91FC9157974081E9
:10229000C9015B960C905B9702C0880F991F0A9446
:1022A000E2F78095842380835696ED91FC915797B1
:1022B0004081C9015C960C905C9702C0880F991F01
:1022C0000A94E2F78095842380835696ED91FC91E1
:1022D000579780815D960C905D9702C0220F331F47
:1022E0000A94E2F72095282320831C96ED91FC9117
:1022F0001D97EE5BFF4F8081918192938293DF91D6
:10230000CF910895DC011C96ED91FC911D97E05C46
:10231000FF4F2191319180819181281B390B2F73BF
:102320003070C9010895DC011C96ED91FC911D9758
:10233000E05CFF4F20813181E054F040DF01AE5B73
:10234000BF4F8D919C9111972817390719F42FEFE2
:102350003FEF07C08D919C91E80FF91F8081282FD6
:1023600030E0C9010895DC011C96ED91FC911D97A8
:10237000E05CFF4F20813181E054F040DF01AE5B33
:10238000BF4F8D919C9111972817390719F42FEFA2
:102390003FEF10C08D919C911197E80FF91F20819C
:1023A0008D919C91119701968F73907011969C93CB
:1023B0008E9330E0C9010895FC0186859785DC0184
:1023C000A05CBF4FFC01EE5BFF4F2D913C9111973C
:1023D0008081918128173907C1F70895CF93DF9342
:1023E000EC01EE85FF85E05CFF4F20813181E054F8
:1023F000F0402F5F3F4F2F733070DF01AE5BBF4F58
:102400008D919C91119728173907D1F3E05CFF4F0C
:1024100080819181E054F040E80FF91F6083EE85E0
:10242000FF85E05CFF4F31832083EE89FF892081A7
:1024300081E090E00D8C02C0880F991F0A94E2F7AA
:10244000282B208381E090E0DF91CF9108951092B6
:102450008E0310928D0388EE93E0A0E0B0E08093AD
:102460008F0390939003A0939103B093920386EB14
:1024700091E090938C0380938B0383E093E090939F
:1024800098038093970387E493E090939A03809353
:10249000990385EC90E090939C0380939B0384ECDC
:1024A00090E090939E0380939D0380EC90E0909346
:1024B000A00380939F0381EC90E09093A20380930C
:1024C000A10386EC90E09093A4038093A30384E09F
:1024D0008093A50383E08093A60387E08093A703FE
:1024E00085E08093A80381E08093A9030895CF93AA
:1024F000DF930E94790E0E948D05C1E5D0E10E9414
:102500006A042097E1F30E945110F9CFCF92DF9235
:10251000EF92FF920F931F93CF93DF937C016B0198
:102520008A01C0E0D0E00FC0D6016D916D01D701E6
:10253000ED91FC910190F081E02DC7010995C80F44
:10254000D91F015010400115110571F7CE01DF911F
:10255000CF911F910F91FF90EF90DF90CF90089552
:10256000813041F0813018F08230D1F409C01092EE
:102570006E00089580916F008D7F80936F000895A5
:10258000809170008D7F8093700081E08093B00017
:102590008091B100887F84608093B1001092B30075
:1025A00008951F93182F80910501811711F09FEF57
:1025B00006C0E2ECF0E094918FEF80930501892F43
:1025C0000E94B012812F60E00E94750F1F91089544
:1025D0001F920F920FB60F9211242F933F934F9398
:1025E0005F936F937F938F939F93AF93BF93EF937B
:1025F000FF938091B8039091B903A091BA03B09171
:10260000BB030097A105B10551F1E091BC03F09126
:10261000BD0380819091BE03892780838091B80398
:102620009091B903A091BA03B091BB031816190693
:102630001A061B06C4F48091B8039091B903A091C7
:10264000BA03B091BB030197A109B1098093B80304
:102650009093B903A093BA03B093BB0304C08091D5
:1026600005010E94D112FF91EF91BF91AF919F910F
:102670008F917F916F915F914F913F912F910F902B
:102680000FBE0F901F9018952F923F925F926F92FE
:102690007F928F929F92AF92BF92CF92DF92EF92F2
:1026A000FF920F931F93DF93CF9300D000D0CDB74D
:1026B000DEB7A82F1B0129833A834B835C8380916B
:1026C00005018A1721F4E2ECF0E0549082C08F3FBC
:1026D00009F0DAC1A0930501E2ECF0E054902FEF8D
:1026E000521609F4D1C181E0581639F192E0591619
:1026F00009F449C0552009F06CC014BC15BC84B560
:10270000826084BD85B5816085BD2A2F30E0F901E6
:10271000EA57FF4FE491F0E0EE0FFF1FEE58FF4F36
:10272000859194919093AF038093AE0326563F4FCB
:10273000F90184918093B0034EC0109280001092F2
:102740008100809181008860809381008091810068
:102750008160809381002A2F30E0F901EA57FF4F12
:10276000E491F0E0EE0FFF1FEE58FF4F859194913A
:102770009093B6038093B50326563F4FF901849199
:102780008093B70328C01092B0001092B1008091DE
:10279000B00082608093B0008091B100816080932E
:1027A000B1002A2F30E0F901EA57FF4FE491F0E041
:1027B000EE0FFF1FEE58FF4F859194919093BD034C
:1027C0008093BC0326563F4FF90184918093BE034A
:1027D00002C057FC59C18A2F61E00E94360F552074
:1027E00021F0F2E05F1609F0BEC03101882499247F
:1027F00060E079E08DE390E0A40193010E9422184B
:1028000059016A01860175010894E108F10801097E
:1028100011092FEFE216F1040105110509F008F482
:1028200099C060E271EA87E090E0A40193010E9400
:10283000221879018A010894E108F10801091109B7
:1028400082E05816C1F49FEFE916F1040105110565
:1028500009F008F484C068E478EE81E090E0A40117
:1028600093010E94221879018A010894E108F10875
:102870000109110983E0AFEFEA16F1040105110522
:1028800009F008F468C064E274EF80E090E0A4010D
:1028900093010E94221879018A010894E108F10845
:1028A00001091109552011F483E01DC0B2E05B1647
:1028B00011F084E018C0EFEFEE16F10401051105E8
:1028C00009F008F4DFC062E17AE780E090E0A4015B
:1028D00093010E94221879018A010894E108F10805
:1028E0000109110985E0FFEFEF16F104010511055B
:1028F00091F188F169E07DE380E090E0A40193012B
:102900000E94221879018A010894E108F10801095E
:102910001109552011F086E001C084E02FEFE21686
:10292000F10401051105B9F0B0F0C601B50120E0D0
:1029300034E040E050E00E94221879018A010894B6
:10294000E108F10801091109552011F087E008C0DC
:1029500085E003C081E0552019F485BD3AC082E0CE
:102960008093B10036C05101CC24DD2460E079E0D1
:102970008DE390E0A60195010E94221879018A0159
:102980000894E108F1080109110980E0E81680E0E7
:10299000F80681E0080780E0180710F491E010C005
:1029A00064E274EF80E090E0A60195010E94221895
:1029B00079018A010894E108F1080109110993E0FD
:1029C000A1E05A1631F480918100887F982B909372
:1029D000810089819A81AB81BC810097A105B105F5
:1029E00029F48FEF9FEFAFEFBFEF13C0220C331C22
:1029F000B10180E090E029813A814B815C810E94A5
:102A0000C21728EE33E040E050E00E940018C901F0
:102A1000DA01E1E05E16A1F0F2E05F1619F155204F
:102A200099F5E7BC8093AA039093AB03A093AC0302
:102A3000B093AD0380916E00826080936E0024C0DD
:102A4000F0928900E09288008093B1039093B203E2
:102A5000A093B303B093B40380916F00826080931E
:102A60006F0012C0E092B3008093B8039093B90353
:102A7000A093BA03B093BB038091700082608093EF
:102A8000700002C084E06CCF0F900F900F900F90F9
:102A9000CF91DF911F910F91FF90EF90DF90CF903A
:102AA000BF90AF909F908F907F906F905F903F907E
:102AB0002F9008952F923F924F925F926F927F9244
:102AC0008F929F92AF92BF92CF92DF92EF92FF923E
:102AD0000F931F93DF93CF93CDB7DEB73B014C012C
:102AE00019012A016D897E898F89988D6A197B0960
:102AF0008C099D09621A730A840A950AA40193013C
:102B00000E94C217E218F30804091509A8019701E9
:102B10000E9422182A0D3B1D4C1D5D1DB901CA01E2
:102B2000CF91DF911F910F91FF90EF90DF90CF90A9
:102B3000BF90AF909F908F907F906F905F904F90DD
:102B40003F902F900895009729F0BC0180E090E01D
:102B50000E94E70008955058BB27AA270ED071C1E4
:102B600062D130F067D120F031F49F3F11F41EF4B0
:102B700057C10EF4E095E7FB4DC1E92F73D180F307
:102B8000BA17620773078407950718F071F49EF56A
:102B90008BC10EF4E0950B2EBA2FA02D0B01B901BD
:102BA00090010C01CA01A0011124FF27591B99F0C3
:102BB000593F50F4503E68F11A16F040A22F232FCF
:102BC000342F4427585FF3CF469537952795A7951F
:102BD000F0405395C9F77EF41F16BA0B620B730BC6
:102BE000840BBAF09150A1F0FF0FBB1F661F771F37
:102BF000881FC2F70EC0BA0F621F731F841F48F4EC
:102C0000879577956795B795F7959E3F08F0B3CF71
:102C10009395880F08F09927EE0F9795879508955B
:102C20000CD00FC107D140F0FED030F021F45F3F4F
:102C300019F0F0C0511139C1F3C014D198F39923A0
:102C4000C9F35523B1F3951B550BBB27AA27621770
:102C50007307840738F09F5F5F4F220F331F441FB5
:102C6000AA1FA9F333D00E2E3AF0E0E830D09150ED
:102C70005040E695001CCAF729D0FE2F27D0660FDA
:102C8000771F881FBB1F261737074807AB07B0E819
:102C900009F0BB0B802DBF01FF2793585F4F2AF02F
:102CA0009E3F510568F0B6C000C15F3FECF3983E0F
:102CB000DCF3869577956795B795F7959F5FC9F78C
:102CC000880F911D9695879597F90895E1E0660F15
:102CD000771F881FBB1F621773078407BA0720F08E
:102CE000621B730B840BBA0BEE1F88F7E0950895F7
:102CF00004D06894B111D9C00895BCD088F09F5712
:102D000090F0B92F9927B751A0F0D1F0660F771F37
:102D1000881F991F1AF0BA95C9F712C0B13081F017
:102D2000C3D0B1E00895C0C0672F782F8827B85F5F
:102D300039F0B93FCCF3869577956795B395D9F778
:102D40003EF490958095709561957F4F8F4F9F4F82
:102D50000895E89409C097FB3EF49095809570958E
:102D600061957F4F8F4F9F4F9923A9F0F92F96E9D7
:102D7000BB279395F695879577956795B795F1114C
:102D8000F8CFFAF4BB0F11F460FF1BC06F5F7F4FE9
:102D90008F4F9F4F16C0882311F096E911C07723FB
:102DA00021F09EE8872F762F05C0662371F096E804
:102DB000862F70E060E02AF09A95660F771F881FD3
:102DC000DAF7880F9695879597F90895990F000877
:102DD000550FAA0BE0E8FEEF16161706E807F907ED
:102DE000C0F012161306E407F50798F0621B730B88
:102DF000840B950B39F40A2661F0232B242B252B09
:102E000021F408950A2609F4A140A6958FEF811DAB
:102E1000811D089597F99F6780E870E060E008954C
:102E20009FEF80EC089500240A94161617061806E2
:102E30000906089500240A941216130614060506BE
:102E40000895092E0394000C11F4882352F0BB0F4F
:102E500040F4BF2B11F460FF04C06F5F7F4F8F4FB2
:102E60009F4F089557FD9058440F551F59F05F3FED
:102E700071F04795880F97FB991F61F09F3F79F09C
:102E800087950895121613061406551FF2CF46951E
:102E9000F1DF08C0161617061806991FF1CF8695A0
:102EA0007105610508940895E894BB276627772784
:102EB000CB0197F908958ADF08F48FEF08950BD0BE
:102EC000C0CFB1DF28F0B6DF18F0952309F0A2CF0C
:102ED000A7CF1124EACFC6DFA0F3959FD1F3950FBA
:102EE00050E0551F629FF001729FBB27F00DB11D8E
:102EF000639FAA27F00DB11DAA1F649F6627B00D1E
:102F0000A11D661F829F2227B00DA11D621F739F06
:102F1000B00DA11D621F839FA00D611D221F749F14
:102F20003327A00D611D231F849F600D211D822F5B
:102F3000762F6A2F11249F5750408AF0E1F08823A2
:102F40004AF0EE0FFF1FBB1F661F771F881F9150AF
:102F50005040A9F79E3F510570F05CCFA6CF5F3F70
:102F6000ECF3983EDCF3869577956795B795F795E2
:102F7000E7959F5FC1F7FE2B880F911D969587956A
:102F800097F90895629FD001739FF001829FE00D31
:102F9000F11D649FE00DF11D929FF00D839FF00DD8
:102FA000749FF00D659FF00D9927729FB00DE11D84
:102FB000F91F639FB00DE11DF91FBD01CF01112461
:102FC0000895991B79E004C0991F961708F0961B85
:102FD000881F7A95C9F78095089597FB092E0726D3
:102FE0000AD077FD04D049D006D000201AF470959D
:102FF00061957F4F0895F6F7909581959F4F0895BD
:10300000A1E21A2EAA1BBB1BFD010DC0AA1FBB1FEC
:10301000EE1FFF1FA217B307E407F50720F0A21B5E
:10302000B30BE40BF50B661F771F881F991F1A94CB
:1030300069F760957095809590959B01AC01BD01F5
:10304000CF01089597FB092E05260ED057FD04D019
:10305000D7DF0AD0001C38F4509540953095219563
:103060003F4F4F4F5F4F0895F6F7909580957095BD
:1030700061957F4F8F4F9F4F0895AA1BBB1B51E156
:1030800007C0AA1FBB1FA617B70710F0A61BB70BD8
:10309000881F991F5A95A9F780959095BC01CD017D
:1030A0000895EE0FFF1F0590F491E02D09942F92E3
:1030B0003F924F925F926F927F928F929F92AF92C8
:1030C000BF92CF92DF92EF92FF920F931F93CF9315
:1030D000DF93CDB7DEB7CA1BDB0B0FB6F894DEBFAC
:1030E0000FBECDBF09942A88398848885F846E84D2
:1030F0007D848C849B84AA84B984C884DF80EE801C
:10310000FD800C811B81AA81B981CE0FD11D0FB624
:10311000F894DEBF0FBECDBFED010895F894FFCF48
:103120000100000001FF0E0F1011121382008B002E
:1031300093009C00A500AF00B900C400D000DC00E3
:10314000E900F70006011501260137014A015D017A
:10315000720188019F01B801D201EE010B022A021F
:103160004B026E029302BA02E40210033F037003A3
:10317000A403DC03170455049704DD042705750533
:10318000C80520067D06E0064907B8072D08A908EE
:103190002D09B9094D0AEA0A900B400CFA0CC00D32
:1031A000910E6F0F5A100E0F101112130E0F1011F7
:1031B000121302040708090A0B0C0001020304059C
:1031C000060700000000C0088F084808510866087C
:1031D000770800000000EE1186128211B3119311DE
:0231E000DC1100
:00000001FF
