:100000000C9480000C94A8000C94A8000C94A800F8
:100010000C94A8000C94A8000C94A8000C9408144C
:100020000C94A8000C94A8000C94A8000C946C05E7
:100030000C94A8000C94A8000C94A8000C94A800A0
:100040000C94770D0C94A8000C94F7100C942911C3
:100050000C94A8000C94A8000C94A8000C94A80080
:100060000C94EF090C94A8000101010101012F017A
:100070002F012F012F012F012F012F012F012F0100
:100080002F010C0123010C010C0113012301C502F6
:100090003E0365038103B1038E03EC03E20300001A
:1000A0000008000201000003040700000000000037
:1000B0000000010204081020408001020408102002
:1000C00001020408102004040404040404040202CD
:1000D00002020202030303030303000000002300E3
:1000E0002600290000000000250028002B00000049
:1000F0000000240027002A000200F303050959111B
:1001000011241FBECFEFD4E0DEBFCDBF11E0A0E0D1
:10011000B1E0EEE7FFE202C005900D92A23CB1070C
:10012000D9F723E0A2ECB1E001C01D92A63BB207D3
:10013000E1F710E0C0E0D1E004C02297FE010E9488
:100140003A17CA3FD107C9F70E94B4140C94BD17DF
:100150000C940000DC01ED91FC910190F081E02D08
:100160000994811117C08FEC91E00E94C20682EDC4
:1001700091E00E94C20661E082E00E94FE0E61E012
:1001800084E00E94FE0E60E082E00E94370F60E093
:1001900084E016C085ED91E00E94C20688ED91E0F2
:1001A0000E94C20661E087E00E94FE0E61E088E0E6
:1001B0000E94FE0E60E087E00E94370F60E088E05A
:1001C0000C94370F282F30E0F901E656FE4F60817E
:1001D00070E0C901880F991F820F931F24EC39E04A
:1001E00044EF51E08D539E4F0C944406462F50E04F
:1001F000FA013397E331F10590F5EC5CFF4F0C9475
:100200003817E82FF0E0DF01A151BE4F83E08C9357
:10021000E857FE4F61E020C0E82FF0E0E151FE4FCB
:1002200081E080830895E82FF0E0E151FE4F82E005
:1002300080838BE392E00E94770842E060E087EFE2
:1002400091E00C94E50BE82FF0E0DF01A151BE4FE7
:100250001C92E857FE4F62E080810C94FE0E0895D8
:10026000CF93DF93EB01660F672F661F770B6770E5
:10027000772760688F709927E3E0880F991FEA95C8
:10028000E1F7682B792B84E093E00E94AA00BE017D
:100290006F77772784E093E0DF91CF910C94AA00E9
:1002A000CF93DF93D62FA82FB0E0A257BE4FCC91AB
:1002B00061E08C2F0E94FE0EED2FF0E0EE0FFF1F8D
:1002C000EA5FFE4F6081718120E030E0A9018C2F50
:1002D000DF91CF910C94C411E82FF0E0E257FE4F6C
:1002E00080810C94F3132F923F924F925F926F9202
:1002F0007F928F929F92AF92BF92CF92DF92EF92B6
:10030000FF920F931F93CF93DF93CDB7DEB7E7979D
:100310000FB6F894DEBF0FBECDBF9EA78DA7222ECD
:1003200069A77AA79E012F5F3F4F4901CE018196B1
:100330009CA78BA7ADA4BEA4312CA42FB0E0B8AB72
:10034000AFA7C501EDA5FEA58E1B9F0B2FA538A954
:10035000821793070CF057C0F50121915F0130E03F
:10036000C901880F991F820F931F8D539E4F0E94C2
:100370007A07ABA5BCA58D93BCA7ABA7E9A5FAA549
:100380000191FAA7E9A710E0081B1109B801882715
:1003900077FD8095982F0E94C4156B017C01D401D4
:1003A0006D937D938D939D934D0120E030E0A901E5
:1003B0000E94741626013701181624F077FA7094FB
:1003C00077F87094632D70E080E090E00E94C4158F
:1003D0009B01AC01C301B2010E94741618160CF007
:1003E000B0CF20E030E0A901C701B6010E94741629
:1003F000181614F4302EA5CFC701B60190580E94EC
:100400009615362E9ECFCE0101967C0100E010E0BD
:10041000832C912CA12CB12C2FA538A902171307DE
:10042000B4F4C501B4010E94C2159B01AC01D7010F
:100430006D917D918D919C910E942915F701619399
:100440007193819391937F010F5F1F4FE5CF01E07F
:1004500010E0832D90E09FAB8EAB422C512C612C91
:10046000712CEEA9FFA9E017F1070CF465C02DA4CB
:100470003EA49E012F5F3F4F3CA72BA7CE01819644
:100480009AA789A7C801AA2797FDA095BA2F8AAB7A
:100490009BABACABBDABC1012DA53EA5821B930BA5
:1004A000AFA5B8A98A179B07D4F5A9A5BAA56D91E0
:1004B000BAA7A9A7EBA5FCA581909190A190B190B6
:1004C000FCA7EBA7D101ED911D01E9AB70E080E045
:1004D00090E00E94C4156B017C016AA97BA98CA9DC
:1004E0009DA90E94C4159B01AC01C501B4010E94E5
:1004F00078169B01AC01C701B6010E94C5140E9489
:100500009115F9A92F2F30E0A901440F551F420F73
:10051000531FCA018D539E4F0E940107BCCF60E854
:1005200070E080E890E00E943001C301B2010E94B7
:10053000E40D0F5F1F4F95CFE7960FB6F894DEBF1F
:100540000FBECDBFDF91CF911F910F91FF90EF9024
:10055000DF90CF90BF90AF909F908F907F906F90E3
:100560005F904F903F902F900895EF92FF920F93DE
:100570001F93CF93DF938B018830910508F02CC136
:10058000FC01E95BFF4F0C94381712FD07C0C3E074
:10059000D0E084E0F82E92E0E92E06C0C5E0D0E07D
:1005A000A8E0FA2EB7E0EB2EC801880F892F881F2C
:1005B000990B9195877099270F77112781309105B5
:1005C00059F5239791F46091DB0170E080E090E0B1
:1005D0000E94C41523E333E343E250E40E947816FB
:1005E0000E94911583E00E94760E0115110511F409
:1005F00061E01FC00130110509F0EEC060E08E2DF2
:100600000E94370F61E08F2DDF91CF911F910F91E5
:10061000FF90EF900C94370F8230910579F401151B
:10062000110511F461E0EBCF0130110509F0D4C0E0
:1006300060E08E2D0E94370F60E0E5CF049709F04F
:10064000CBC0C330D10511F40093DB01B80188277A
:1006500077FD8095982F0E94C41523E333E343E28E
:1006600050E40E9478160E9491158C2FDF91CF9153
:100670001F910F91FF90EF900C94760E212F277011
:100680008091EE01882381F03091ED01832F90E07D
:10069000FC01EC51FE4F2083FC01E452FE4F6083CD
:1006A0003F5F3093ED0198C0772730E0C901880F94
:1006B000991F820F931F8D539E4FDF91CF911F91F2
:1006C0000F91FF90EF900C940107812F87709B0191
:1006D000220F232F221F330B319520FF0AC06F7783
:1006E0006053DF91CF911F910F91FF90EF900C9489
:1006F0005001DF91CF911F910F91FF90EF900C94DB
:100700006C01660F672F661F770B71956170E12F83
:10071000E770F0E0EC56FE4F808176CFCB0136E0FB
:10072000969587953A95E1F780FD09C01092ED0105
:1007300081E08093EE010F730093EC014DC01092A5
:10074000EE012091EC014091ED016CED71E084EE41
:1007500091E0DF91CF911F910F91FF90EF900C945A
:1007600073011092C201CB0126E0969587952A95D8
:10077000E1F78F716F71663078F46330D0F46130D7
:1007800081F0623049F58250DF91CF911F910F9136
:10079000FF90EF900C94E20090EF960F9630E0F40B
:1007A00008C0DF91CF911F910F91FF90EF900C94B3
:1007B000B1008A50DF91CF911F910F91FF90EF9080
:1007C0000C94F60084E093E0DF91CF911F910F919C
:1007D000FF90EF900C94D510DF91CF911F910F9166
:1007E000FF90EF900895CF93DF936DE187EF91E055
:1007F0000E94230BC3ECD1E0CE010E942806239671
:1008000081E0CB3DD807C1F7DF91CF91089526E075
:1008100040E056E960E070E084E093E00E947910E7
:1008200084E093E00E94F20F80E00E94590EBC0128
:10083000882777FD8095982F0E946414EFEEF1E0F1
:1008400084E0819391E0E73FF907D9F781E0809355
:10085000C20160E870E080E890E00C943001EF9213
:10086000FF920F931F93CF93DF937C018B0184E062
:1008700093E00E94960F029714F480E02FC084E06A
:1008800093E00E94AF0FEC0180389105B4F39C0116
:1008900044E0359527954A95E1F727703327F7010E
:1008A0003183208384E093E00E94960F892BD1F35B
:1008B00084E093E00E94AF0F80389105F4F68F77C3
:1008C0009927CF70DD27D695DC2FCC27D795C795F4
:1008D0008C2B9D2BF8019183808381E0DF91CF9158
:1008E0001F910F91FF90EF9008955F926F927F920A
:1008F0008F929F92AF92BF92CF92DF92EF92FF9230
:100900000F931F93CF93DF9300D000D0CDB7DEB706
:100910008091C201882389F0BE016F5F7F4FCE01B5
:1009200003960E942F04882309F4BCC069817A8150
:100930008B819C810E94B502BBC060E870E080E8BA
:1009400090E00E943001812C912C712CF4E66F2EE6
:10095000F401E151FE4F808155245394570C8130AE
:1009600009F46FC008F461C0823009F091C087EFCC
:1009700091E00E94670C87EF91E00E942E0BBC0172
:10098000882777FD8095982F1F921F921F926F9254
:10099000A12CB12C65011FE7E12EF12C00E010E045
:1009A00020E83FEF4FEF5FEF0E946C14872D90E03F
:1009B0000E94300187EF91E00E94320BBC01882732
:1009C00077FD8095982F1F921F921F926F9220E8BB
:1009D0003FEF4FEF5FEF0E946C14852D90E00E9477
:1009E000300187EF91E00E94360BBC01882777FD2C
:1009F0008095982F1F921F921F926F9220E83FEFD1
:100A00004FEF5FEF0E946C1422E0270D822F90E0E1
:100A10000E94300183E0780E9FEF891A990A0FB681
:100A2000F894DEBF0FBECDBF34C0F401E857FE4FCF
:100A300080810E946D0FBC01872D90E00E943001E3
:100A400027C0F401E058FE4F80810E94590EBC017E
:100A5000882777FD8095982F1F921F921F926F9283
:100A6000A12CB12C6501EE24EA9413E0F12E00E0F4
:100A700010E020E030E0A9010E946C14872D90E086
:100A80000E943001752C0F900F900F900F9001C0B5
:100A9000752C9FEF891A990A88E0881691040CF446
:100AA00057CF3ACF64E670E080E090E00E94E40D1A
:100AB0000F900F900F900F90DF91CF911F910F919A
:100AC000FF90EF90DF90CF90BF90AF909F908F906E
:100AD0007F906F905F9008951F920F920FB60F92C4
:100AE00011242F933F934F935F936F937F938F9333
:100AF0009F93AF93BF93EF93FF938091160287FF6D
:100B000005C010928500109284001AC02091160230
:100B1000332727FD30958091150290E0281739077B
:100B20007CF480911602992787FD9095FC01EE0FC9
:100B3000FF1FE80FF91FE95EFD4F808186FD15C09C
:100B4000809116028F5F8093160220911602332740
:100B500027FD30958091150290E028173907BCF4E5
:100B6000809116028C305CF112C080911602992798
:100B700087FD9095FC01EE0FFF1FE80FF91FE95E5E
:100B8000FD4F808160E08F730E94370FD9CF809135
:100B9000840090918500049680329E4418F480E28F
:100BA0009EE405C080918400909185000496909306
:100BB0008900809388008FEF8093160238C02091BF
:100BC00084003091850080911602992787FD9095C9
:100BD000FC01EE0FFF1FE80FF91FE95EFD4F818159
:100BE0009281820F931F9093890080938800809157
:100BF0001602992787FD9095FC01EE0FFF1FE80F65
:100C0000F91FE95EFD4F808186FF11C080911602B9
:100C1000992787FD9095FC01EE0FFF1FE80FF91F44
:100C2000E95EFD4F808161E08F730E94370FFF9175
:100C3000EF91BF91AF919F918F917F916F915F9154
:100C40004F913F912F910F900FBE0F901F901895CD
:100C5000209115022C30A0F431E0320F30931502B0
:100C6000FC012083822F90E0FC01EE0FFF1FE80FB4
:100C7000F91FE95EFD4F8CED95E092838183089525
:100C80002FEFFC0120830895DF92EF92FF920F93E4
:100C90001F93CF93DF93EC01D62E7A0189018881CF
:100CA0008C3008F066C061E08D2D0E94FE0E8881B8
:100CB000A82FB0E0FD01EE0FFF1FEA0FFB1FE95E5A
:100CC000FD4F2D2D2F739081907C922B908360E2AD
:100CD00072E06E197F0977FF02C06D5F7F4F7595D7
:100CE000679575956795698340E659E0401B510B00
:100CF00057FF02C04D5F5F4F5595479555954795F6
:100D00004A836CE00E94EB169CE0899FB00111249D
:100D100020E030E0A901460F571FFA01EE0FFF1F38
:100D2000E40FF51FE95EFD4F908196FD16C02F5F21
:100D30003F4F2C30310571F781110FC010928000A8
:100D400082E0809381001092850010928400B19A15
:100D500080916F00826080936F00888190E0FC0139
:100D6000EE0FFF1FE80FF91FE95EFD4F80818064E1
:100D700080838881DF91CF911F910F91FF90EF9039
:100D8000DF900895FC01808190E0FC01EE0FFF1FD1
:100D9000E80FF91FE95EFD4F80818F7B8083089506
:100DA000FC0180818C3060F5918128E830E0291BBE
:100DB000310997FD3395220F331F220F331F62171E
:100DC00073077CF0928128E532E0291B310997FDF9
:100DD0003395220F331F220F331F621773070CF452
:100DE0009B014FB7F89490E022503109FC01EE0FBF
:100DF000FF1FE80FF91FE95EFD4F328321834FBFCC
:100E000008954F925F926F927F92AF92BF92CF926E
:100E1000DF92EF92FF920F931F93CF93DF93EC013A
:100E2000603282E078070CF040C077FD06C0653B79
:100E300071052CF064EB70E002C060E070E0898125
:100E400028E830E0281B310987FD3395220F331F36
:100E5000220F331F5901CC24B7FCC094DC2C882707
:100E600077FD8095982F2A8148E552E0421B510971
:100E700027FD5395440F551F440F551F2A01662423
:100E800057FC6094762C7F926F925F924F9214EB96
:100E9000E12EF12C00E010E020E030E0A9010E94FA
:100EA0006C140F900F900F900F90CE01DF91CF91A7
:100EB0001F910F91FF90EF90DF90CF90BF90AF9078
:100EC0007F906F905F904F900C94D006FC018081D2
:100ED0008F3F69F090E0FC01EE0FFF1FE80FF91F54
:100EE000E95EFD4F818192819F710296089580E0B5
:100EF00090E008954F925F926F927F92AF92BF926F
:100F0000CF92DF92EF92FF920F931F93CF93DF93D5
:100F100000D000D0CDB7DEB7FC01228148E552E019
:100F2000421B510927FD5395440F551F440F551F70
:100F30002A01662457FC6094762C418128E830E031
:100F4000241B310947FD3395220F331F220F331F16
:100F5000442737FD4095542F29833A834B835C8384
:100F60000E9466070196BC01882777FD8095982F1F
:100F70001F921F921F92E4EBEF93A12CB12C6501FD
:100F80008301720129813A814B815C810E946C143A
:100F90000F900F900F900F90CB010F900F900F902C
:100FA0000F90DF91CF911F910F91FF90EF90DF9005
:100FB000CF90BF90AF907F906F905F904F900895CB
:100FC00080916B0290E020916C02821B9109089540
:100FD00020916C0280916B02281750F4E22FF0E010
:100FE000E359FD4F808190E02F5F20936C020895BC
:100FF0008FEF9FEF0895E0916C0280916B02E817EC
:1010000030F4F0E0E359FD4F808190E008958FEFD8
:101010009FEF08950895CF92DF92EF92FF920F9382
:101020001F93CF93DF937C01CB018A01209147026C
:10103000222389F0EB016B01C40ED51ECC15DD0512
:1010400069F06991D701ED91FC910190F081E02D5B
:10105000C7010995F3CF642F0E94C609C801DF912B
:10106000CF911F910F91FF90EF90DF90CF90089557
:10107000CF93DF931F92CDB7DEB7698320914702EC
:101080002223D1F020914802203240F021E030E0CC
:10109000FC013383228380E090E015C080914902F7
:1010A000E82FF0E0E65BFD4F998190838F5F80939E
:1010B00049028093480205C061E0CE0101960E947A
:1010C000C60981E090E00F90DF91CF910895FC0177
:1010D0001382128248EE53E060E070E0448355834F
:1010E0006683778386EA91E09183808308951092E6
:1010F0006C0210926B0210924902109248020C94FA
:10110000090981E08093470260936A0210924902C4
:101110001092480208950F93062F21E04091480253
:101120006AE472E080916A020E946F09109249029B
:1011300010924802109247020F9108958F929F9249
:10114000AF92BF92CF92DF92EF92FF920F931F93D5
:10115000CF93DF93EC01F62ED42E48015901EE20F7
:1011600019F10E9481081E2D143008F013E011506F
:10117000B8F0E881F98128E0129FB0011124A5019F
:10118000940104C056954795379527956A95D2F7EF
:10119000CA01B9010190F081E02DCE010995E7CF98
:1011A00060E0CE010E948B084D2D413208F040E2F4
:1011B0002C2D6DE672E08F2D0E94270910926C0293
:1011C00080936B02DF91CF911F910F91FF90EF9071
:1011D000DF90CF90BF90AF909F908F900895CF9267
:1011E000EF920F931F93C22EE12C00E010E09801C4
:1011F0000E949E081F910F91EF90CF90089521E0DB
:101200000C94EF0861E00C948B088BE392E00C9453
:1012100067081092FA0281E08093F8021092F702B8
:1012200061E082E10E94370F61E083E10E94370FA5
:10123000E9EBF0E080818E7F808380818D7F8083E9
:1012400080E28093B80085E48093BC000895413229
:1012500008F043C09091FA029111FCCF91E0909375
:10126000FA022093F8022FEF20938D021092D202FF
:10127000240F2093D1029093F9029091F902880FE4
:10128000892B8093F9028091F702813061F41092EA
:10129000F7028091F9028093BB008091BC0083FD2E
:1012A000F8CF85EC01C085EE8093BC008091FA02F6
:1012B0008130E1F38091D202841710F44091D20280
:1012C00023ED32E0FB01D9018A2F821B841718F429
:1012D0008D918193F9CF842F089580E008950F9325
:1012E000413208F04AC09091FA029111FCCF92E08D
:1012F0009093FA020093F8029FEF90938D02109260
:10130000D2024093D102FB0163ED72E0DB019A2F20
:10131000961B941718F491919D93F9CF1092F902AE
:101320009091F902880F892B8093F9028091F7023E
:10133000813061F41092F7028091F9028093BB0032
:101340008091BC0083FDF8CF85EC01C085EE8093D1
:10135000BC00222321F08091FA028230E1F38091D7
:101360008D028F3F61F080918D02803251F080912B
:101370008D02803341F483E007C081E005C080E046
:1013800003C082E001C084E00F910895613298F4B7
:101390002091FA02243089F46093AF02FC0181EBC2
:1013A00092E0DC012A2F281B261718F421912D9397
:1013B000F9CF80E0089581E0089582E0089585EDF9
:1013C0008093BC008091BC0084FDFCCF1092FA0297
:1013D000089585EC8093BC001092FA0208951F9244
:1013E0000F920FB60F9211242F933F934F935F9359
:1013F0006F937F938F939F93AF93BF93EF93FF93DD
:101400008091B900887F803609F49EC078F58832D3
:1014100009F45DC090F4803109F456C038F4882393
:1014200009F4F5C0883009F44FC0F5C0883109F4DB
:101430004EC0803209F45FC0EEC0803409F46AC047
:1014400058F4803309F457C0883309F0E4C080931E
:101450008D020E94E909DFC0803509F44FC088354C
:1014600009F45DC0883409F0D6C0D3C0883909F4C6
:10147000C4C0A8F4883709F467C038F4883609F482
:1014800063C0803709F460C0C6C0883809F4B5C0AD
:10149000803909F45FC0803809F0BDC05BC0803B73
:1014A00009F483C038F4803A09F466C0883A09F434
:1014B0007CC0B1C0803C09F4A4C0883C09F4A1C040
:1014C000883B09F487C0A7C08091F90210C09091B1
:1014D000D2028091D102981770F5E091D20281E09A
:1014E0008E0F8093D202F0E0ED52FD4F8081809309
:1014F000BB0085EC83C080938D028BC0E091D2024B
:1015000081E08E0F8093D2028091BB00F0E0ED521B
:10151000FD4F80839091D2028091D1026BC0E09107
:10152000D20281E08E0F8093D2028091BB00F0E066
:10153000ED52FD4F80838091F80281116AC081E0F5
:101540008093F70284EA5EC083E08093FA021092EF
:101550008E02CFCF80918E02803208F04EC0E09193
:101560008E0281E08E0F80938E028091BB00F0E0AE
:10157000E157FD4F8083BDCF0E94E90980918E0223
:10158000803230F4E0918E02F0E0E157FD4F10829E
:1015900060918E0270E0E091F302F091F4028FE826
:1015A00092E0099510928E0236C084E08093FA0290
:1015B0001092B0021092AF02E091F502F091F602A3
:1015C00009958091AF02811105C081E08093AF023F
:1015D0001092B102E091B00281E08E0F8093B002D0
:1015E000F0E0EF54FD4F80818093BB009091B002FA
:1015F0008091AF02981708F47CCF85E88093BC00F7
:101600000AC085EC8093BC001092FA0204C01092CC
:101610008D020E94DF09FF91EF91BF91AF919F91E1
:101620008F917F916F915F914F913F912F910F908B
:101630000FBE0F901F901895DC01ED91FC91019069
:10164000F081E02D0994FC01608340EE5EE265E6E6
:1016500072E4428F538F648F758F0895FC018381EC
:1016600094810895FC01858196810895FC0187810C
:10167000908508951F93CF93DF93EC01162F688117
:101680008BE392E00E948108612F8BE392E00E943D
:10169000380860E08BE392E00E948B0841E06881AB
:1016A0008BE392E00E94FF088BE392E00E94E00748
:1016B000892B29F08BE392E00E94E80701C080E0CB
:1016C000DF91CF911F9108951F93CF93DF93EC018A
:1016D00068818BE392E00E9481086AE28BE392E0EA
:1016E0000E9438088BE392E00E94020941E0688181
:1016F0008BE392E00E94FF088BE392E00E94E007F8
:10170000892B31F08BE392E00E94E807182F01C08B
:1017100010E068818BE392E00E9481086AE28BE32B
:1017200092E00E943808612F70E06E7F8BE392E0B8
:101730000E941C0B8BE392E0DF91CF911F910C94E0
:1017400002091F93CF93DF93EC0168818BE392E052
:101750000E9481086AE28BE392E00E9438088BE3E2
:1017600092E00E94020941E068818BE392E00E94CE
:10177000FF088BE392E00E94E007892B31F08BE3B6
:1017800092E00E94E807182F01C010E068818BE307
:1017900092E00E9481086AE28BE392E00E9438089E
:1017A0008D85882319F060E070E002C062E070E08F
:1017B0001961612B8BE392E00E941C0B8BE392E09A
:1017C000DF91CF911F910C940209CF93DF93EC012D
:1017D0006D874A83662329F064E277E98FE79BE30C
:1017E00004C064E277E98FE79CE3443029F49B016D
:1017F000AC010E94C51408C0483031F420E030E04C
:1018000040E850E40E94781669877A878B879C8726
:101810006DE0CE010E943A0B68818BE392E00E945A
:1018200081086BE270E08BE392E00E941C0B60E4A5
:1018300070E08BE392E00E941C0B8BE392E00E942D
:1018400002096AE070E080E090E00E94E40DCE01C1
:101850000E94640B68818BE392E00E94810861E141
:1018600070E08BE392E00E941C0B60EC70E08BE375
:1018700092E00E941C0B8BE392E00E9402096881B7
:101880008BE392E00E9481086EE070E08BE392E0CF
:101890000E941C0B8A81843029F0883051F462E068
:1018A00070E002C061E070E08BE392E00E941C0BEC
:1018B00005C060E08BE392E00E9438088BE392E081
:1018C0000E940209CE01DF91CF910C94A10BCF921F
:1018D000DF92EF92FF920F931F93CF93DF93EC0170
:1018E00068818BE392E00E94810860E08BE392E0E4
:1018F0000E94380860E08BE392E00E948B088D859F
:10190000882311F047E001C044E068818BE392E056
:101910000E94FF088BE392E00E94E007892B09F404
:10192000DDC08BE392E00E94E80789838D858823E0
:1019300009F473C08BE392E00E94E807182F8BE351
:1019400092E00E94E80760E070E0712F860F971F19
:101950009C838B8397FDCF96BC0126E07595679598
:101960002A95E1F7882777FD8095982F0E94C41566
:1019700029853A854B855C850E9478166E877F871E
:10198000888B998B8BE392E00E94E807182F8BE3FA
:1019900092E00E94E80760E070E0712F860F971FC9
:1019A0009E838D8397FDCF96BC0196E075956795D4
:1019B0009A95E1F7882777FD8095982F0E94C415A6
:1019C00029853A854B855C850E9478166A8B7B8BCE
:1019D0008C8B9D8B8BE392E00E94E807182F8BE3A2
:1019E00092E00E94E80760E070E0712F860F971F79
:1019F00098878F8397FDCF96BC0186E07595679594
:101A00008A95E1F7882777FD8095982F0E94C41565
:101A100029853A854B855C855BC08BE392E00E940B
:101A2000E80720E0382F37FF02C021503F4F832FB7
:101A3000880F880B3B838C838BE392E00E94E8073E
:101A400020E0382F37FF02C021503F4F832F880FEF
:101A5000880B3D838E838BE392E00E94E80720E0B1
:101A6000382F37FF02C021503F4F032F132F110F84
:101A7000110B18870F83C984DA84EB84FC846B8193
:101A80007C81882777FD8095982F0E94C415A70137
:101A900096010E9478166E877F87888B998B6D815F
:101AA0007E81882777FD8095982F0E94C415A70115
:101AB00096010E9478166A8B7B8B8C8B9D8BB8016C
:101AC000882777FD8095982F0E94C415A70196015D
:101AD0000E9478166E8B7F8B888F998FDF91CF91C4
:101AE0001F910F91FF90EF90DF90CF9008951F927C
:101AF0000F920FB60F9211242F933F938F939F93C2
:101B0000AF93BF938091FC029091FD02A091FE02E1
:101B1000B091FF023091FB0226E0230F2D3720F415
:101B20000296A11DB11D05C029E8230F0396A11D32
:101B3000B11D2093FB028093FC029093FD02A093C1
:101B4000FE02B093FF028091000390910103A091E7
:101B50000203B09103030196A11DB11D8093000300
:101B600090930103A0930203B0930303BF91AF913D
:101B70009F918F913F912F910F900FBE0F901F90CB
:101B800018953FB7F8948091000390910103A091BC
:101B90000203B091030326B5A89B05C02F3F19F09F
:101BA0000196A11DB11D3FBF6627782F892F9A2F5F
:101BB000620F711D811D911D43E0660F771F881F05
:101BC000991F4A95D1F708958F929F92AF92BF9235
:101BD000CF92DF92EF92FF926B017C010E94C10DC8
:101BE0004B015C01C114D104E104F104F1F00E9445
:101BF000C3140E94C10D681979098A099B09683EBE
:101C000073408105910570F321E0C21AD108E10803
:101C1000F10888EE880E83E0981EA11CB11CC11447
:101C2000D104E104F10429F7DDCFFF90EF90DF90BC
:101C3000CF90BF90AF909F908F900895789484B587
:101C4000826084BD84B5816084BD85B5826085BDB8
:101C500085B5816085BDEEE6F0E08081816080839E
:101C6000E1E8F0E010828081826080838081816081
:101C70008083E0E8F0E0808181608083E1EBF0E048
:101C8000808184608083E0EBF0E0808181608083EC
:101C9000EAE7F0E0808184608083808182608083D5
:101CA00080818E7F80838081806880831092C100D4
:101CB00008958E3008F08E5087702091040190E4D2
:101CC000299F90011124822B80937C0080917A00BF
:101CD000806480937A0080917A0086FDFCCF8091A9
:101CE00078002091790090E0922B08951F93CF9374
:101CF000DF93182FEB0161E00E94FE0E209711F494
:101D000060E004C0CF3FD10539F461E0812FDF915D
:101D1000CF911F910C94370FE12FF0E0E256FF4F67
:101D2000E491E330F9F048F4E130B9F0E230A1F5A4
:101D300084B5806284BDC8BD34C0E730E9F0E830C6
:101D400019F1E43049F58091800080628093800031
:101D5000D0938B00C0938A0024C084B5806884BD72
:101D6000C7BD1FC080918000806880938000D093A1
:101D70008900C093880015C08091B000806880936E
:101D8000B000C093B3000DC08091B000806280931A
:101D9000B000C093B40005C0C038D1050CF0B5CF79
:101DA000AFCFDF91CF911F910895833081F028F458
:101DB000813099F08230A1F008958730A9F0883001
:101DC000B9F08430D1F4809180008F7D03C0809180
:101DD00080008F7780938000089584B58F7702C04C
:101DE00084B58F7D84BD08958091B0008F7703C046
:101DF0008091B0008F7D8093B0000895CF93DF93E2
:101E000090E0FC01EE54FF4F2491FC01EA53FF4F98
:101E10008491882349F190E0880F991FFC01E251D9
:101E2000FF4FA591B4918C519F4FFC01C591D49166
:101E30009FB7611108C0F8948C91209582238C93F0
:101E4000888182230AC0623051F4F8948C91322F39
:101E5000309583238C938881822B888304C0F894E7
:101E60008C91822B8C939FBFDF91CF9108950F931C
:101E70001F93CF93DF931F92CDB7DEB7282F30E0AB
:101E8000F901E256FF4F8491F901EE54FF4F14918E
:101E9000F901EA53FF4F04910023C9F0882321F090
:101EA00069830E94D50E6981E02FF0E0EE0FFF1FDD
:101EB000EC51FF4FA591B4919FB7F8948C916111AB
:101EC00003C01095812301C0812B8C939FBF0F907D
:101ED000DF91CF911F910F910895CF93DF93282F1A
:101EE00030E0F901E256FF4F8491F901EE54FF4FC3
:101EF000D491F901EA53FF4FC491CC2391F08111A1
:101F00000E94D50EEC2FF0E0EE0FFF1FE652FF4FC0
:101F1000A591B4912C912D2381E090E021F480E0F3
:101F200002C080E090E0DF91CF910895FC01818DA7
:101F3000228D90E0805C9F4F821B91098F739927BF
:101F40000895FC01918D828D981731F0828DE80FF4
:101F5000F11D858D90E008958FEF9FEF0895FC01AE
:101F6000918D828D981761F0828DDF01A80FB11DD0
:101F70005D968C91928D9F5F9F73928F90E00895F4
:101F80008FEF9FEF08958FE491E1892B49F080E076
:101F900090E0892B29F00E944F1181110C940000D0
:101FA0000895FC01848DDF01A80FB11DA35ABF4F16
:101FB0002C91848D90E001968F739927848FA68948
:101FC000B7892C93A089B1898C9180648C93938D6F
:101FD000848D981306C00288F389E02D80818F7D5F
:101FE00080830895CF93DF93EC01888D8823C9F017
:101FF000EA89FB89808185FD05C0A889B9898C9112
:1020000086FD0FC00FB607FCF5CF808185FFF2CFAC
:10201000A889B9898C9185FFEDCFCE010E94D10F9F
:10202000E7CFDF91CF910895CF92DF92FF920F9388
:102030001F93CF93DF931F92CDB7DEB76C0181E082
:10204000D60158968C9358975B969C915B975C96BB
:102050008C915C97981307C05096ED91FC91519725
:10206000808185FD2EC0F601038D10E00F5F1F4FAC
:102070000F731127F02EF601848DF81211C00FB6E0
:1020800007FCF9CFD6015096ED91FC9151978081D4
:1020900085FFF1CFC60169830E94D10F6981EBCF23
:1020A000838DE80FF11DE35AFF4F6083D6015B96E5
:1020B0000C935B975296ED91FC91539780818062CF
:1020C0000CC0D6015696ED91FC91579760835096BF
:1020D000ED91FC91519780818064808381E090E054
:1020E0000F90DF91CF911F910F91FF90DF90CF90D4
:1020F0000895BF92CF92DF92EF92FF92CF93DF933A
:10210000EC016A017B01B22E60E874E88EE190E098
:10211000A70196010E94F716215031094109510982
:102120005695479537952795E889F98982E0808308
:10213000211580E1380798F0E889F989108260E478
:1021400072E48FE090E0A70196010E94F7162150FB
:102150003109410951095695479537952795EC85E1
:10216000FD853083EE85FF852083188EEC89FD89FF
:10217000B082EA89FB89808180618083EA89FB895A
:10218000808188608083EA89FB8980818068808380
:10219000EA89FB8980818F7D8083DF91CF91FF90D9
:1021A000EF90DF90CF90BF900895CF93DF93EC0135
:1021B000E881F9810284F385E02D0995EA89FB899C
:1021C00080818F7E8083EA89FB898081877F8083FD
:1021D000EA89FB8980818F778083EA89FB89808106
:1021E0008F7D80838A8D898FDF91CF9108951F9293
:1021F0000F920FB60F9211242F938F939F93EF930B
:10220000FF93E0911403F09115038081E0911A038C
:10221000F0911B0382FD12C0908180911D038F5F9E
:102220008F7320911E03821751F0E0911D03F0E09F
:10223000EC5FFC4F958F80931D0301C08081FF915F
:10224000EF919F918F912F910F900FBE0F901F9044
:1022500018951F920F920FB60F9211242F933F9350
:102260004F935F936F937F938F939F93AF93BF939E
:10227000EF93FF9384E093E00E94D10FFF91EF91E1
:10228000BF91AF919F918F917F916F915F914F918E
:102290003F912F910F900FBE0F901F90189584E0E3
:1022A00093E00E94960F21E0892B09F420E0822F11
:1022B0000895109207031092060388EE93E0A0E0C1
:1022C000B0E08093080390930903A0930A03B093AE
:1022D0000B0386EB91E0909305038093040385EC58
:1022E00090E0909311038093100384EC90E090931E
:1022F00013038093120380EC90E090931503809376
:10230000140381EC90E0909317038093160382EC02
:1023100090E0909319038093180386EC90E09093DB
:102320001B0380931A0310921D0310921E03109238
:102330001F03109220030895CF92DF92EF92FF9235
:102340000F931F93CF93DF937C016A01EB0100E0B1
:1023500010E00C151D0571F06991D701ED91FC910C
:102360000190F081E02DC7010995892B19F00F5FCD
:102370001F4FEFCFC801DF91CF911F910F91FF90B9
:10238000EF90DF90CF9008953F924F925F926F92BF
:102390007F928F929F92AF92BF92CF92DF92EF92F5
:1023A000FF920F931F93CF93DF9300D000D0CDB750
:1023B000DEB78B0129013A0190910501981721F0B0
:1023C0009F3F09F0DAC104C0E8EFF0E0349081C02B
:1023D00080930501E8EFF0E0E491EF3F09F4CDC10F
:1023E000E13031F1E23009F44BC0E11171C014BCAD
:1023F00015BC94B5926094BD95B5916095BD282F9C
:1024000030E0F901EA53FF4FE491F0E0EE0FFF1FD7
:10241000EC51FF4F459154915093B1034093B00359
:10242000F901EE54FF4F24912093AF03312C53C098
:10243000109280001092810090918100986090939A
:10244000810090918100916090938100282F30E06D
:10245000F901EA53FF4FE491F0E0EE0FFF1FEC515A
:10246000FF4F459154915093AA034093A903F9015A
:10247000EE54FF4F24912093A803332433942BC0B0
:102480001092B0001092B1009091B00092609093C1
:10249000B0009091B10091609093B100282F30E08E
:1024A000F901EA53FF4FE491F0E0EE0FFF1FEC510A
:1024B000FF4F459154915093A3034093A203F90118
:1024C000EE54FF4F24912093A10352E0352E03C018
:1024D0003E2E37FC52C161E00E94FE0E4801A12C45
:1024E000B12C832D8D7F09F0C7C060E079E08DE3CA
:1024F00090E0A50194010E94191729833A834B8328
:102500005C8369017A0181E0C81AD108E108F10809
:102510009FEFC916D104E104F10409F008F49AC050
:1025200060E271EA87E090E0A50194010E9419172A
:1025300069017A01E1E0CE1AD108E108F108F2E080
:102540003F1219C08FEFC816D104E104F10409F05D
:1025500008F48AC068E478EE81E090E0A501940177
:102560000E94191769017A0191E0C91AD108E1089E
:10257000F10883E001C082E0EFEFCE16D104E10460
:10258000F10409F008F467C064E274EF80E090E0C1
:10259000A50194010E94191769017A01F1E0CF1A8F
:1025A000D108E108F1083320E1F082E038121BC0C5
:1025B0009FEFC916D104E104F10409F008F4DBC06F
:1025C00062E17AE780E090E0A50194010E9419178A
:1025D00069017A01E1E0CE1AD108E108F10885E04D
:1025E00003C083E001C084E0FFEFCF16D104E10413
:1025F000F10489F180F169E07DE380E090E0A501DC
:1026000094010E94191769017A0181E0C81AD10862
:10261000E108F108311002C084E001C086E09FEFBC
:10262000C916D104E104F104B1F0A8F0C980DA8040
:10263000EB80FC809AE0F594E794D794C7949A9540
:10264000D1F7E1E0CE1AD108E108F108332031F0EA
:1026500087E00BC081E0332011F007C085E095B51D
:10266000987F982B95BD38C082E09091B100987FFB
:10267000982B9093B10030C060E079E08DE390E05A
:10268000A50194010E94191769017A01F1E0CF1A9E
:10269000D108E108F108C114D10481E0E806F10491
:1026A00088F064E274EF80E090E0A50194010E945C
:1026B000191769017A0191E0C91AD108E108F108F6
:1026C00093E001C091E0E1E03E1206C080918100FC
:1026D000887F892B80938100411451046104710427
:1026E00071F0D801AA0FBB1FA30192010E943E17EF
:1026F00028EE33E040E050E00E94F71603C02FEFD1
:102700003FEFA901F1E03F16A1F082E0381619F180
:10271000311033C0C7BC2093B2033093B30340934E
:10272000B4035093B50380916E00826080936E0075
:1027300024C0D0928900C09288002093AB033093CC
:10274000AC034093AD035093AE0380916F00826061
:1027500080936F0012C0C092B3002093A403309303
:10276000A5034093A6035093A70380917000826055
:102770008093700002C084E078CF0F900F900F908C
:102780000F90DF91CF911F910F91FF90EF90DF900D
:10279000CF90BF90AF909F908F907F906F905F9001
:1027A0004F903F900895813039F018F0823051F009
:1027B000089510926E00089580916F008D7F809330
:1027C0006F000895809170008D7F8093700081E08C
:1027D0008093B0008091B100887F84608093B100C5
:1027E0001092B3000895CF93C82F809105018C13E8
:1027F00007C0E8EFF0E084919FEF9093050101C0DE
:102800008FEF0E94D31360E08C2FCF910C94370F81
:102810001F920F920FB60F9211242F933F934F9355
:102820005F936F937F938F939F93AF93BF93EF9338
:10283000FF938091A4039091A503A091A603B0916A
:10284000A703892B8A2B8B2B51F19091A103E09147
:10285000A203F091A3038081892780838091A40340
:102860009091A503A091A603B091A703181619068D
:102870001A061B06C4F48091A4039091A503A091AD
:10288000A603B091A7030197A109B1098093A403FE
:102890009093A503A093A603B093A70304C08091CF
:1028A00005010E94F313FF91EF91BF91AF919F91AA
:1028B0008F917F916F915F914F913F912F910F90E9
:1028C0000FBE0F901F901895611571058105910538
:1028D00011F00C94AC1708954F925F926F927F9213
:1028E000AF92BF92CF92DF92EF92FF920F931F931E
:1028F000CF93DF93CDB7DEB729013A01621B730B8B
:10290000840B950B29893A894B895C892A193B09E3
:102910004C095D09298B3A8B4B8B5C8B9B01AC017D
:1029200069897A898B899C890E94DB16E418F508ED
:1029300006091709A80197010E9419172A0D3B1DC6
:102940004C1D5D1DCA01B901DF91CF911F910F91FF
:10295000FF90EF90DF90CF90BF90AF907F906F90FF
:102960005F904F90089508950E941E0E0E94B31428
:102970000E940704C3ECDFE00E9475042097E1F396
:102980000E94C30FF9CF08955058BB27AA270ED035
:1029900071C162D130F067D120F031F49F3F11F462
:1029A0001EF457C10EF4E095E7FB4DC1E92F73D13A
:1029B00080F3BA17620773078407950718F071F45C
:1029C0009EF58BC10EF4E0950B2EBA2FA02D0B01B6
:1029D000B90190010C01CA01A0011124FF27591B64
:1029E00099F0593F50F4503E68F11A16F040A22F6A
:1029F000232F342F4427585FF3CF469537952795DB
:102A0000A795F0405395C9F77EF41F16BA0B620BD9
:102A1000730B840BBAF09150A1F0FF0FBB1F661F20
:102A2000771F881FC2F70EC0BA0F621F731F841F63
:102A300048F4879577956795B795F7959E3F08F089
:102A4000B3CF9395880F08F09927EE0F9795879548
:102A500008950CD00FC107D140F0FED030F021F422
:102A60005F3F19F0F0C0511139C1F3C014D198F390
:102A70009923C9F35523B1F3951B550BBB27AA27FF
:102A800062177307840738F09F5F5F4F220F331F71
:102A9000441FAA1FA9F333D00E2E3AF0E0E830D03D
:102AA00091505040E695001CCAF729D0FE2F27D040
:102AB000660F771F881FBB1F261737074807AB070E
:102AC000B0E809F0BB0B802DBF01FF2793585F4F83
:102AD0002AF09E3F510568F0B6C000C15F3FECF39D
:102AE000983EDCF3869577956795B795F7959F5F48
:102AF000C9F7880F911D9695879597F90895E1E09C
:102B0000660F771F881FBB1F621773078407BA07FA
:102B100020F0621B730B840BBA0BEE1F88F7E09555
:102B2000089504D06894B111D9C00895BCD088F03C
:102B30009F5790F0B92F9927B751A0F0D1F0660FA9
:102B4000771F881F991F1AF0BA95C9F712C0B130C4
:102B500081F0C3D0B1E00895C0C0672F782F8827D7
:102B6000B85F39F0B93FCCF3869577956795B39503
:102B7000D9F73EF490958095709561957F4F8F4F72
:102B80009F4F0895E89409C097FB3EF49095809577
:102B9000709561957F4F8F4F9F4F9923A9F0F92F23
:102BA00096E9BB279395F695879577956795B795A1
:102BB000F111F8CFFAF4BB0F11F460FF1BC06F5F87
:102BC0007F4F8F4F9F4F16C0882311F096E911C099
:102BD000772321F09EE8872F762F05C0662371F0BA
:102BE00096E8862F70E060E02AF09A95660F771FCE
:102BF000881FDAF7880F9695879597F90895990FAA
:102C00000008550FAA0BE0E8FEEF16161706E807B6
:102C1000F907C0F012161306E407F50798F0621BD7
:102C2000730B840B950B39F40A2661F0232B242BAC
:102C3000252B21F408950A2609F4A140A6958FEFCB
:102C4000811D811D089597F99F6780E870E060E01D
:102C500008959FEF80EC089500240A941616170635
:102C600018060906089500240A941216130614067D
:102C700005060895092E0394000C11F4882352F0E0
:102C8000BB0F40F4BF2B11F460FF04C06F5F7F4F98
:102C90008F4F9F4F089557FD9058440F551F59F07F
:102CA0005F3F71F04795880F97FB991F61F09F3F39
:102CB00079F087950895121613061406551FF2CF62
:102CC0004695F1DF08C0161617061806991FF1CFB2
:102CD00086957105610508940895E894BB276627D9
:102CE0007727CB0197F908958ADF08F48FEF0895CD
:102CF0000BD0C0CFB1DF28F0B6DF18F0952309F074
:102D0000A2CFA7CF1124EACFC6DFA0F3959FD1F3BE
:102D1000950F50E0551F629FF001729FBB27F00D89
:102D2000B11D639FAA27F00DB11DAA1F649F6627DE
:102D3000B00DA11D661F829F2227B00DA11D621F2D
:102D4000739FB00DA11D621F839FA00D611D221FE7
:102D5000749F3327A00D611D231F849F600D211DCB
:102D6000822F762F6A2F11249F5750408AF0E1F06E
:102D700088234AF0EE0FFF1FBB1F661F771F881FB7
:102D800091505040A9F79E3F510570F05CCFA6CFFF
:102D90005F3FECF3983EDCF3869577956795B795A2
:102DA000F795E7959F5FC1F7FE2B880F911D9695CC
:102DB000879597F90895DB018F939F930E943E17A3
:102DC000BF91AF91A29F800D911DA39F900DB29FC7
:102DD000900D11240895991B79E004C0991F96174E
:102DE00008F0961B881F7A95C9F780950895A1E28F
:102DF0001A2EAA1BBB1BFD010DC0AA1FBB1FEE1F75
:102E0000FF1FA217B307E407F50720F0A21BB30BBF
:102E1000E40BF50B661F771F881F991F1A9469F73B
:102E200060957095809590959B01AC01BD01CF0197
:102E30000895052E97FB1EF400940E94301757FD4D
:102E400007D00E94F71607FC03D04EF40C943017FD
:102E500050954095309521953F4F4F4F5F4F0895C6
:102E600090958095709561957F4F8F4F9F4F0895F6
:102E7000EE0FFF1F0590F491E02D09940E94491771
:102E8000A59F900DB49F900DA49F800D911D1124BE
:102E90000895A29FB001B39FC001A39F700D811D33
:102EA0001124911DB29F700D811D1124911D089553
:102EB0008F929F92AF92BF92CF92DF92EF92FF924A
:102EC000CF93DF93EC01688179818A819B816115C1
:102ED00071058105910521F464E279ED8BE597E0B8
:102EE0002DE133EF41E050E00E94191749015A01EA
:102EF0009B01AC01A7EAB1E40E943E176B017C0183
:102F0000ACEEB4EFA50194010E94B817C60ED71E0F
:102F1000E81EF91EF7FE06C081E0C81AD108E108D4
:102F200080E8F80AC882D982EA82FB82C701B6012A
:102F30009F77DF91CF91FF90EF90DF90CF90BF9080
:102F4000AF909F908F9008950E945817089580E049
:102F500091E00E9458170895609300017093010159
:102F600080930201909303010895B7FF0C943E17DC
:0E2F70000E943E17821B930B0895F894FFCF2A
:102F7E000100000001FF82008B0093009C00A50061
:102F8E00AF00B900C400D000DC00E900F700060174
:102F9E001501260137014A015D01720188019F0169
:102FAE00B801D201EE010B022A024B026E0293020D
:102FBE00BA02E40210033F037003A403DC031704F8
:102FCE0055049704DD0427057505C80520067D0602
:102FDE00E0064907B8072D08A9082D09B9094D0AB9
:102FEE00EA0A900B400CFA0CC00D910E6F0F5A109E
:102FFE0000010203040506070E0F101112130E0F27
:10300E00101112130E0F1011121302040708090AE1
:10301E000B0C0000000038080B08E007E807FB0760
:10302E000A080000000014109C11960FAF0FA10F9C
:02303E00F20F8F
:00000001FF
