:100000000C945E000C9486000C9486000C94860080
:100010000C9486000C9486000C9486000C94860048
:100020000C9486000C9486000C9486000C94D001ED
:100030000C9486000C9486000C9486000C94860028
:100040000C94BC030C9486000C94DE060C941007F0
:100050000C9486000C9486000C9486000C94860008
:100060000C9486000C948600000000080002010039
:100070000003040700000000000000000102040863
:100080001020408001020408102001020408102002
:10009000040404040404040402020202020203032E
:1000A0000303030300000000250028002B000000CC
:1000B0000000240027002A003F01400711241FBE32
:1000C000CFEFD4E0DEBFCDBF11E0A0E0B1E0E8E4C7
:1000D000F3E102C005900D92AC31B107D9F722E0EF
:1000E000ACE1B1E001C01D92A030B207E1F710E031
:1000F000CCEBD0E004C02297FE010E948F09C83BE0
:10010000D107C9F70E9484070C94A2090C9400003F
:10011000DC01ED91FC910190F081E02D0994CF93E9
:10012000DF93EB01660F672F661F770B67707727EA
:1001300060688F70992733E0880F991F3A95E1F72F
:10014000682B792B83E691E00E948800BE016F77CF
:10015000772783E691E0DF91CF910C9488000F938D
:100160001F93CF93DF938B018130910509F45BC01E
:100170008730910509F476C0892B09F07BC012FD08
:1001800004C0C3E0D4E082E003C0C5E0D8E087E06B
:100190009801220F232F221F330B3195277033270D
:1001A000B8016F77772721303105A1F4611571050A
:1001B00011F461E01CC06130710509F05BC060E0C2
:1001C0000E944D0561E08D2FDF91CF911F910F911E
:1001D0000C944D052230310571F46115710511F44F
:1001E00061E0EECF6130710509F044C060E00E942B
:1001F0004D0560E0E8CF24303105E1F5882777FD33
:100200008095982F0E94360823E333E343E250E4BD
:100210000E94C2080E9403088C2FDF91CF911F918A
:100220000F910C948C04812F877090E0EC01CC0F1F
:10023000DD1FC80FD91FC45EDE4FFC01EC5FFE4F0F
:10024000608170E024EC39E044EF51E0CE010E947F
:10025000A802B8017727CE01DF91CF911F910F91AE
:100260000C94570383E691E0DF91CF911F910F919A
:100270000C94C206DF91CF911F910F910895CF93F7
:10028000DF93CCE1D1E0CE010E948C02239681E085
:10029000C433D807C1F7DF91CF91089526E040E03D
:1002A00056E960E070E083E691E00E94660683E62E
:1002B00091E00E94DF0560E870E080E890E00C9437
:1002C0008F00EF92FF920F931F93CF93DF937C01E8
:1002D0008B0183E691E00E948305029714F480E08D
:1002E0002FC083E691E00E949C05EC0180389105C7
:1002F000B4F39C0174E0359527957A95E1F7277062
:100300003327F7013183208383E691E00E94830540
:10031000892BD1F383E691E00E949C0580389105FA
:10032000F4F68F779927CF70DD27D695DC2FCC2771
:10033000D795C7958C2B9D2BF8019183808381E005
:10034000DF91CF911F910F91FF90EF900895CF9380
:10035000DF9300D000D0CDB7DEB7BE016F5F7F4F17
:10036000CE0103960E946101882369F061E070E08C
:1003700083E691E00E94880069817A818B819C816B
:100380000E94AF0006C06AE070E080E090E00E944A
:1003900029040F900F900F900F90DF91CF91089547
:1003A0001F920F920FB60F9211242F933F934F93EA
:1003B0005F936F937F938F939F93AF93BF93EF93CD
:1003C000FF938091350187FF05C010928500109240
:1003D00084001AC020913501332727FD3095809184
:1003E000340190E0281739077CF480913501992772
:1003F00087FD9095FC01EE0FFF1FE80FF91FEA5CE7
:10040000FE4F808186FD15C0809135018F5F8093FE
:10041000350120913501332727FD30958091340136
:1004200090E028173907BCF4809135018C305CF1DD
:1004300012C080913501992787FD9095FC01EE0F40
:10044000FF1FE80FF91FEA5CFE4F808160E08F73A9
:100450000E944D05D9CF809184009091850004962B
:1004600080329E4418F480E29EE405C080918400AE
:1004700090918500049690938900809388008FEF77
:100480008093350138C0209184003091850080919F
:100490003501992787FD9095FC01EE0FFF1FE80FAE
:1004A000F91FEA5CFE4F81819281820F931F909326
:1004B00089008093880080913501992787FD909568
:1004C000FC01EE0FFF1FE80FF91FEA5CFE4F808171
:1004D00086FF11C080913501992787FD9095FC0119
:1004E000EE0FFF1FE80FF91FEA5CFE4F808161E00D
:1004F0008F730E944D05FF91EF91BF91AF919F9136
:100500008F917F916F915F914F913F912F910F90BC
:100510000FBE0F901F901895209134012C30A0F43D
:1005200031E0320F30933401FC012083822F90E0C0
:10053000FC01EE0FFF1FE80FF91FEA5CFE4F8CED88
:1005400095E09283818308952FEFFC012083089525
:10055000DF92EF92FF920F931F93CF93DF93EC0103
:10056000D62E7A01890188818C3008F066C061E05E
:100570008D2D0E9414058881A82FB0E0FD01EE0F9B
:10058000FF1FEA0FFB1FEA5CFE4F2D2D2F7390819A
:10059000907C922B908360E272E06E197F0977FF66
:1005A00002C06D5F7F4F75956795759567956983F7
:1005B00040E659E0401B510B57FF02C04D5F5F4FB3
:1005C00055954795559547954A836CE00E943509A6
:1005D0009CE0899FB001112420E030E0A901460F82
:1005E000571FFA01EE0FFF1FE40FF51FEA5CFE4FE5
:1005F000908196FD16C02F5F3F4F2C30310571F76B
:1006000081110FC01092800082E0809381001092CF
:10061000850010928400B19A80916F00826080936F
:100620006F00888190E0FC01EE0FFF1FE80FF91FBB
:10063000EA5CFE4F8081806480838881DF91CF9166
:100640001F910F91FF90EF90DF900895FC01808142
:100650008C3060F5918128E830E0291B310997FD45
:100660003395220F331F220F331F621773077CF05D
:10067000928128E532E0291B310997FD3395220F3D
:10068000331F220F331F621773070CF49B014FB700
:10069000F89490E022503109FC01EE0FFF1FE80FA3
:1006A000F91FEA5CFE4F328321834FBF08954F92BA
:1006B0005F926F927F92AF92BF92CF92DF92EF9252
:1006C000FF920F931F93CF93DF93EC01603282E090
:1006D00078070CF040C077FD06C0653B71052CF033
:1006E00064EB70E002C060E070E0898128E830E0EF
:1006F000281B310987FD3395220F331F220F331F2B
:100700005901CC24B7FCC094DC2C882777FD809558
:10071000982F2A8148E552E0421B510927FD539545
:10072000440F551F440F551F2A01662457FC60943F
:10073000762C7F926F925F924F9214EBE12EF12C08
:1007400000E010E020E030E0A9010E94BB070F901C
:100750000F900F900F90CE01DF91CF911F910F91CD
:10076000FF90EF90DF90CF90BF90AF907F906F9011
:100770005F904F900C9426031F920F920FB60F922A
:1007800011242F933F938F939F93AF93BF938091A7
:100790005B0190915C01A0915D01B0915E0130918F
:1007A0005A0126E0230F2D3720F40296A11DB11D1A
:1007B00005C029E8230F0396A11DB11D20935A01FE
:1007C00080935B0190935C01A0935D01B0935E0107
:1007D00080915F0190916001A0916101B0916201EF
:1007E0000196A11DB11D80935F0190936001A093BC
:1007F0006101B0936201BF91AF919F918F913F9141
:100800002F910F900FBE0F901F9018953FB7F8943F
:1008100080915F0190916001A0916101B0916201AE
:1008200026B5A89B05C02F3F19F00196A11DB11D4B
:100830003FBF6627782F892F9A2F620F711D811D68
:10084000911D43E0660F771F881F991F4A95D1F7C6
:100850000895CF92DF92EF92FF92CF93DF936B01D7
:100860007C010E940604EB01C114D104E104F104EF
:1008700089F00E9402080E9406046C1B7D0B683EF2
:10088000734090F381E0C81AD108E108F108C8511B
:10089000DC4FEACFDF91CF91FF90EF90DF90CF90C8
:1008A0000895789484B5826084BD84B5816084BDE8
:1008B00085B5826085BD85B5816085BDEEE6F0E0D9
:1008C000808181608083E1E8F0E010828081826035
:1008D0008083808181608083E0E8F0E080818160B6
:1008E0008083E1EBF0E0808184608083E0EBF0E0E6
:1008F000808181608083EAE7F0E08081846080838A
:100900008081826080838081816080838081806833
:1009100080831092C10008951F93CF93DF93182F07
:10092000EB0161E00E941405209711F460E004C01F
:10093000CF3FD10539F461E0812FDF91CF911F9135
:100940000C944D05E12FF0E0E859FF4FE491E330BE
:10095000F9F048F4E130B9F0E230A1F584B58062F5
:1009600084BDC8BD34C0E730E9F0E83019F1E430A7
:1009700049F580918000806280938000D0938B0045
:10098000C0938A0024C084B5806884BDC7BD1FC0E1
:1009900080918000806880938000D0938900C0930C
:1009A000880015C08091B00080688093B000C0932B
:1009B000B3000DC08091B00080628093B000C093FE
:1009C000B40005C0C038D1050CF0B5CFAFCFDF9172
:1009D000CF911F910895833081F028F4813099F0F0
:1009E0008230A1F008958730A9F08830B9F08430C2
:1009F000D1F4809180008F7D03C0809180008F773B
:100A000080938000089584B58F7702C084B58F7D70
:100A100084BD08958091B0008F7703C08091B000AD
:100A20008F7D8093B0000895CF93DF9390E0FC0119
:100A3000E458FF4F2491FC01E057FF4F8491882335
:100A400049F190E0880F991FFC01E255FF4FA591F5
:100A5000B4918C559F4FFC01C591D4919FB7611102
:100A600008C0F8948C91209582238C9388818223EE
:100A70000AC0623051F4F8948C91322F3095832360
:100A80008C938881822B888304C0F8948C91822B6C
:100A90008C939FBFDF91CF9108950F931F93CF93B6
:100AA000DF931F92CDB7DEB7282F30E0F901E85968
:100AB000FF4F8491F901E458FF4F1491F901E05779
:100AC000FF4F04910023C9F0882321F069830E941D
:100AD000EB046981E02FF0E0EE0FFF1FEC55FF4FB4
:100AE000A591B4919FB7F8948C91611103C01095B2
:100AF000812301C0812B8C939FBF0F90DF91CF91F9
:100B00001F910F910895FC01818D228D90E0805CF2
:100B10009F4F821B91098F7399270895FC01918D36
:100B2000828D981731F0828DE80FF11D858D90E050
:100B300008958FEF9FEF0895FC01918D828D981796
:100B400061F0828DDF01A80FB11D5D968C91928DB1
:100B50009F5F9F73928F90E008958FEF9FEF0895AE
:100B600086E397E0892B49F080E090E0892B29F01B
:100B70000E94360781110C9400000895FC01848DB9
:100B8000DF01A80FB11DA35ABF4F2C91848D90E0B7
:100B900001968F739927848FA689B7892C93A08992
:100BA000B1898C9180648C93938D848D981306C049
:100BB0000288F389E02D80818F7D80830895CF9313
:100BC000DF93EC01888D8823C9F0EA89FB89808155
:100BD00085FD05C0A889B9898C9186FD0FC00FB627
:100BE00007FCF5CF808185FFF2CFA889B9898C9168
:100BF00085FFEDCFCE010E94BE05E7CFDF91CF91FB
:100C00000895CF92DF92FF920F931F93CF93DF93BC
:100C10001F92CDB7DEB76C01DC015B969C915B97B0
:100C20005C968C915C97981307C05096ED91FC915F
:100C30005197808185FD32C0F601038D10E00F5F72
:100C40001F4F0F731127F02EF601848DF81211C07B
:100C50000FB607FCF9CFD6015096ED91FC91519754
:100C6000808185FFF1CFC60169830E94BE0569813D
:100C7000EBCF838DE80FF11DE35AFF4F6083D60160
:100C80005B960C935B975296ED91FC915397808104
:100C90008062808381E058968C930DC0D601569671
:100CA000ED91FC91579760835096ED91FC9151978F
:100CB00080818064808381E090E00F90DF91CF910C
:100CC0001F910F91FF90DF90CF900895BF92CF9228
:100CD000DF92EF92FF92CF93DF93EC016A017B01E9
:100CE000B22E60E874E88EE190E0A70196010E94C0
:100CF00041092150310941095109569547953795C8
:100D00002795E889F98982E08083211580E13807F9
:100D100098F0E889F989108260E472E48FE090E04D
:100D2000A70196010E944109215031094109510949
:100D30005695479537952795EC85FD853083EE854B
:100D4000FF852083188EEC89FD89B082EA89FB89B2
:100D5000808180618083EA89FB89808188608083CB
:100D6000EA89FB89808180688083EA89FB898081A8
:100D70008F7D8083DF91CF91FF90EF90DF90CF90B8
:100D8000BF900895FC01938D848D9813FCCFA289A8
:100D9000B3898C918F7E8C93A289B3898C91877F44
:100DA0008C93A289B3898C918F778C93A289B38914
:100DB0008C918F7D8C93828D818F08951F920F92DD
:100DC0000FB60F9211242F938F939F93EF93FF935E
:100DD000E0917301F09174018081E0917901F091CB
:100DE0007A0182FD12C0908180917C018F5F8F73A8
:100DF00020917D01821751F0E0917C01F0E0ED59E6
:100E0000FE4F958F80937C0101C08081FF91EF910F
:100E10009F918F912F910F900FBE0F901F9018955B
:100E20001F920F920FB60F9211242F933F934F935F
:100E30005F936F937F938F939F93AF93BF93EF9342
:100E4000FF9383E691E00E94BE05FF91EF91BF9171
:100E5000AF919F918F917F916F915F914F913F9152
:100E60002F910F900FBE0F901F90189583E691E081
:100E70000E94830521E0892B09F420E0822F089548
:100E8000109266011092650188EE93E0A0E0B0E058
:100E90008093670190936801A0936901B0936A0100
:100EA00080E191E0909364018093630185EC90E090
:100EB0009093700180936F0184EC90E090937201A5
:100EC0008093710180EC90E09093740180937301A2
:100ED00081EC90E0909376018093750182EC90E034
:100EE000909378018093770186EC90E090937A015B
:100EF0008093790110927C0110927D0110927E0105
:100F000010927F01089508950E9451040E94830762
:100F10000E944E01C0EBD5E00E94A7012097E1F3AB
:100F20000E94B005F9CFCF92DF92EF92FF920F931C
:100F30001F93CF93DF936C017A01EB01E60EF71E4E
:100F400000E010E0CE15DF0561F06991D601ED916A
:100F5000FC910190F081E02DC6010995080F191F41
:100F6000F1CFC801DF91CF911F910F91FF90EF90CA
:100F7000DF90CF9008954F925F926F927F92AF92E1
:100F8000BF92CF92DF92EF92FF920F931F93CF9376
:100F9000DF93CDB7DEB729013A01621B730B840BD7
:100FA000950B29893A894B895C892A193B094C0997
:100FB0005D09298B3A8B4B8B5C8B9B01AC0169895A
:100FC0007A898B899C890E942509E418F50806090D
:100FD0001709A80197010E9463092A0D3B1D4C1DAA
:100FE0005D1DCA01B901DF91CF911F910F91FF9053
:100FF000EF90DF90CF90BF90AF907F906F905F9019
:101000004F900895089504D06894B111B5C0089523
:1010100098D088F09F5790F0B92F9927B751A0F03A
:10102000D1F0660F771F881F991F1AF0BA95C9F77C
:1010300012C0B13081F09FD0B1E008959CC0672FFD
:10104000782F8827B85F39F0B93FCCF3869577952C
:101050006795B395D9F73EF4909580957095619515
:101060007F4F8F4F9F4F0895E89409C097FB3EF440
:1010700090958095709561957F4F8F4F9F4F9923E5
:10108000A9F0F92F96E9BB279395F6958795779563
:101090006795B795F111F8CFFAF4BB0F11F460FF23
:1010A0001BC06F5F7F4F8F4F9F4F16C0882311F07B
:1010B00096E911C0772321F09EE8872F762F05C08F
:1010C000662371F096E8862F70E060E02AF09A952A
:1010D000660F771F881FDAF7880F9695879597F91F
:1010E000089597F99F6780E870E060E008959FEFAA
:1010F00080EC089500240A941616170618060906AF
:10110000089500240A94121613061406050608957D
:10111000092E0394000C11F4882352F0BB0F40F405
:10112000BF2B11F460FF04C06F5F7F4F8F4F9F4F45
:10113000089557FD9058440F551F59F05F3F71F0C7
:101140004795880F97FB991F61F09F3F79F087952E
:101150000895121613061406551FF2CF4695F1DFB7
:1011600008C0161617061806991FF1CF8695710547
:10117000610508940895E894BB2766277727CB017B
:1011800097F908950BD0C4CFB5DF28F0BADF18F077
:10119000952309F0A6CFABCF1124EECFCADFA0F381
:1011A000959FD1F3950F50E0551F629FF001729FFC
:1011B000BB27F00DB11D639FAA27F00DB11DAA1F1B
:1011C000649F6627B00DA11D661F829F2227B00D68
:1011D000A11D621F739FB00DA11D621F839FA00DF3
:1011E000611D221F749F3327A00D611D231F849F43
:1011F000600D211D822F762F6A2F11249F5750409A
:101200008AF0E1F088234AF0EE0FFF1FBB1F661F34
:10121000771F881F91505040A9F79E3F510570F0ED
:1012200060CFAACF5F3FECF3983EDCF386957795CD
:101230006795B795F795E7959F5FC1F7FE2B880FE8
:10124000911D9695879597F90895DB018F939F934C
:101250000E948209BF91AF91A29F800D911DA39F13
:10126000900DB29F900D11240895991B79E004C050
:10127000991F961708F0961B881F7A95C9F78095D5
:101280000895A1E21A2EAA1BBB1BFD010DC0AA1FC7
:10129000BB1FEE1FFF1FA217B307E407F50720F0DF
:1012A000A21BB30BE40BF50B661F771F881F991F5A
:1012B0001A9469F760957095809590959B01AC01A3
:1012C000BD01CF010895052E97FB1EF400940E94E6
:1012D0007A0957FD07D00E94410907FC03D04EF45C
:1012E0000C947A0950954095309521953F4F4F4F7A
:1012F0005F4F089590958095709561957F4F8F4FC2
:101300009F4F08950E949309A59F900DB49F900D43
:10131000A49F800D911D11240895EE0FFF1F0590CD
:10132000F491E02D0994A29FB001B39FC001A39F47
:10133000700D811D1124911DB29F700D811D11240E
:08134000911D0895F894FFCF00
:101348000100000002040708090A0B0C0000000055
:0C1358000106930783059C058E05DF0548
:00000001FF
