:100000000C94B6000C94CE020C94DE000C94DE002E
:100010000C94DE000C94DE000C94DE000C9483172C
:100020000C94DE000C94DE000C94DE000C94710B3A
:100030000C9488050C94DE000C94DE000C94DE0019
:100040000C942A130C94DE000C94DE000C94DE0059
:100050000C94DE000C94DE000C94DE000C94DE00A8
:100060000C94FD110C94DE00760867098909C30918
:10007000000AE209640A180A1B0A450A450A500ADE
:10008000570AE30AE30AE30AE30AE30AE30AE30A94
:10009000E30AE30A1F0A3A0A1F0A1F0A260A3A0A53
:1000A00009022200010100800A0904000001030086
:1000B0000000092101010001221600070581030843
:1000C00000641201100100000008A0206842000135
:1000D00001020001120353007400750064007500F2
:1000E00069006E006F000C0341007200540065004F
:1000F0006300040309040600FF0901A1011500269D
:10010000FF00750895090900B20201C0000000084F
:1001100000020100000304070000000000000000CE
:10012000010204081020408001020408102001028E
:10013000040810200404040404040404020202025B
:100140000202030303030303000000002300260050
:10015000290000000000250028002B0000000000FE
:10016000240027002A0002005D0B1B1111241FBE72
:10017000CFEFD4E0DEBFCDBF11E0A0E0B1E0EAE810
:10018000F6E302C005900D92A03AB107D9F723E03B
:10019000A0EAB1E001C01D92A133B207E1F711E07E
:1001A000CCE6D1E004C02297FE010E94A218C83616
:1001B000D107C9F70E94170B0C94431B0C94000045
:1001C000CF93C62F2091030324FF07C0209104037F
:1001D00038E823272093040303C02AE52093030370
:1001E000DC01E5E0F3E09C2F9E0F8D918193892F38
:1001F0008E1B1816D4F36C2F85E093E00E94CA0280
:10020000CC5FC0930303CF910895E9E6F0E08081CD
:1002100082608083E89A8BE4809304038AE580936C
:1002200003030895FC0180818093120381818093F0
:1002300013038281809314030895FC018091EF02DF
:1002400080838091F00281838091F102828380918A
:10025000F20283838091F30284838091F402858388
:100260008091F50286838091F60287838091F70260
:1002700080870895CF93DF93D091A001C62FD61722
:1002800008F4CD2F0E941D018091A1018C0F809355
:10029000A101DC1BD093A0018C2FDF91CF91089599
:1002A000CF93DF93D091A001DD2399F0C62FD6170D
:1002B00008F4CD2F0E9412018091A1018C0F809330
:1002C000A101DC1BD093A00181E0DD2319F080E0C7
:1002D00001C081E0DF91CF910895FC01208120765B
:1002E000203259F48181877F813039F489E080930D
:1002F000A0011092A1018FEF089580E00895CF939F
:10030000DF9360911703635067FDC0C080911103B4
:10031000CCE0D0E0C81BD109C55EDC4F8091100352
:100320008D3209F0A1C0683009F0AEC083EC809333
:10033000F8028AE5809301011092A20188818076FB
:1003400039F0CE010E946D018F3F09F47CC082C05C
:100350009A81109201038981811106C010920203D3
:1003600021E033E082E06AC0853019F490931803ED
:1003700062C0863009F049C08B81813019F482EC6B
:1003800090E024C0823041F480EA90E0909316031C
:100390008093150382E235C08330F1F4911108C0D7
:1003A00082EF90E0909316038093150384E029C0B8
:1003B000913041F486EE90E09093160380931503FC
:1003C0008CE01FC09230E1F484ED90E0909316032E
:1003D0008093150382E115C0813241F482EB90E0F5
:1003E000909316038093150389E00BC0823241F489
:1003F00086EF90E0909316038093150386E101C089
:1004000080E090E49093A20125C0883069F08930A3
:1004100019F490931A030FC08A3049F08B3059F4C5
:100420008BE48093040307C02AE133E002C021E09B
:1004300033E081E003C021E033E080E03093160335
:100440002093150307C0988197FD8E8190E89093C3
:10045000A20107C09F81911104C09E81981708F4E2
:10046000892F8093000110C08091A20187FF0CC0EA
:10047000CE010E9450018F3F21F48EE18093010153
:1004800003C08111109200011092170380910101A5
:1004900084FF5EC0809100018F3F09F459C0C82FCE
:1004A000893008F0C8E08C1B809300018091F8022D
:1004B00098E889278093F802CC23C1F18091A201AA
:1004C00087FF09C06C2F89EF92E00E943A01C82F84
:1004D0008930C0F52BC0209115033091160386FF9B
:1004E00012C0A9EFB2E048EF52E040955095420F9C
:1004F000531F8C2F8A0FFA01EA0FFB1FE491ED9333
:100500008A13F9CF09C0E9EFF2E0D9018C2F8E0FE1
:100510009D9191938E13FCCF2F5F3F4F8FEF8C0FE8
:10052000280F311D30931603209315036C2F89EF8C
:1005300092E00E94CA02CC5FCC3041F08FEF8093F2
:10054000000104C08FEF80930001CEE1C093010150
:1005500084E199B1947131F48150D9F71092180364
:1005600010920F03DF91CF910895A82FB92F80E04B
:1005700090E041E050EA609530E009C02D9182277B
:100580009795879510F084279527305EC8F36F5FA5
:10059000A8F30895EADF8D939D930895CF93CFB785
:1005A000CF93C3954C9BE9F74C9B09C04C9B07C06C
:1005B0004C9B05C04C9B03C04C9B01C0A3C0DF9368
:1005C000C0911103DD27C55EDC4F4C9B02C0DF915B
:1005D000EBCF2F930F931F9309B12FEF04FB20F95B
:1005E0004F933F9319B14FEF012704FB21F93BE0F3
:1005F00031C04E7F012F19B1216028C0102F4D7FCF
:100600002260000009B129C04B7F2460012F000047
:1006100019B12BC019B1477F28602AC04F7E09B19C
:1006200020612CC04F7D19B120622FC04F7B09B1D2
:10063000206432C0422709B149934FEF00001027D0
:1006400014FB20F919B11471C9F1297F91F2012726
:1006500004FB21F909B1237F89F2315058F11027A9
:1006600014FB22F919B1277E79F2012704FB23F943
:100670002F7C81F209B1102714FB24F92F7971F234
:1006800000C019B1012704FB25F92F7359F200C0EE
:1006900009B1102714FB26F9223040F200C019B12D
:1006A000012704FB27F9243028F64F77206819B179
:1006B0000000F9CF11E01CBB002719C03B50319559
:1006C000C31BD04011E01CBB0881033CF9F00B3484
:1006D000E9F020910F031981110F1213EDCF4A8118
:1006E000441F093641F10D3211F0013E29F7009304
:1006F00019033F914F911F910F912F91DF91CCB32F
:10070000C0FD4FCFCF91CFBFCF9118952091190346
:10071000222379F310911703112369F534306AF11C
:100720003093170320931003109111033BE0311B0A
:100730003093110322C0009117030130E4F40AE55D
:100740004F7049F43091010134FD19C0009301014B
:10075000C8EFD2E018C03091030334FD10C00093FD
:100760000303C4E0D3E00FC02795A8F45150A9F4C7
:10077000220F0000F9CF4AE503C042ED01C0432F2C
:10078000C4E1D0E032E01AB114615C9A1AB90BB13D
:1007900020E414E15F93012756E00BB9279520F47C
:1007A000515021F4220FF9CF012756E000003B5AA7
:1007B0000BB9D0F2279528F4515029F4220F0000EC
:1007C000F9CF012756E027950BB920F4515021F4B9
:1007D000220FF9CF012756E0299133230BB921F6D7
:1007E0000B7E10911803110FC651D0400BB911F0B8
:1007F00010930F0311E01CBB00611AB11B7E402F48
:100800004B7E5F9100C000C00BB91AB94BB971CFD4
:1008100061E081110AC089E00E94A81460E089E0CB
:100820000E94E1141092CB0108958AE00E94A8145E
:1008300060E08AE00E94E1141092CA010895282F16
:1008400030E0F901E657FE4F608170E0C901880F82
:10085000991F820F931F24EC39E044EF51E0895532
:100860009E4F0C94490C2091120327FD02C080E09A
:10087000089530E0F4E035952795FA95E1F7277073
:100880003327FC01318320834091130347FD09C0C6
:10089000809112038F70F0E88F9FC0011124842B88
:1008A00019C08091140387FDE2CF90E0959587955C
:1008B000959587952091120330E0322F22273295AB
:1008C000307F822B932B4F77F0E24F9F90011124C2
:1008D000822B932BFB019183808381E00895AF925B
:1008E000BF92CF92DF92EF92FF920F931F93CF931D
:1008F000DF938091A601811100C18091A4019091A4
:10090000A5019C012F5F3F4F3093A5012093A401C7
:10091000863091050CF09EC0FC01EC53FE4F208107
:10092000213009F48CC008F479C0223009F08CC061
:100930008DEC91E00E943A0F8DEC91E00E94010E47
:10094000BC01882777FD8095982F1F921F921F92D8
:10095000C4E6CF93A12CB12C65011FE7E12EF12C49
:1009600000E010E020E83FEF4FEF5FEF0E94E71755
:100970008091A301E82FF0E0E151FD4F60838F5F8C
:100980008093A3018DEC91E00E94050EBC018827A5
:1009900077FD8095982F1F921F921F92CF9320E88A
:1009A0003FEF4FEF5FEF0E94E7178091A301E82F21
:1009B000F0E0E151FD4F60838F5F8093A3018DECE8
:1009C00091E00E94090EBC01882777FD8095982F41
:1009D0001F921F921F92CF9320E83FEF4FEF5FEFE0
:1009E0000E94E7178091A301E82FF0E0E151FD4F4D
:1009F00060838F5F8093A3018091A4019091A501F2
:100A000001969093A5018093A4018DB79EB70C9693
:100A10000FB6F8949EBF0FBE8DBF6FC0FC01EE579E
:100A2000FE4F80810E9417159091A301E92FF0E0FD
:100A3000E151FD4F80839F5F9093A3015EC0FC0155
:100A4000EE57FE4F80810AC08091A3018F5F809393
:100A5000A30153C08630910551F584E10E9403142F
:100A6000BC01882777FD8095982F1F921F921F92B7
:100A700024E62F93A12CB12C6501EE24EA9413E017
:100A8000F12E00E010E020E030E0A9010E94E7171D
:100A90008091A301E82FF0E0E151FD4F60838F5F6B
:100AA0008093A3010F900F900F900F9026C007978F
:100AB00021F585E10E940314BC01882777FD80950C
:100AC000982F0E94C71923E333E343ED52E40E94B9
:100AD0007B1A20E030E040E85AE30E947B1AC09184
:100AE000A301D0E0C151DD4F0E9494196883109298
:100AF000A3011092A5011092A401DF91CF911F9143
:100B00000F91FF90EF90DF90CF90BF90AF9008953E
:100B10001F920F920FB60F9211242F933F934F9372
:100B20005F936F937F938F939F93AF93BF93EF9355
:100B3000FF93A8950E947F01FF91EF91BF91AF9124
:100B40009F918F917F916F915F914F913F912F91E5
:100B50000F900FBE0F901F90189561E08DE00E94DE
:100B6000A81480E00E9403140E94DF1761E083E074
:100B70000E94A81484E08093C4018093C5018093EF
:100B8000C6018093C7018093C8018093C90181E0A9
:100B90008093A6018FEF8093EF021092F002809372
:100BA000F1021092F20208958F929F92AF92BF923B
:100BB000CF92DF92EF92FF92CF93C62F811172C036
:100BC0006093CB0104B405FC08C0299B02C05D9969
:100BD000E8C0299902C05D9BE4C084B5C1110CC076
:100BE000806284BD299B03C084B5806102C084B546
:100BF0008F7E84BD18BCD5C08F7E84BD6C2F70E005
:100C0000299B48C0CA3108F447C0882777FD8095E2
:100C1000982F0E94C7196B017C0123EB3FEE4AE03D
:100C20005BEB0E947B1AA70196010E947B1A4B0185
:100C30005C0125E033EA42EC5FE3C701B6010E94A4
:100C40007B1A9B01AC01C501B4010E94C81821E2C6
:100C500030EB42E95FE30E94C7184B015C019B0146
:100C6000AC01C701B6010E94771A18164CF46C2F1C
:100C700070E080E090E00E94C5199B01AC0102C0C9
:100C8000A501940160E070E08FE793E40E94C7182B
:100C90000E94941985E07AC08FEF90E0861B970B35
:100CA000BC01F8CF813009F07CC06093CA0104B464
:100CB00007FC08C02A9B02C05E9973C02A9902C033
:100CC0005E9B6FC084B5C1110CC0806884BD2A9B37
:100CD00003C084B5806402C084B58F7B84BD17BC1B
:100CE00060C08F7B84BD6C2F70E02A9B4EC0CA31E0
:100CF00008F446C0882777FD8095982F0E94C71971
:100D00006B017C0123EB3FEE4AE05BEB0E947B1A18
:100D1000A70196010E947B1A4B015C0125E033EA92
:100D200042EC5FE3C701B6010E947B1A9B01AC0154
:100D3000C501B4010E94C81821E230EB42E95FE32B
:100D40000E94C7184B015C019B01AC01C701B601B1
:100D50000E94771A18164CF46C2F70E080E090E037
:100D60000E94C5199B01AC0102C0A501940160E07D
:100D700070E08FE793E40E94C7180E94941905C0A1
:100D80008FEF90E0861B970BBC0186E0CF91FF9020
:100D9000EF90DF90CF90BF90AF909F908F900C948A
:100DA0002014CF91FF90EF90DF90CF90BF90AF9045
:100DB0009F908F9008952F923F924F925F926F92E3
:100DC0007F928F929F92AF92BF92CF92DF92EF92DB
:100DD000FF920F931F93CF93DF93CDB7DEB7A89702
:100DE0000FB6F894DEBF0FBECDBF8AA39BA349A365
:100DF0002F8FCE0145969B8F8A8F1B01DE011196A6
:100E00004D015C01FAA1FC8F2BA12D8F1E8E8A8DC6
:100E100088A78A2D2A8D821B99A1891708F056C0B0
:100E2000AC8DBD8D2D91BD8FAC8F30E0C901880F89
:100E3000991F820F931F89559E4F0E94890DF501BE
:100E400081935F01D1010D911D0110E0081B110973
:100E5000B801882777FD8095982F0E94C7196B01EC
:100E60007C01F40161937193819391934F0120E090
:100E700030E0A9010E94771A26013701181624F0E4
:100E800077FA709477F87094FE8D6F2F70E080E0A1
:100E900090E00E94C7199B01AC01C301B2010E94FE
:100EA000771A18160CF0B5CF20E030E0A901C70181
:100EB000B6010E94771A181614F40E8FAACFC70134
:100EC000B60190580E9499196E8FA3CF8E010F5FC3
:100ED0001F4FB12CAE8DCA2ED12CE12CF12CB9A113
:100EE000BB16A9F0C701B6010E94C5199B01AC0150
:100EF000F80160817181828193810E942C19D8014F
:100F00006D937D938D939D938D01B394E8CF8091E4
:100F10006F00846080936F0011E0EF8D4E2E512C96
:100F2000612C712C2E8D211708F45AC08AA18C8F48
:100F30009BA19D8FDE011196B8A3AF8FFE01759620
:100F40001F01812F90E0A0E0B0E08CA39DA3AEA391
:100F5000BFA3822DB8A58B1BE9A18E17C0F5D101C7
:100F60006D911D01EF8DF8A181909190A190B190AC
:100F7000F8A3EF8FAC8DBD8D0D91BD8FAC8F70E060
:100F800080E090E00E94C7196B017C016CA17DA1FB
:100F90008EA19FA10E94C7199B01AC01C501B4019C
:100FA0000E947B1A9B01AC01C701B6010E94C818C0
:100FB0000E949419202F30E0A901440F551F420FC1
:100FC000531FCA0189559E4F0E94070DC2CFF0E8FA
:100FD000F0936F03C301B2010E9495131F5FA2CF6C
:100FE00080916F008B7F80936F00A8960FB6F89466
:100FF000DEBF0FBECDBFDF91CF911F910F91FF904C
:10100000EF90DF90CF90BF90AF909F908F907F90A8
:101010006F905F904F903F902F900895CF93DF9304
:10102000C82FD8E02D9A8CE291E00E94BD13C7FF33
:1010300002C02B9A01C02B988AE590E00E94BD1354
:10104000CC0F2D988091B601882329F01092B6011B
:1010500080E797E102C08CE291E00E94BD13D1507D
:1010600009F785B1886285B98C2FDF91CF910895FA
:10107000EF92FF921F93CF93DF931F92CDB7DEB70E
:1010800021E02093B601182F7C018E2D811B86173D
:1010900040F4F70181917F0169830E940E08698104
:1010A000F4CF88EB9BE00F90DF91CF911F91FF90E1
:1010B000EF900C94BD137F928F929F92AF92BF924C
:1010C000CF92DF92EF92FF920F931F93CF93DF9314
:1010D00000D000D0CDB7DEB79B018730910508F076
:1010E00072C2FC01EC5CFF4F0C94A01832FBFF2491
:1010F000F0F832FD08C01091CB0145E0E4E069E072
:10110000762E05E007C01091CA0147E0E6E05AE0FC
:10111000752E06E0B901660F672F661F770B719574
:10112000862F8770622F6F77813009F0ABC0611115
:101130002AC0112371F024B581E090E00E2E01C089
:10114000880F0A94EAF78095822384BD612F70E0AE
:10115000A5C084B521E030E0B90102C0660F771F59
:101160004A95E2F7862B84BD84B50E2E01C0220F6E
:101170000A94EAF72095282324BDF11002C018BC78
:1011800090C017BC8EC0613009F01DC224B581E04B
:1011900090E0112309F45CC00E2E01C0880F0A9460
:1011A000EAF78095822384BD612F70E01A3108F43C
:1011B00046C0882777FD8095982F0E94C7196B013C
:1011C0007C0123EB3FEE4AE05BEB0E947B1AA70118
:1011D00096010E947B1A4B015C0125E033EA42EC48
:1011E0005FE3C701B6010E947B1A9B01AC01C501F8
:1011F000B4010E94C81821E230EB42E95FE30E948B
:10120000C7184B015C019B01AC01C701B6010E94EC
:10121000771A18164CF4612F70E080E090E00E947D
:10122000C5199B01AC0102C0A501940160E070E00A
:101230008FE793E40E94C7180E94941905C08FEFAE
:1012400090E0861B970BBC01802F0E94201415C0D4
:10125000BC0102C0660F771F4A95E2F7262B24BD1A
:1012600024B50E2E01C0880F0A94EAF7282B24BD5E
:10127000F11002C018BC01C017BC61E0872D0E94AC
:10128000E114A1C1823079F4611103C06FEF70E005
:10129000DBCF613009F097C160E070E0802F0E94E1
:1012A000201460E0EBCF843009F08DC170E080E065
:1012B00090E00E94C71923E333E343E250E40E9425
:1012C0007B1A0E9499198F2D0E94D4057CC1E32FAF
:1012D000E7708091C301882381F03091C201832F90
:1012E00090E0DC01A454BE4FEC93FC01E954FE4FA6
:1012F00020833F5F3093C20166C17727F0E0CF01C2
:10130000880F991F8E0F9F1F89559E4F0E94070DB2
:101310005AC1E32FE77067FF2BC0862F8F7790EDC0
:10132000980F9D3388F4DB01AF77BB27AA0FBB1F53
:10133000A855BF4F6D917C91F0E0EE57FE4F20E035
:1013400030E0A90180810EC0E82FF0E0EE0FFF1F12
:10135000803358F4E85FFE4F6081718120E030E017
:10136000A90188E00E9440152EC1E257FF4FF4CF3B
:1013700066FF02C088E004C0F0E0EE57FE4F8081B7
:101380000E946E1720C18B01000F012F001F110B4F
:101390001195E72EFF2466FF0CC061E083E00E94F8
:1013A000E114602F6170F701E770FF27E657FE4FE9
:1013B00007C0602F6170F701E770FF27EE57FE4FFF
:1013C00080815DCFCB01F6E096958795FA95E1F7A0
:1013D00080FD09C01092C20181E08093C3012F7388
:1013E0002093C101F0C01092C3012091C10140912E
:1013F000C20167EB71E08CEB91E00E94DB06E3C079
:10140000CB01E6E096958795EA95E1F78F71462F37
:101410004F71823110F01092A60150E0FA0131971D
:10142000E531F10508F0CFC0E55CFF4F0C94A01842
:101430000E940804C8C082500E941F04C4C0E82F44
:10144000F0E0E654FE4F81E08083BDC0A82FB0E0FD
:10145000A654BE4F92E09C938E3009F0B4C081E157
:1014600092E00E94E11042E060E08DEC91E00E9489
:10147000B80EA9C090E00A97FC01EC53FE4F108211
:10148000FC01EE57FE4F62E010C090E00A97FC01AD
:10149000EC53FE4F23E02083FC01EE57FE4F04C0C7
:1014A000E82FF0E0E857FE4F61E080810AC061E07C
:1014B0008DE00E94A81460E08CE00E94A81461E016
:1014C0008BE00E94A8147FC08091140383709091D8
:1014D000120381112DC082EA8983CB0175E09695B4
:1014E00087957A95E1F78F779927EAE0F0E0BF01D9
:1014F0000E944B1870E1679F800D11248A83832F0F
:1015000082958F7090E0BF010E944B1890E1699F17
:10151000800D11248B83C9018F719927BF010E940F
:101520004B1840E1649F800D11248C8364E047C018
:10153000813009F048C0892F8770C9F485EA898312
:10154000CB0164E0969587956A95E1F78F70932FAC
:10155000991F9927991F60E1969F800D11248A8316
:10156000832F8F7070E1279F800D112426C09FEF7D
:10157000980F923018F5813011F481EA01C084EAA5
:101580008983C9018F719927EAE0F0E0BF010E94C9
:101590004B1890E1699F800D11248A83C90155E0A1
:1015A000969587955A95E1F78F739927BF010E9409
:1015B0004B1840E1649F800D11248B8363E0CE01C2
:1015C00001960E9438080F900F900F900F90DF91B6
:1015D000CF911F910F91FF90EF90DF90CF90BF9030
:1015E000AF909F908F907F900895CF93DF9300D01E
:1015F00000D0CDB7DEB7BE016F5F7F4FCE0103963F
:101600000E943304882361F069817A818B819C81F7
:101610000E945B081092120310921303109214039D
:101620000F900F900F900F90DF91CF9108950E942F
:10163000C8131092800082E08093810081E0809343
:101640008A002EE088E190E00FB6F894A895809388
:1016500060000FBE209360000E940501549A80E054
:10166000815041F0A895E7EBFBE03197F1F700C01E
:101670000000F6CF54980E94AD05C1E0A8950E94E5
:101680007F018091CC01811113C0809112038F3FA3
:10169000A9F7809113038F3F89F71092EF02109200
:1016A000F0021092F1021092F202C093CC01E6CF48
:1016B0000E946F040E94F50AE1CFCF93DF936DE1A2
:1016C0008DEC91E00E94F60DC7EAD1E0CE010E94B8
:1016D0002D0C239681E0C63BD807C1F7DF91CF914F
:1016E00008951F920F920FB60F9211242F933F93DC
:1016F0004F935F936F937F938F939F93AF93BF931A
:10170000EF93FF938091EC0187FF05C01092850055
:10171000109284001AC02091EC01332727FD3095E8
:101720008091EB0190E0281739077CF48091EC015F
:10173000992787FD9095FC01EE0FFF1FE80FF91F19
:10174000E351FE4F808186FD15C08091EC018F5FD3
:101750008093EC012091EC01332727FD3095809197
:10176000EB0190E028173907BCF48091EC018C3034
:101770005CF112C08091EC01992787FD9095FC01E6
:10178000EE0FFF1FE80FF91FE351FE4F808160E06D
:101790008F730E94E114D9CF8091840090918500CD
:1017A00004968033954718F480E395E705C080914F
:1017B000840090918500049690938900809388001E
:1017C0008FEF8093EC0138C0209184003091850028
:1017D0008091EC01992787FD9095FC01EE0FFF1F8A
:1017E000E80FF91FE351FE4F81819281820F931F11
:1017F00090938900809388008091EC01992787FD60
:101800009095FC01EE0FFF1FE80FF91FE351FE4F0B
:10181000808186FF11C08091EC01992787FD90950A
:10182000FC01EE0FFF1FE80FF91FE351FE4F80810F
:1018300061E08F730E94E114FF91EF91BF91AF912E
:101840009F918F917F916F915F914F913F912F91D8
:101850000F900FBE0F901F9018952091EB012C3028
:10186000A0F431E0320F3093EB01FC012083822F92
:1018700090E0FC01EE0FFF1FE80FF91FE351FE4F50
:101880008AEC98E09283818308952FEFFC012083F6
:101890000895DF92EF92FF920F931F93CF93DF9300
:1018A000EC01D62E7A01890188818C3008F066C05F
:1018B00061E08D2D0E94A8148881A82FB0E0FD0161
:1018C000EE0FFF1FEA0FFB1FE351FE4F2D2D2F736D
:1018D0009081907C922B908360E272E06E197F0978
:1018E00077FF02C06D5F7F4F75956795759567951A
:1018F000698340E659E0401B510B57FF02C04D5F22
:101900005F4F55954795559547954A836CE00E94E2
:101910003F189CE0899FB001112420E030E0A9012C
:10192000460F571FFA01EE0FFF1FE40FF51FE3519B
:10193000FE4F908196FD16C02F5F3F4F2C30310532
:1019400071F781110FC01092800082E080938100B6
:101950001092850010928400B19A80916F0082608D
:1019600080936F00888190E0FC01EE0FFF1FE80F6D
:10197000F91FE351FE4F8081806480838881DF916D
:10198000CF911F910F91FF90EF90DF9008951F93DB
:10199000CF93DF93FC01C081CC30A8F58181A8E80A
:1019A000B0E0A81BB10987FDB395AA0FBB1FAA0F12
:1019B000BB1F6A177B077CF08281A8E5B2E0A81BF9
:1019C000B10987FDB395AA0FBB1FAA0FBB1F6A17EA
:1019D0007B070CF4DB0112971FB7F894D0E02CE0E2
:1019E00030E00E94A61828E030E040E050E00E947D
:1019F0008118FE01EE0FFF1FEC0FFD1FE351FE4F9C
:101A0000328321831FBFDF91CF911F9108954F92A1
:101A10005F926F927F92AF92BF92CF92DF92EF92DE
:101A2000FF920F931F93CF93DF93EC01603282E01C
:101A300078070CF040C077FD06C0653B71052CF0BF
:101A400064EB70E002C060E070E0898128E830E07B
:101A5000281B310987FD3395220F331F220F331FB7
:101A60005901CC24B7FCC094DC2C882777FD8095E5
:101A7000982F2A8148E552E0421B510927FD5395D2
:101A8000440F551F440F551F2A01662457FC6094CC
:101A9000762C7F926F925F924F9214EBE12EF12C95
:101AA00000E010E020E030E0A9010E94E7170F906D
:101AB0000F900F900F90CE01DF91CF911F910F915A
:101AC000FF90EF90DF90CF90BF90AF907F906F909E
:101AD0005F904F900C94C70CFC0180818F3FB1F058
:101AE00090E0FC01EE0FFF1FE80FF91FE351FE4FDE
:101AF0008181928143E0880F991F4A95E1F76CE05C
:101B000070E00E944B18CB010296089580E090E0AF
:101B100008954F925F926F927F92AF92BF92CF9251
:101B2000DF92EF92FF920F931F93CF93DF9300D03A
:101B300000D0CDB7DEB7FC01228148E552E0421B60
:101B4000510927FD5395440F551F440F551F2A0176
:101B5000662457FC6094762C418128E830E0241BF1
:101B6000310947FD3395220F331F220F331F4427BE
:101B700037FD4095542F29833A834B835C830E9421
:101B80006C0D0196BC01882777FD8095982F1F92D8
:101B90001F921F92E4EBEF93A12CB12C65018301FE
:101BA000720129813A814B815C810E94E7170F9075
:101BB0000F900F900F90CB010F900F900F900F9000
:101BC000DF91CF911F910F91FF90EF90DF90CF9019
:101BD000BF90AF907F906F905F904F900895DC0121
:101BE000ED91FC910190F081E02D0994FC0160835E
:101BF00040EE5EE265E672E4428F538F648F758F2C
:101C00000895FC01838194810895FC01858196816A
:101C10000895FC018781908508951F93CF93DF93EA
:101C2000EC01162F688181E192E00E94FB10612F88
:101C300081E192E00E94A21060E081E192E00E94C6
:101C4000051141E0688181E192E00E94F81081E194
:101C500092E00E944A10892B29F081E192E00E94D3
:101C6000521001C080E0DF91CF911F9108951F9322
:101C7000CF93DF93EC01688181E192E00E94FB1039
:101C80006AE281E192E00E94A21081E192E00E946A
:101C9000181141E0688181E192E00E94F81081E131
:101CA00092E00E944A10892B31F081E192E00E947B
:101CB0005210182F01C010E0688181E192E00E946B
:101CC000FB106AE281E192E00E94A210612F70E0B5
:101CD0006E7F81E192E00E94EF0D81E192E0DF9161
:101CE000CF911F910C9418111F93CF93DF93EC01A8
:101CF000688181E192E00E94FB106AE281E192E05A
:101D00000E94A21081E192E00E94181141E06881D6
:101D100081E192E00E94F81081E192E00E944A1075
:101D2000892B31F081E192E00E945210182F01C0FE
:101D300010E0688181E192E00E94FB106AE281E19B
:101D400092E00E94A2108D85882319F060E070E077
:101D500002C062E070E01961612B81E192E00E94B3
:101D6000EF0D81E192E0DF91CF911F910C9418115A
:101D7000CF93DF93EC016D874A83662329F064E2F9
:101D800077E98FE79BE304C064E277E98FE79CE3A0
:101D9000443029F49B01AC010E94C81808C04830A7
:101DA00031F420E030E040E850E40E947B1A69877B
:101DB0007A878B879C876DE0CE010E940D0E68812B
:101DC00081E192E00E94FB106BE270E081E192E021
:101DD0000E94EF0D60E470E081E192E00E94EF0D5F
:101DE00081E192E00E9418116AE070E080E090E0EA
:101DF0000E949513CE010E94370E688181E192E026
:101E00000E94FB1061E170E081E192E00E94EF0D21
:101E100060EC70E081E192E00E94EF0D81E192E0E0
:101E20000E941811688181E192E00E94FB106EE02F
:101E300070E081E192E00E94EF0D8A81843029F008
:101E4000883051F462E070E002C061E070E081E14E
:101E500092E00E94EF0D05C060E081E192E00E94F7
:101E6000A21081E192E00E941811CE01DF91CF9182
:101E70000C94740ECF92DF92EF92FF920F931F9308
:101E8000CF93DF93EC01688181E192E00E94FB1027
:101E900060E081E192E00E94A21060E081E192E0C6
:101EA0000E9405118D85882311F047E001C044E0B0
:101EB000688181E192E00E94F81081E192E00E9445
:101EC0004A10892B09F4DDC081E192E00E94521092
:101ED00089838D85882309F473C081E192E00E9493
:101EE0005210182F81E192E00E94521060E070E0E1
:101EF000712F860F971F9C838B8397FDCF96BC0114
:101F000026E0759567952A95E1F7882777FD8095F6
:101F1000982F0E94C71929853A854B855C850E94B8
:101F20007B1A6E877F87888B998B81E192E00E9474
:101F30005210182F81E192E00E94521060E070E090
:101F4000712F860F971F9E838D8397FDCF96BC01BF
:101F500096E0759567959A95E1F7882777FD8095C6
:101F6000982F0E94C71929853A854B855C850E9468
:101F70007B1A6A8B7B8B8C8B9D8B81E192E00E941C
:101F80005210182F81E192E00E94521060E070E040
:101F9000712F860F971F98878F8397FDCF96BC016F
:101FA00086E0759567958A95E1F7882777FD809596
:101FB000982F0E94C71929853A854B855C855BC09F
:101FC00081E192E00E94521020E0382F37FF02C0DA
:101FD00021503F4F832F880F880B3B838C8381E1F7
:101FE00092E00E94521020E0382F37FF02C02150AB
:101FF0003F4F832F880F880B3D838E8381E192E0D2
:102000000E94521020E0382F37FF02C021503F4F6E
:10201000032F132F110F110B18870F83C984DA8434
:10202000EB84FC846B817C81882777FD8095982FD9
:102030000E94C719A70196010E947B1A6E877F87AD
:10204000888B998B6D817E81882777FD8095982F6D
:102050000E94C719A70196010E947B1A6A8B7B8B8D
:102060008C8B9D8BB801882777FD8095982F0E94D7
:10207000C719A70196010E947B1A6E8B7F8B888FF0
:10208000998FDF91CF911F910F91FF90EF90DF908B
:10209000CF9008958091410290E020914202821BEE
:1020A000910908952091420280914102281750F42D
:1020B000E22FF0E0ED5BFD4F808190E02F5F2093F9
:1020C000420208958FEF9FEF0895E09142028091C0
:1020D0004102E81730F4F0E0ED5BFD4F808190E0C5
:1020E00008958FEF9FEF08950895CF92DF92EF92BA
:1020F000FF920F931F93CF93DF937C01CB018A0153
:1021000020911D02222389F0EB016B01C40ED51E24
:10211000CC15DD0569F06991D701ED91FC91019035
:10212000F081E02DC7010995F3CF642F0E94D411EF
:10213000C801DF91CF911F910F91FF90EF90DF9039
:10214000CF900895CF93DF931F92CDB7DEB7698309
:1021500020911D022223D1F020911E02203240F056
:1021600021E030E0FC013383228380E090E015C061
:1021700080911F02E82FF0E0E05EFD4F998190838F
:102180008F5F80931F0280931E0205C061E0CE0125
:1021900001960E94D41181E090E00F90DF91CF91E1
:1021A0000895FC011382128248EE53E060E070E073
:1021B000448355836683778383E991E091838083A9
:1021C0000895109242021092410210921F02109242
:1021D0001E020C941F11862F413208F040E263E486
:1021E00072E00E943D1110924202809341020895D4
:1021F00021E00C94EB1081E080931D02609340027B
:1022000010921F0210921E0208950F93062F21E0D4
:1022100040911E0260E272E0809140020E948111B2
:1022200010921F0210921E0210921D020F9108952B
:1022300061E00C94051181E192E00C94D1101092B0
:10224000D00281E08093CE021092CD0261E082E163
:102250000E94E11461E083E10E94E114E9EBF0E007
:1022600080818E7F808380818D7F808384E38093D3
:10227000B80085E48093BC000895413208F03FC067
:102280009091D0029111FCCF91E09093D0022093D5
:10229000CE022FEF209363021092A802240F209306
:1022A000A7029093CF029091CF02880F892B809341
:1022B000CF028091CD02813041F41092CD02809105
:1022C000CF028093BB0085EC01C085EE8093BC00FB
:1022D0008091D0028130E1F38091A802841710F43C
:1022E0004091A80229EA32E0FB01D9018A2F821B22
:1022F000841718F48D918193F9CF842F089580E08D
:1023000008950F93413208F046C09091D002911188
:10231000FCCF92E09093D0020093CE029FEF909377
:1023200063021092A8024093A702FB0169EA72E0DF
:10233000DB019A2F961B941718F491919D93F9CF76
:102340001092CF029091CF02880F892B8093CF02F9
:102350008091CD02813041F41092CD028091CF0264
:102360008093BB0085EC01C085EE8093BC002223E6
:1023700021F08091D0028230E1F3809163028F3F9F
:1023800061F080916302803251F08091630280336A
:1023900041F483E007C081E005C080E003C082E033
:1023A00001C084E00F910895613298F42091D00229
:1023B000243089F460938502FC0187E892E0DC0117
:1023C0002A2F281B261718F421912D93F9CF80E08E
:1023D000089581E0089582E0089585ED8093BC0022
:1023E0008091BC0084FDFCCF1092D002089585EC52
:1023F0008093BC001092D00208951F920F920FB6E6
:102400000F9211242F933F934F935F936F937F937A
:102410008F939F93AF93BF93EF93FF938091B900F6
:10242000887F803609F49CC068F5883209F45BC067
:1024300090F4803109F454C038F4882309F4F5C0CD
:10244000883009F44DC0F5C0883109F44CC08032A1
:1024500009F45DC0EEC0803409F468C048F48033EC
:1024600009F455C0883309F0E4C080936302A8C022
:10247000803509F44FC0883509F45DC0883409F00F
:10248000D8C0D5C0883909F4C6C0A8F4883709F483
:1024900067C038F4883609F463C0803709F460C037
:1024A000C8C0883809F4B7C0803909F45FC08038E3
:1024B00009F0BFC05BC0803B09F485C038F4803AA6
:1024C00009F466C0883A09F47EC0B3C0803C09F4C0
:1024D000A6C0883C09F4A3C0883B09F489C0A9C000
:1024E0008091CF0210C09091A8028091A702981706
:1024F00070F5E091A80281E08E0F8093A802F0E0D1
:10250000E755FD4F80818093BB0085EC85C08093AB
:1025100063028DC0E091A80281E08E0F8093A80233
:102520008091BB00F0E0E755FD4F80839091A802B9
:102530008091A7026DC0E091A80281E08E0F809388
:10254000A8028091BB00F0E0E755FD4F80838091A9
:10255000CE0281116CC081E08093CD0284EA60C01C
:1025600083E08093D00210926402CFCF8091640206
:10257000803208F050C0E091640281E08E0F8093B9
:1025800064028091BB00F0E0EB59FD4F8083BDCF2A
:1025900080916402803230F4E0916402F0E0EB5903
:1025A000FD4F10820E94ED116091640270E0E09195
:1025B000C902F091CA0285E692E009951092640280
:1025C0000E94F71136C084E08093D00210928602F8
:1025D00010928502E091CB02F091CC020995809196
:1025E0008502811105C081E08093850210928702E7
:1025F000E091860281E08E0F80938602F0E0E95739
:10260000FD4F80818093BB0090918602809185026E
:10261000981708F47ACF85E88093BC000AC085EC4F
:102620008093BC001092D00204C0109263020E94FA
:10263000ED11FF91EF91BF91AF919F918F917F919C
:102640006F915F914F913F912F910F900FBE0F901F
:102650001F9018951F920F920FB60F9211242F936F
:102660003F938F939F93AF93BF938091D2029091AA
:10267000D302A091D402B091D5023091D1022DE2C3
:10268000230F2D3720F40196A11DB11D05C020EBAD
:10269000230F0296A11DB11D2093D1028093D20277
:1026A0009093D302A093D402B093D5028091D60226
:1026B0009091D702A091D802B091D9020196A11DA4
:1026C000B11D8093D6029093D702A093D802B09305
:1026D000D902BF91AF919F918F913F912F910F9010
:1026E0000FBE0F901F9018959FB7F8944091D60297
:1026F0005091D7026091D8027091D90286B5A89BFB
:1027000006C08F3F21F04F5F5F4F6F4F7F4F9FBFDE
:102710002227342F452F562F280F311D411D511DC3
:10272000A5E0B0E00E94AD180895CF92DF92EF923D
:10273000FF92CF93DF936B017C010E947413EB0136
:10274000C114D104E104F10489F00E942E180E9402
:1027500074136C1B7D0B683E734090F381E0C81AC4
:10276000D108E108F108C851DC4FEACFDF91CF91E1
:10277000FF90EF90DF90CF9008958130910539F070
:10278000029729F0880F991F01970197F1F7089593
:10279000789484B5826084BD84B5816084BD85B53C
:1027A000826085BD85B5816085BDEEE6F0E0808103
:1027B00081608083E1E8F0E0108280818260808324
:1027C000808181608083E0E8F0E0808181608083A7
:1027D000E1EBF0E0808184608083E0EBF0E08081D9
:1027E00081608083EAE7F0E080818460808380817B
:1027F0008260808380818160808380818068808323
:102800001092C10008958E3008F08E50877020918C
:10281000060190E4299F90011124822B80937C0073
:1028200080917A00806480937A0080917A0086FD9E
:10283000FCCF809178002091790090E0922B089550
:102840001F93CF93DF93182FEB0161E00E94A81430
:10285000209711F460E004C0CF3FD10539F461E066
:10286000812FDF91CF911F910C94E114E12FF0E0C3
:10287000E45FFE4FE491E330F9F048F4E130B9F061
:10288000E230A1F584B5806284BDC8BD34C0E730B4
:10289000E9F0E83019F1E43049F580918000806278
:1028A00080938000D0938B00C0938A0024C084B5AD
:1028B000806884BDC7BD1FC0809180008068809300
:1028C0008000D0938900C093880015C08091B0002B
:1028D00080688093B000C093B3000DC08091B000B9
:1028E00080628093B000C093B40005C0C038D105A9
:1028F0000CF0B5CFAFCFDF91CF911F91089583300A
:1029000081F028F4813099F08230A1F00895873069
:10291000A9F08830B9F08430D1F4809180008F7DA7
:1029200003C0809180008F7780938000089584B5E4
:102930008F7702C084B58F7D84BD08958091B000EB
:102940008F7703C08091B0008F7D8093B000089591
:10295000CF93DF9390E0FC01E05EFE4F2491FC01F9
:10296000EC5CFE4F8491882349F190E0880F991F19
:10297000FC01E45AFE4FA591B4918E5A9E4FFC0182
:10298000C591D4919FB7611108C0F8948C9120959E
:1029900082238C93888182230AC0623051F4F89498
:1029A0008C91322F309583238C938881822B88835E
:1029B00004C0F8948C91822B8C939FBFDF91CF91B0
:1029C00008950F931F93CF93DF931F92CDB7DEB778
:1029D000282F30E0F901E45FFE4F8491F901E05EB9
:1029E000FE4F1491F901EC5CFE4F04910023C9F0F5
:1029F000882321F069830E947F146981E02FF0E031
:102A0000EE0FFF1FEE5AFE4FA591B4919FB7F894B9
:102A10008C91611103C01095812301C0812B8C938F
:102A20009FBF0F90DF91CF911F910F910895CF938A
:102A3000DF93282F30E0F901E45FFE4F8491F90124
:102A4000E05EFE4FD491F901EC5CFE4FC491CC23C3
:102A500091F081110E947F14EC2FF0E0EE0FFF1F28
:102A6000E85BFE4FA591B4912C912D2381E090E07D
:102A700021F480E002C080E090E0DF91CF910895E2
:102A80003F924F925F926F927F928F929F92AF92FE
:102A9000BF92CF92DF92EF92FF920F931F93CF934B
:102AA000DF9300D000D0CDB7DEB78B0129833A8306
:102AB0004B835C8390910701981721F09F3F09F0A9
:102AC000D7C104C0E6E6F1E0349081C080930701ED
:102AD000E6E6F1E0E491EF3F09F4CAC1E13031F1FB
:102AE000E23009F44BC0E11171C014BC15BC94B5BF
:102AF000926094BD95B5916095BD282F30E0F901A5
:102B0000EC5CFE4FE491F0E0EE0FFF1FEE5AFE4F3B
:102B1000459154915093EA024093E902F901E05E35
:102B2000FE4F24912093E802312C53C01092800074
:102B30001092810090918100986090938100909113
:102B40008100916090938100282F30E0F901EC5CC6
:102B5000FE4FE491F0E0EE0FFF1FEE5AFE4F45915D
:102B600054915093E3024093E202F901E05EFE4F7C
:102B700024912093E102332433942BC01092B000AF
:102B80001092B1009091B00092609093B00090913B
:102B9000B10091609093B100282F30E0F901EC5C16
:102BA000FE4FE491F0E0EE0FFF1FEE5AFE4F45910D
:102BB00054915093DC024093DB02F901E05EFE4F3A
:102BC00024912093DA0252E0352E03C03E2E37FCCA
:102BD0004FC161E00E94A8144801A12CB12C832DA3
:102BE0008D7F09F0BFC060E87DE88BE590E0A5012E
:102BF00094010E94811829013A0169017A0181E05A
:102C0000C81AD108E108F1089FEFC916D104E10400
:102C1000F10409F008F494C060EB71E78BE090E0F8
:102C2000A50194010E94811869017A01A1E0CA1AE4
:102C3000D108E108F108B2E03B1219C0EFEFCE165F
:102C4000D104E104F10409F008F484C06CE67CEDE1
:102C500082E090E0A50194010E94811869017A0147
:102C6000F1E0CF1AD108E108F10883E001C082E069
:102C70009FEFC916D104E104F10409F008F461C022
:102C800066E37EE681E090E0A50194010E94811850
:102C900069017A01A1E0CA1AD108E108F1083320DC
:102CA000E1F0B2E03B121BC0EFEFCE16D104E1041D
:102CB000F10409F008F4DAC06BE177EB80E090E012
:102CC000A50194010E94811869017A01F1E0CF1AEF
:102CD000D108E108F10885E003C083E001C084E089
:102CE0009FEFC916D104E104F10459F150F1FF241A
:102CF00077FCFA94E72CD62CC52CA1E0CA1AD1088F
:102D0000E108F108311002C084E001C086E0BFEFA5
:102D1000CB16D104E104F104A1F098F07301620133
:102D20009AE0F594E794D794C7949A95D1F7E1E0A7
:102D3000CE1AD108E108F108332031F087E00BC04A
:102D400081E0332011F007C085E095B5987F982B7E
:102D500095BD38C082E09091B100987F982B9093F8
:102D6000B10030C060E87DE88BE590E0A5019401FA
:102D70000E94811869017A01F1E0CF1AD108E108B7
:102D8000F108C114D10481E0E806F10488F066E39B
:102D90007EE681E090E0A50194010E94811869011E
:102DA0007A0191E0C91AD108E108F10893E001C065
:102DB00091E0A1E03A1206C080918100887F892BC2
:102DC0008093810089819A81AB81BC81892B8A2B78
:102DD0008B2B81F0D801AA0FBB1F29813A814B812F
:102DE0005C810E94AD1828EE33E040E050E00E9484
:102DF0005F1803C02FEF3FEFA90191E03916A1F052
:102E0000A2E03A1619F1311033C0C7BC2093EB028F
:102E10003093EC024093ED025093EE0280916E00ED
:102E2000826080936E0024C0D0928900C092880096
:102E30002093E4023093E5024093E6025093E702C8
:102E400080916F00826080936F0012C0C092B300C7
:102E50002093DD023093DE024093DF025093E002C4
:102E60008091700082608093700002C084E073CF14
:102E70000F900F900F900F90DF91CF911F910F91B6
:102E8000FF90EF90DF90CF90BF90AF909F908F908A
:102E90007F906F905F904F903F900895813039F010
:102EA00018F0823051F0089510926E0008958091CC
:102EB0006F008D7F80936F000895809170008D7FEB
:102EC0008093700081E08093B0008091B100887F92
:102ED00084608093B1001092B3000895CF93C82FFF
:102EE000809107018C1307C0E6E6F1E084919FEF23
:102EF0009093070101C08FEF0E944E1760E08C2F66
:102F0000CF910C94E1141F920F920FB60F921124DF
:102F10002F933F934F935F936F937F938F939F93E1
:102F2000AF93BF93EF93FF938091DD029091DE0208
:102F3000A091DF02B091E002892B8A2B8B2B51F1FB
:102F40009091DA02E091DB02F091DC028081892726
:102F500080838091DD029091DE02A091DF02B0912A
:102F6000E002181619061A061B06C4F48091DD0249
:102F70009091DE02A091DF02B091E0020197A109D9
:102F8000B1098093DD029093DE02A093DF02B0933B
:102F9000E00204C0809107010E946E17FF91EF913B
:102FA000BF91AF919F918F917F916F915F914F9161
:102FB0003F912F910F900FBE0F901F901895009783
:102FC00029F0BC0180E090E00C94321B08954F92F0
:102FD0005F926F927F92AF92BF92CF92DF92EF9209
:102FE000FF920F931F93CF93DF93CDB7DEB72901E5
:102FF0003A01621B730B840B950B29893A894B8923
:103000005C892A193B094C095D09298B3A8B4B8B4A
:103010005C8B9B01AC0169897A898B899C890E94B0
:103020002F18E418F50806091709A80197010E944E
:1030300081182A0D3B1D4C1D5D1DCA01B901DF9190
:10304000CF911F910F91FF90EF90DF90CF90BF90A5
:10305000AF907F906F905F904F9008950895DB013F
:103060008F939F930E94AD18BF91AF91A29F800D47
:10307000911DA39F900DB29F900D11240895991B4F
:1030800079E004C0991F961708F0961B881F7A955F
:10309000C9F780950895AA1BBB1B51E107C0AA1F61
:1030A000BB1FA617B70710F0A61BB70B881F991FE9
:1030B0005A95A9F780959095BC01CD010895A1E29C
:1030C0001A2EAA1BBB1BFD010DC0AA1FBB1FEE1FA2
:1030D000FF1FA217B307E407F50720F0A21BB30BED
:1030E000E40BF50B661F771F881F991F1A9469F769
:1030F00060957095809590959B01AC01BD01CF01C5
:103100000895052E97FB1EF400940E94981857FD11
:1031100007D00E945F1807FC03D04EF40C94981857
:1031200050954095309521953F4F4F4F5F4F0895F3
:1031300090958095709561957F4F8F4F9F4F089523
:10314000EE0FFF1F0590F491E02D09940E94B8182E
:10315000B7FF0895821B930B08950E94B818A59F8E
:10316000900DB49F900DA49F800D911D1124089582
:10317000A29FB001B39FC001A39F700D811D1124B8
:10318000911DB29F700D811D1124911D08955058FD
:10319000BB27AA270ED071C162D130F067D120F0D1
:1031A00031F49F3F11F41EF457C10EF4E095E7FB94
:1031B0004DC1E92F73D180F3BA17620773078407F3
:1031C000950718F071F49EF58BC10EF4E0950B2E67
:1031D000BA2FA02D0B01B90190010C01CA01A00169
:1031E0001124FF27591B99F0593F50F4503E68F1C4
:1031F0001A16F040A22F232F342F4427585FF3CF05
:10320000469537952795A795F0405395C9F77EF4D5
:103210001F16BA0B620B730B840BBAF09150A1F01E
:10322000FF0FBB1F661F771F881FC2F70EC0BA0FA4
:10323000621F731F841F48F4879577956795B7952C
:10324000F7959E3F08F0B3CF9395880F08F0992724
:10325000EE0F9795879508950CD00FC107D140F0D8
:10326000FED030F021F45F3F19F0F0C0511139C1A8
:10327000F3C014D198F39923C9F35523B1F3951BE7
:10328000550BBB27AA2762177307840738F09F5F87
:103290005F4F220F331F441FAA1FA9F333D00E2EF6
:1032A0003AF0E0E830D091505040E695001CCAF763
:1032B00029D0FE2F27D0660F771F881FBB1F261728
:1032C00037074807AB07B0E809F0BB0B802DBF01FB
:1032D000FF2793585F4F2AF09E3F510568F0B6C014
:1032E00000C15F3FECF3983EDCF3869577956795D8
:1032F000B795F7959F5FC9F7880F911D96958795AC
:1033000097F90895E1E0660F771F881FBB1F6217CA
:1033100073078407BA0720F0621B730B840BBA0B88
:10332000EE1F88F7E095089504D06894B111D9C0D4
:103330000895BCD088F09F5790F0B92F9927B751C6
:10334000A0F0D1F0660F771F881F991F1AF0BA9569
:10335000C9F712C0B13081F0C3D0B1E00895C0C048
:10336000672F782F8827B85F39F0B93FCCF386955F
:1033700077956795B395D9F73EF4909580957095BC
:1033800061957F4F8F4F9F4F0895E89409C097FB39
:103390003EF490958095709561957F4F8F4F9F4F2C
:1033A0009923A9F0F92F96E9BB279395F695879570
:1033B00077956795B795F111F8CFFAF4BB0F11F433
:1033C00060FF1BC06F5F7F4F8F4F9F4F16C08823DA
:1033D00011F096E911C0772321F09EE8872F762F10
:1033E00005C0662371F096E8862F70E060E02AF051
:1033F0009A95660F771F881FDAF7880F969587953D
:1034000097F90895990F0008550FAA0BE0E8FEEF11
:1034100016161706E807F907C0F012161306E40798
:10342000F50798F0621B730B840B950B39F40A2691
:1034300061F0232B242B252B21F408950A2609F46F
:10344000A140A6958FEF811D811D089597F99F6773
:1034500080E870E060E008959FEF80EC089500241C
:103460000A941616170618060906089500240A94E9
:1034700012161306140605060895092E0394000C6F
:1034800011F4882352F0BB0F40F4BF2B11F460FFFE
:1034900004C06F5F7F4F8F4F9F4F089557FD905827
:1034A000440F551F59F05F3F71F04795880F97FB08
:1034B000991F61F09F3F79F08795089512161306C2
:1034C0001406551FF2CF4695F1DF08C016161706F1
:1034D0001806991FF1CF8695710561050894089526
:1034E000E894BB2766277727CB0197F908958ADFF1
:1034F00008F48FEF08950BD0C0CFB1DF28F0B6DF0E
:1035000018F0952309F0A2CFA7CF1124EACFC6DF88
:10351000A0F3959FD1F3950F50E0551F629FF001E6
:10352000729FBB27F00DB11D639FAA27F00DB11D3F
:10353000AA1F649F6627B00DA11D661F829F2227C8
:10354000B00DA11D621F739FB00DA11D621F839F4F
:10355000A00D611D221F749F3327A00D611D231F25
:10356000849F600D211D822F762F6A2F11249F5773
:1035700050408AF0E1F088234AF0EE0FFF1FBB1F96
:10358000661F771F881F91505040A9F79E3F510535
:1035900070F05CCFA6CF5F3FECF3983EDCF38695EE
:1035A00077956795B795F795E7959F5FC1F7FE2BE0
:1035B000880F911D9695879597F908958F929F9200
:1035C000AF92BF92CF92DF92EF92FF92CF93DF93B1
:1035D000EC01688179818A819B8161157105810582
:1035E000910521F464E279ED8BE597E02DE133EF6D
:1035F00041E050E00E94811849015A019B01AC0151
:10360000A7EAB1E40E94AD186B017C01ACEEB4EF07
:10361000A50194010E943E1BC60ED71EE81EF91E8E
:10362000F7FE06C081E0C81AD108E10880E8F80A70
:10363000C882D982EA82FB82C701B6019F77DF91F7
:10364000CF91FF90EF90DF90CF90BF90AF909F9081
:103650008F9008950E94DE1A089582E091E00E9402
:10366000DE1A0895609302017093030180930401B0
:10367000909305010895B7FF0C94AD180E94AD1802
:0A368000821B930B0895F894FFCF0E
:10368A00FF5A0100000001FF82008B0093009C009A
:10369A00A500AF00B900C400D000DC00E900F700C3
:1036AA0006011501260137014A015D0172018801EF
:1036BA009F01B801D201EE010B022A024B026E02EF
:1036CA009302BA02E40210033F037003A403DC036B
:1036DA00170455049704DD0427057505C805200657
:1036EA007D06E0064907B8072D08A9082D09B9097A
:1036FA004D0AEA0A900B400CFA0CC00D910E6F0F9E
:10370A005A100E0F1011121314150506090A0B0090
:10371A00000000A21075104A1052106510741000B3
:00000001FF
